:100000000C94B4000C94D5000C94D5000C94D5003D
:100010000C94D5000C94D5000C94D5000C94D5000C
:100020000C94D5000C94D5000C94D5000C94D500FC
:100030000C94D5000C94D5000C94D5000C94D500EC
:100040000C94D5000C94D5000C94D5000C94D500DC
:100050000C94B3280C94D5000C94D5000C94D500C6
:100060000C94D5000C94D5000C94D5000C94D500BC
:100070000C94D5000C94D5000C94D5000C94D500AC
:100080000C94D5000C94D5000C94D5000C94D5009C
:100090000C94D5000C94D5000C94D5000C94D5008C
:1000A0000C94D5000C94D5000C94D5000C94D5007C
:1000B0000C94D5000C94D5000C94D5000C94D5006C
:1000C0000C94D5000C94D5000C94D5000C94D5005C
:1000D0000C94D5000C94D5000C94D5000C94D5004C
:1000E0000C94D5000C9447200C94A61F0C94ED1A88
:1000F0000C945E130C947A230C9426240C94BA204E
:100100000C94E31F0C9416170C944A1F0C948C1437
:100110000C947D200C948D190C94111A0C9490134E
:100120000C941A230C940A010C94EB040C94A2274F
:100130000C942A030C94A71A0C940A280C94F828FF
:100140000C945D290C9473270C94DB180C941F01FC
:100150000C94A9160C94F5000C94E3190C94A021AE
:100160000C94C0050C94292211241FBECFEFD1E2BC
:10017000DEBFCDBF00E00CBF16E0A0E0B2E0E2EAD7
:10018000F6E600E00BBF02C007900D92A835B1075C
:10019000D9F726E0A8E5B6E001C01D92A636B20761
:1001A000E1F70E9457290C944F330C940000DC01B6
:1001B0009096FB017F9640E030813295307F3E93F0
:1001C000229122952F70232B2C934F5F4F31A1F753
:1001D000FB0120812295207FFC0120830895A0E26D
:1001E000B0E0E5EFF0E00C94EC2E8C01CE0101962E
:1001F0000E944906BE016F5F7F4FC8010E946C0DCF
:10020000A096E4E00C94082FA0E2B0E0EAE0F1E070
:100210000C94EC2E8C01CE0101960E94A00ABE0126
:100220006F5F7F4FC8010E946C0DA096E4E00C94B4
:10023000082FA0E5B0E0EFE1F1E00C94EA2E8C018C
:100240007B01CE0101960E94A00ABE016F5F7F4F25
:10025000CE018F5B9F4F0E946C0DA701BE016F5BAB
:100260007F4FCE0101960E944906BE016F5F7F4F0E
:10027000CE01C1960E946C0DBE016F5C7F4FCE0116
:1002800001960E94A00ABE016F5F7F4FCE0181964A
:100290000E946C0DBE016F5D7F4FCE0101960E94E2
:1002A000A00ABE016F5F7F4FCE0181960E946C0D48
:1002B000AE014F5C5F4FBE016F5D7F4FCE01019677
:1002C0000E944906BE016F5F7F4FCE01C1960E941A
:1002D0006C0DBE016F5C7F4FCE0101960E94A00A9B
:1002E000BE016F5F7F4FCE0181960E946C0DA7010A
:1002F000BE016F5D7F4FCE0101960E944906BE018F
:100300006F5F7F4FCE0181960E946C0DBE016F5DC5
:100310007F4FCE0101960E94A00ABE016F5F7F4F02
:10032000C8010E946C0D54E0F52EB801CE01019673
:100330000E94A00ABE016F5F7F4FC8010E946C0D32
:10034000FA9499F7AE014F5D5F4FB801CE01019667
:100350000E944906BE016F5F7F4FCE0181960E94C9
:100360006C0DBE016F5D7F4FCE0101960E94A00A09
:10037000BE016F5F7F4FC8010E946C0D49E0F42EF3
:10038000B801CE0101960E94A00ABE016F5F7F4FA7
:10039000C8010E946C0DFA9499F7AE014F5D5F4F52
:1003A000B801CE0101960E944906BE016F5F7F4FE2
:1003B000CE0181960E946C0DBE016F5D7F4FCE0114
:1003C00001960E94A00ABE016F5F7F4FC8010E9484
:1003D0006C0D33E1F32EB801CE0101960E94A00A04
:1003E000BE016F5F7F4FC8010E946C0DFA9499F7B0
:1003F000AE014F5D5F4FB801CE0101960E944906E4
:10040000BE016F5F7F4FCE0181960E946C0DBE01D1
:100410006F5D7F4FCE0101960E94A00ABE016F5F03
:100420007F4FC8010E946C0D27E2F22EB801CE0169
:1004300001960E94A00ABE016F5F7F4FC8010E9413
:100440006C0DFA9499F7AE014F5D5F4FB801CE0184
:1004500001960E944906BE016F5F7F4FC8010E944E
:100460006C0D98E2F92EB801CE0101960E94A00A07
:10047000BE016F5F7F4FC8010E946C0DFA9499F71F
:10048000AE014F5D5F4FB801CE0101960E94490653
:10049000BE016F5F7F4FC8010E946C0D84E0F82E93
:1004A000B801CE0101960E94A00ABE016F5F7F4F86
:1004B000C8010E946C0DFA9499F7AE014F5C5F4F32
:1004C000B801CE0101960E944906BE016F5F7F4FC1
:1004D000C8010E946C0DB801CE0101960E94A00ACD
:1004E000BE016F5F7F4FC8010E946C0DAE014F5B74
:1004F0005F4FB801CE0101960E944906BE016F5FB1
:100500007F4FCE0181960E946C0DBE016F5D7F4FC3
:10051000CE0101960E94A00ABE016F5F7F4FCE01FF
:1005200081960E946C0DAE014F5D5F4FB801CE0108
:1005300001960E944906BE016F5F7F4FC8010E946D
:100540006C0DC05BDF4FE6E00C94062F8F929F92FC
:10055000AF92BF92CF92DF92EF92FF920F93CF9321
:10056000DF93CDB7DEB7E0970FB6F894DEBF0FBECE
:10057000CDBF6C017B015A014901B901CE01019641
:100580000E94A00ABE016F5F7F4FCE0181960E943C
:100590006C0DA501BE016F5D7F4FCE0101960E94DB
:1005A0004906BE016F5F7F4FCE0181960E946C0DA0
:1005B000BE016F5D7F4FC6010E941901A501B60102
:1005C000CE0101960E944906BE016F5F7F4FCE01AA
:1005D00081960E946C0DA401BE016F5D7F4FCE011C
:1005E00001960E944906BE016F5F7F4FC7010E94BE
:1005F0006C0DB701C7010E941C13A701B601CE0103
:1006000001960E944906BE016F5F7F4FC6010E949E
:100610006C0DF7018081802780FF04C0B701C701FE
:100620000E94050FE0960FB6F894DEBF0FBECDBF57
:10063000DF91CF910F91FF90EF90DF90CF90BF901F
:10064000AF909F908F900895A0E5B0E0EAE2F3E0CC
:100650000C94E92E8C017B01CE0101960E94A00A28
:10066000BE016F5F7F4FCE018F5B9F4F0E946C0D6D
:10067000A701BE016F5B7F4FCE0101960E94490624
:10068000BE016F5F7F4FCE018F5B9F4F0E946C0D4D
:10069000BE016F5B7F4FCE0101960E94A00ABE0192
:1006A0006F5F7F4FCE01C1960E946C0DBE016F5CE3
:1006B0007F4FCE0101960E94A00ABE016F5F7F4F5F
:1006C000CE01C1960E946C0DAE014F5B5F4FBE0123
:1006D0006F5C7F4FCE0101960E944906BE016F5F9D
:1006E0007F4FCE018F5B9F4F0E946C0DBE016F5BF1
:1006F0007F4FCE0101960E94A00ABE016F5F7F4F1F
:10070000CE018F5B9F4F0E946C0DA701BE016F5BF6
:100710007F4FCE0101960E944906BE016F5F7F4F59
:10072000CE018F5B9F4F0E946C0DBE016F5B7F4FB0
:10073000CE0101960E94A00ABE016F5F7F4FCE01DD
:10074000C1960E946C0DB4E0DB2EBE016F5C7F4F42
:10075000CE0101960E94A00ABE016F5F7F4FCE01BD
:10076000C1960E946C0DDA9481F7AE014F5B5F4F2A
:10077000BE016F5C7F4FCE0101960E944906BE010B
:100780006F5F7F4FCE0181960E946C0DBE016F5D41
:100790007F4FCE0101960E94A00ABE016F5F7F4F7E
:1007A000CE01C1960E946C0DA9E0DA2EBE016F5CED
:1007B0007F4FCE0101960E94A00ABE016F5F7F4F5E
:1007C000CE01C1960E946C0DDA9481F7AE014F5DA7
:1007D0005F4FBE016F5C7F4FCE0101960E944906BC
:1007E000BE016F5F7F4FCE0181960E946C0DBE01EE
:1007F0006F5D7F4FCE0101960E94A00ABE016F5F20
:100800007F4FCE01C1960E946C0DF3E1DF2EBE0139
:100810006F5C7F4FCE0101960E94A00ABE016F5F00
:100820007F4FCE01C1960E946C0DDA9481F7AE0124
:100830004F5D5F4FBE016F5C7F4FCE0101960E94FE
:100840004906BE016F5F7F4FCE0181960E946C0DFD
:10085000BE016F5D7F4FCE0101960E94A00ABE01CE
:100860006F5F7F4FCE01C1960E946C0DE7E2DE2ED6
:10087000BE016F5C7F4FCE0101960E94A00ABE01AF
:100880006F5F7F4FCE01C1960E946C0DDA9481F7A5
:10089000AE014F5D5F4FBE016F5C7F4FCE01019691
:1008A0000E944906BE016F5F7F4FC8010E946C0D18
:1008B000B801CE0101960E94A00ABE016F5F7F4F72
:1008C000CE01C1960E946C0D77E2D72EBE016F5CFF
:1008D0007F4FCE0101960E94A00ABE016F5F7F4F3D
:1008E000CE01C1960E946C0DDA9481F7AE014F5D86
:1008F0005F4FBE016F5C7F4FCE0101960E9449069B
:10090000BE016F5F7F4FC8010E946C0DB801CE0120
:1009100001960E94A00ABE016F5F7F4FCE01C19673
:100920000E946C0D64E0D62EBE016F5C7F4FCE013D
:1009300001960E94A00ABE016F5F7F4FCE01C19653
:100940000E946C0DDA9481F7AE014F5B5F4FBE01E0
:100950006F5C7F4FCE0101960E944906BE016F5F1A
:100960007F4FCE018F5B9F4F0E946C0DBE016F5B6E
:100970007F4FCE0101960E94A00ABE016F5F7F4F9C
:10098000CE01C1960E946C0DBE016F5C7F4FCE01FF
:1009900001960E94A00ABE016F5F7F4FCE01C196F3
:1009A0000E946C0DA701BE016F5C7F4FCE010196C6
:1009B0000E944906BE016F5F7F4FC8010E946C0D07
:1009C000C05BDF4FE7E00C94052FA0E0B0E0EBEE5A
:1009D000F4E00C94DE2EEC017B016A011801B901F0
:1009E000C7010E944F10B601CE010E944F10AE0108
:1009F000B701C7010E94EF005E0180E1A80EB11CA3
:100A0000370180E1680E711CA501B301C3010E948A
:100A1000EF006E0180E2C80ED11C470180E2880E13
:100A2000911CA601B401C4010E94EF008E01005D7B
:100A30001F4F270180E3480E511CA801B201C201DB
:100A40000E94EF00BE01CE010E940401B501C50164
:100A50000E940401B601C6010E940401B801C80148
:100A60000E9404014CE052E0B701C7010E94180E39
:100A70004AE052E0B301C3010E94180E48E052E080
:100A8000B401C4010E94180E46E052E0B201C20156
:100A90000E94180E4CE052E0BE01CE010E94180EDA
:100AA0004AE052E0B501C5010E94180E48E052E04C
:100AB000B601C6010E94180E46E052E0B801C80116
:100AC0000E94180EB701C7010E944F10BE01CE014F
:100AD0000E944F10B701C7010E940401B301C30176
:100AE0000E940401B401C4010E940401B201C201C8
:100AF0000E940401BE01CE010E940401B501C5019E
:100B00000E940401B601C6010E940401B801C80197
:100B10000E940401A101B301C3010E94EF00A101E1
:100B2000405F5F4FB401C4010E94EF00A101405E2D
:100B30005F4FB201C2010E94EF0044E152E0BE01EA
:100B4000CE010E94180E42E152E0B501C5010E949B
:100B5000180E40E152E0B601C6010E94180E4EE0A8
:100B600052E0B801C8010E94180ECDB7DEB7E2E12D
:100B70000C94FA2EA0E0B0E0E0ECF5E00C94E22E4C
:100B80005C014B013A0169018BE0D5018C9386E150
:100B900050968C93509783E190968C93909783E036
:100BA000D0968C9395012F5F3F4FC5014196F5017B
:100BB000B196B5016F5C7F4FA501405D5F4FD901D4
:100BC0001D929D01DC011D92CD011192DB011D9250
:100BD000BD01E417F50799F77501B0E4EB0EF11CC0
:100BE000B301C7010E94DD19D7FC3AC000E010E054
:100BF000F601F595E795F595E795F595E795E80DF7
:100C0000F91DC081D0E0C6018770992702C0D59533
:100C1000C7958A95E2F7C170DD270C271D27B7011C
:100C2000C7010E94050F0195F701D50120E09C91B5
:100C300080818927802398279D939081982791937D
:100C40002F5F2034A1F783019701A501B701C501EA
:100C50000E94E504E1E0CE1AD10810F08E01C8CF61
:100C6000B501C5010E94050FC195F701D50120E02E
:100C70009C91808189278C2398279D939081982728
:100C800091932F5F2034A1F7CDB7DEB7EEE00C943F
:100C9000FE2E2F923F924F925F926F927F928F9291
:100CA0009F92AF92BF92CF92DF92EF92FF920F93FB
:100CB0001F93CF93DF93FC01EA01DB014427552703
:100CC0008A012D903D904D905D90688079808A805A
:100CD0009B80289C6001269C5001279CB00CC11C65
:100CE000D51E399C7001299C9001369CB00CC11C0A
:100CF000D21E351F379CC00CD11C351F499CE30EFA
:100D0000F01C011D489C9001469CC00CD11CE21EA9
:100D1000351F389CD00CE11C351F599CF30E001D6B
:100D2000111D579C9001479CD00C211D351F569CCE
:100D3000D00C211D351F589CE20E031E151EF00C11
:100D4000011D151FA082B182C282D3825A012D914A
:100D50003D914D916C817D818E819F81269FE00C1C
:100D6000F11C051FB51E279FF00C011DB51E369FF7
:100D7000F00C011D1B1DA51E289F000D111DA51E99
:100D8000379F000D111DA51E469F000D111DA51EAC
:100D9000BB24299F100DA11CB51E389F100DA11C4E
:100DA000B51E479F100DA11CB51E221A330A440A16
:100DB0002D91520A0008661A770A880A990A1108C2
:100DC000202430244024502461247124812491243F
:100DD00020183008400850086118710881089108EF
:100DE000012400FA269F100DA11CB51E399F332740
:100DF000A00CB11C351F489FA00CB11C351F279FAC
:100E0000A00CB11C351F499F4427B00C311D451F54
:100E1000289FB00C311D451F299F300D411D88278B
:100E200099272227269CB001279C700D811D369C96
:100E3000700D811D951F289C800D911D251F379CCD
:100E4000800D911D251F469C800D911D251F299CFD
:100E50002224900D211D251E389C900D211D251E3C
:100E6000479C900D211D251E569C900D211D251E71
:100E7000399C3324200D211C351E489C200D211C3B
:100E8000351E579C200D211C351E499C4424200CE6
:100E9000311C451E589C200C311C451E599C300CA1
:100EA000411C608071806E0C7F1CC01ED11EEA1C2C
:100EB000FB1C031F141F882480F88A94581D052EDC
:100EC0000594682578258825982528252824382400
:100ED0004824880C661E771EC81ED91EE21EF21C0E
:100EE000031D141DA51EB01C301D401D648275829B
:100EF000C682D782B701C8012A2D5B2DCC24DD2400
:100F0000760186012D903D904D905D9068847984A6
:100F10008A849B84269C5001279CB00CC11C369C63
:100F2000B00CC11CD11E289CC00CD11CE11E379CEA
:100F3000C00CD11CE11E469CC00CD11CE11E299C9A
:100F4000D00CE11CF11E389CD00CE11CF11E479C1A
:100F5000D00CE11CF11E569CD00CE11CF11E6A0D58
:100F6000608B7B1D718B8C1D828B9D1D938BA21EB4
:100F7000A48AB51EB58AC31ED41E00080F9244274A
:100F80005527399CE00CF11C051F489CE00CF11C16
:100F9000051F579CE00CF11C051F499CF00C011D1E
:100FA000151F589CF00C011D151F599C000D111D9B
:100FB0005A012D913D914D916C857D858E859F8542
:100FC000269FE00CF11C051FB51E279FF00C011D8C
:100FD000B51E369FF00C011D1B1DA51E289F000D80
:100FE000111DA51E379F000D111DA51E469F000D4A
:100FF000111DA51EBB24299F100DA11CB51E389FD5
:10100000100DA11CB51E479F100DA11CB51E221A64
:10101000330A440A2D91520A0008661A770A880A90
:10102000990A11082024302440245024612471247A
:101030008124912420183008400850086118710854
:1010400081089108012400FA269F100DA11CB51EED
:10105000399F3327A00CB11C351F489FA00CB11C31
:10106000351F279FA00CB11C351F499F4427B00C8A
:10107000311D451F289FB00C311D451F299F300D84
:10108000411D882799272227269CB001279C700D97
:10109000811D369C700D811D951F289C800D911D12
:1010A000251F379C800D911D251F469C800D911D8D
:1010B000251F299C2224900D211D251E389C900D52
:1010C000211D251E479C900D211D251E569C900D0F
:1010D000211D251E399C3324200D211C351E489CC2
:1010E000200D211C351E579C200D211C351E499CAE
:1010F0004424200C311C451E589C200C311C451EDC
:10110000599C300C411C648875886E0C7F1CC01E75
:10111000D11EEA1CFB1C031F141F551F0F900194C6
:10112000E00C0024F01C001D101D882480F88A9417
:10113000581D052E0594682578258825982528258D
:10114000282438244824880C661E771EC81ED91E01
:10115000E21EF21C031D141DA51EB01C301D401DF7
:10116000648A758AC68AD78AE08EF18E028F138FC1
:10117000A48EB58E368F478F50972D903D904D9011
:101180005D902D913D914D915D91AD90BD90CD9033
:10119000DD90ED90FD900D911C912A183B084C08B4
:1011A0005D082E093F09400B510B000868807980CB
:1011B0008A809B806C817D818E819F81A884B98487
:1011C000CA84DB84EC84FD840E851F856A187B0845
:1011D0008C089D086E097F09800B910B1108202453
:1011E00030244024502420253025402550256124DA
:1011F0007124812491246125712581259125201850
:101200003008400850082009300940095009611889
:101210007108810891086109710981099109AA275A
:10122000BB2701240F928D01289C6001269C500150
:10123000279CB00CC11CDA1E399C7001299CE0016E
:10124000369CB00CC11CDC1EDA1F379CC00CD11CB4
:10125000DA1F499CED0EF01C011D489CE001469CE4
:10126000C00CD11CEC1EDA1F389CD00CE11CDA1F1C
:10127000599CFD0E001D111D579CE001479CD00C90
:10128000C11DDA1F569CD00CC11DDA1F589CEC0EF4
:101290000D1E1A1EF00C011D1A1F221A330A440AD1
:1012A000550A0008661A770A880A990A1108202444
:1012B0003024402450246124712481249124201856
:1012C000300840085008611871088108910801240D
:1012D00000FA289FE001269FE00CF11C0C1FDA1F8A
:1012E000279FF00C011DDA1F399F1D0FA01DB11D96
:1012F000299FE001369FF00C011D1C1F2227D21FE1
:10130000379F000D111DD21F499FAD0FB01D222721
:10131000211D489FE001469F000D111DAC1F0024B8
:10132000D01D389F100DA11D3327D31F599FBD0F0E
:10133000201D9927911D579FE001479F100DC11D4A
:10134000D31F569F100DC11DD31F589FAC0F0D1EEC
:10135000131EB00D211D931F289CB001269CA001D7
:10136000279C500D611D731F399C802D022C212C50
:10137000099CE001369C500D611D7C1FD31F379CDA
:10138000600D711DD31F499C8D0F201C311D489C81
:10139000E001469C600D711D8C1F0024D01D389CFF
:1013A000700D811D3324D31D599C2D0E301D9924A1
:1013B000911C579CE001479C700DC11DD31D569C8C
:1013C000700DC11DD31D589C8C0F0D1E131C200CBD
:1013D000311D931C25013601AE0CBF1CC01ED11E51
:1013E000EA1EFB1E021F191F002400F80A94301C7D
:1013F000132C159440255025602570258025202428
:1014000030259024000CA41EB51EC61ED71EE81E53
:10141000F21C031F191DA31DB11D211D911D392F84
:10142000408151816281738184819581868097801A
:101430000F900094102C15944024502460247024A4
:10144000A024B024C024D024E024F02400251025BA
:10145000A025B02520253025C02DCC0F441D551DBD
:10146000661D771D8A1D9B1D8C1C9D1CCC27CC1FC7
:1014700020883188420D531D40875187A101228861
:101480003388621D731D62877387B1012488358894
:10149000821D931D84879587C10126883788821C09
:1014A000931C8686978641012224221CC6954E1DD8
:1014B0005F1D601F711F8A1F9B1F821E931E0C1EC3
:1014C0001C1E408C518C628C738CA48CB58CC68C89
:1014D000D78C2694441D551D661D771D8A1D9B1DA6
:1014E0008C1C9D1C021C121C408B518B628B738BBD
:1014F000848B958B868A978A400C511C611C711CC9
:10150000A11CB11CC11CD11C408E518E628E738EE9
:10151000A48EB58EC68ED78E1124DF91CF911F91E8
:101520000F91FF90EF90DF90CF90BF90AF909F9082
:101530008F907F906F905F904F903F902F90089585
:101540002F923F924F925F926F927F928F929F92D3
:10155000AF92BF92CF92DF92EF92FF920F931F93C1
:10156000CF93DF93FC01EB01288039804A805B80B8
:101570006C807D808E809F80AA27BB27239C500192
:101580006D01249CB00CC11C7D01259CC00CD11C9C
:10159000349CC00CD11CEA1E269CD00CE11C359C4E
:1015A000D00CE11CFA1E8D01279CE00CF11C0A1FD7
:1015B000369CE00CF11C0A1F459CE00CF11C0A1F34
:1015C000289CF00C011D1A1F379CF00C011D1A1FDE
:1015D000469CF00C011D1A1F9D01299C000D111D38
:1015E0002A1F389C000D111D2A1F479C000D111D3C
:1015F0002A1F569C000D111D2A1FAA1CBB1CCC1CA7
:10160000DD1CEE1CFF1C001F990B229C0082212C6C
:10161000339CA001449CB001559CA20CA182B41E35
:10162000B282C51EC382D61ED482E71EE582F01C9C
:10163000F682011D07839A0B399C100D211D3A1F5C
:10164000489C100D211D3A1F579C100D211D3A1F5B
:10165000AD01499C200D311D4A1F589C200D311DA4
:101660004A1F679C200D311D4A1F599C300D411D9A
:101670005A1F689C300D411D5A1FBD01699C400DC9
:10168000511D6A1F789C400D511D6A1F799C500D99
:10169000611D7A1F8827899C600D711D8A1F111F8B
:1016A000221F331F441F551F661F771F881F669C0C
:1016B0009195090E1A1E5001779C6001889C70015B
:1016C000999C10011A0D2B1D3C1D4D1D5E1D6F1D9B
:1016D000721D831D288439844A845B846C847D84D4
:1016E0008E849F84239C50016D01249CB00CC11CEE
:1016F0007D01259CC00CD11C349CC00CD11CEA1E61
:10170000269CD00CE11C359CD00CE11CFA1E0A2F43
:10171000279CE00CF11C0A1F369CE00CF11C0A1FF0
:10172000459CE00CF11C0A1F289CF00C011DAB1F0E
:10173000379CF00C011DAB1F469CF00C011DAB1F2C
:10174000299C000DA11DBB0B389C000DA11DB040B4
:10175000479C000DA11DB040569C000DA11DB0403E
:10176000B195AA0CBB1CCC1CDD1CEE1CFF1C001F81
:10177000990BA20EB31EC41ED51EE61EF71E081F2F
:101780009040229C9001339CA001449CB001559C48
:10179000210F208BA31EA18AB41EB28AC51EC38A44
:1017A000D61ED48AE71EE58AF01CF68A011D078B37
:1017B000904011273327399CA00DB11D311F489C43
:1017C000A00DB11D311F579CA00DB11D311F412F20
:1017D000499CB00D311D411F589CB00D311D411F5A
:1017E000679CB00D311D411F512F599C300D411D7B
:1017F000511F689C300D411D511F612F699C400D88
:10180000511D611F789C400D511D611F712F799CE6
:10181000500D611D711F8827899C600D711D811FEE
:10182000AA1FBB1F331F441F551F661F771F881F2A
:10183000669C9195090E111E5001779C6001889C51
:101840007001999CAA0DA08FBB1DB18F3C1D328FDA
:101850004D1D438F5E1D548F6F1D658F701D768FDC
:10186000811D878FA880B980CA80DB80EC80FD80D5
:101870000E811F812A183B084C085D086E087F08FE
:10188000800A910ABB27AA0B2A263A264A265A26FC
:101890006A267A268A269A26A1952A0E3B1E4B1E78
:1018A0005B1E6B1E7B1E8B1E9B1EAA27239C50015A
:1018B0006D01249CB00CC11C7D01259CC00CD11C69
:1018C000349CC00CD11CEA1E269CD00CE11C359C1B
:1018D000D00CE11CFA1E8D01279CE00CF11C0A1FA4
:1018E000369CE00CF11C0A1F459CE00CF11C0A1F01
:1018F000289CF00C011D1A1F379CF00C011D1A1FAB
:10190000469CF00C011D1A1F9D01299C000D111D04
:101910002A1F389C000D111D2A1F479C000D111D08
:101920002A1F569C000D111D2A1FAA1CBB1CCC1C73
:10193000DD1CEE1CFF1C001F990B229CE001339C58
:10194000A001449CB001559CAD0EB41EC51ED61E10
:10195000E71EF01C011D9A0B399C100D211D3A1F2A
:10196000489C100D211D3A1F579C100D211D3A1F38
:10197000AD01499C200D311D4A1F589C200D311D81
:101980004A1F679C200D311D4A1F599C300D411D77
:101990005A1F689C300D411D5A1FBD01699C400DA6
:1019A000511D6A1F789C400D511D6A1F799C500D76
:1019B000611D7A1F8827899C600D711D8A1F111F68
:1019C000221F331F441F551F661F771F881F669CE9
:1019D0009195090E1A1E1001779C2001889C3001F8
:1019E000999C120D231D341D451D561D671D701D2C
:1019F000811D20883188428853886488758886884C
:101A00009788C219A308B408C508D608E708F808DB
:101A100009090008D081DC1BD087D181DA09D18780
:101A2000D281DB09D287D381DC09D387D481DD0958
:101A3000D487D581DE09D587D681DF09D687D781BE
:101A4000D00BD787210A320A430A540A650A760A5C
:101A5000870A980AAA0BA08CB18CC28CD38CE48C18
:101A6000F58C068D178D000C2A1C3B1C4C1C5D1C34
:101A70006E1C7F1C801E911E208A318A428A538AE6
:101A8000648A758A868A978A2227A21FBA2FB595FB
:101A9000AA0EBB1ECB1EDB1EEB1EFB1E0B1F1B1F4D
:101AA000A08EB18EC28ED38EE48EF58E068F178FE8
:101AB0001124DF91CF911F910F91FF90EF90DF9054
:101AC000CF90BF90AF909F908F907F906F905F90DE
:101AD0004F903F902F9008952227DB01FC01CE010B
:101AE000EB011F963C911F9760966F85660F121E43
:101AF000360F121E330F111C36955D917727510D4D
:101B0000721F6991660F721F560F721F51935D917C
:101B10006991660F221F570F7727271F560F271F20
:101B200051935D916991660F771F520F2227721FA3
:101B3000560F721F51935D916991660F221F570FC7
:101B40007727271F560F271F51935D916991660FC5
:101B5000771F520F2227721F560F721F51935D91EC
:101B60006991660F221F570F7727271F560F271FD0
:101B700051935D916991660F771F520F2227721F53
:101B8000560F721F51935D916991660F221F570F77
:101B90007727271F560F271F51935D916991660F75
:101BA000771F520F2227721F560F721F51935D919C
:101BB0006991660F221F570F7727271F560F271F80
:101BC00051935D916991660F771F520F2227721F03
:101BD000560F721F51935D916991660F221F570F27
:101BE0007727271F560F271F51935D916991660F25
:101BF000771F520F2227721F560F721F51935D914C
:101C00006991660F221F570F7727271F560F271F2F
:101C100051935D916991660F771F520F2227721FB2
:101C2000560F721F5193370F3083EC011124089522
:101C30002F923F926F927F928F929F92AF92BF921C
:101C4000CF92DF92EF92FF920F931F93CF93DF9388
:101C5000FC01EA01DB01772788279927662477248E
:101C600088249924AA24BB24CC24DD24EE24FF2438
:101C70000027112722273327588169814D91459FDD
:101C800010014D91459F300C811D4D91459F800D58
:101C9000911D4D91459F900D611C4D91459F600C8C
:101CA000711C4D91459F700C811C4D91459F800C7E
:101CB000911C4D91459F900CA11C4D91459FA00CEE
:101CC000B11C4D91459FB00CC11C4D91459FC00C5E
:101CD000D11C4D91459FD00CE11C4D91459FE00CCE
:101CE000F11C4D91459FF00C011D4D91459F000D3C
:101CF000111D4C91459F100D211D12974D91469F2E
:101D0000000D131E512D4D91469F100D211D331FA7
:101D10004C91469F150F201D311D1F97110F221F3B
:101D2000331F16954D91469F220E301C212D271FE3
:101D30004D91469F330E801D312D371F4D91469F8B
:101D4000820F901D212D271F4D91469F930F601CE0
:101D5000312D371F4D91469F620E701C212D271F7C
:101D60004D91469F730E801C312D371F4D91469F1C
:101D7000820E901C212D271F4D91469F930EA01C73
:101D8000312D371F4D91469FA20EB01C212D271FCC
:101D90004D91469FB30EC01C312D371F4D91469F6C
:101DA000C20ED01C212D271F4D91469FD30EE01C43
:101DB000312D371F4C91469FE20EF01C071F171F55
:101DC000F30E011D171F2082318282839383648268
:101DD000758286829782A086B186C286D386E48683
:101DE000F586068717871124DF91CF911F910F91F8
:101DF000FF90EF90DF90CF90BF90AF909F908F902B
:101E00007F906F903F902F9008959F92AF92BF92D6
:101E1000CF92DF92EF92FF920F931F93DB01FC01B1
:101E2000AA24BB246501750185019501A501B501B1
:101E3000C5019D90A9189D90B9089D90C9089D90D5
:101E4000D9089D90E9089D90F9089D9009099D90F9
:101E500019099D9029099D9039099D9049099D90E6
:101E600059099D9069099D9079099D9089099D90D6
:101E70009909111C110CA1181124B108C108D1082D
:101E8000E108F10801091109210931094109510944
:101E90006109710981099109111C110CA118112402
:101EA000A192B192C192D192E192F19201931193D8
:101EB00021933193419351936193719381939083D3
:101EC0001F910F91FF90EF90DF90CF90BF90AF9058
:101ED0009F9008957F928F929F92AF92BF92CF92E0
:101EE000DF92EF92FF920F931F93DB01FC01CE0173
:101EF000EA017D908990780C8D909990891C9D9035
:101F0000A9909A1CAD90B990AB1CBD90C990BC1C17
:101F1000CD90D990CD1CDD90E990DE1CED90F9902C
:101F2000EF1CFD900991F01E0D911991011F1D915B
:101F30002991121F2D913991231F3D914991341FF1
:101F40004D915991451F5D916991561F6D91799100
:101F5000671F7727771F660F771F6695770E811C9F
:101F6000911CA11CB11CC11CD11CE11CF11C011D48
:101F7000111D211D311D411D511D611D7192819247
:101F80009192A192B192C192D192E192F192019378
:101F9000119321933193419351936083EC01112468
:101FA0001F910F91FF90EF90DF90CF90BF90AF9077
:101FB0009F908F907F9008957F928F929F92AF9283
:101FC000BF92CF92DF92EF92FF920F931F93DB01AC
:101FD000FC01CE01EA017D90899078188D9099904E
:101FE00089089D90A9909A08AD90B990AB08BD90D2
:101FF000C990BC08CD90D990CD08DD90E990DE085D
:10200000ED90F990EF08FD900991F00A0D9119916A
:10201000010B1D912991120B2D913991230B3D91AB
:102020004991340B4D915991450B5D916991560B36
:102030006D917991670B7727771F770F771A810852
:102040009108A108B108C108D108E108F108010907
:102050001109210931094109510961097727771FC0
:10206000770F771A719281929192A192B192C19257
:10207000D192E192F1920193119321933193419383
:1020800051936083EC011F910F91FF90EF90DF90CF
:10209000CF90BF90AF909F908F907F9008956F9258
:1020A0007F928F929F92AF92BF92CF92DF92EF92E8
:1020B000FF920F931F933E01FB01EC01A080B088BB
:1020C000AB0CB180C188BC1CC280D288CD1CD3802F
:1020D000E388DE1CE480F488EF1CF5800589F01E9F
:1020E00006811689011F17812789121F2085308DCF
:1020F000231F3185418D341F4285528D451F5385E5
:10210000638D561F6485748D671F7585858D781F57
:102110008685968D891F9785978C991D8824881CA4
:10212000990F881C9695A80CB11CC11CD11CE11CF0
:10213000F11C011D111D211D311D411D511D611D70
:10214000711D811D911D9088A88AA0809A18A18870
:10215000B98AB180AB08B288CA8AC280BC08C38879
:10216000DB8AD380CD08D488EC8AE480DE08E58859
:10217000FD8AF580EF08F6880E8B0681F00A078944
:102180001F8B1781010B108D288F2085120B218D3D
:10219000398F3185230B328D4A8F4285340B438D25
:1021A0005B8F5385450B548D6C8F6485560B658D05
:1021B0007D8F7585670B768D8E8F8685780B878DE5
:1021C0009F8F9785890B8824881C880C9818A108F4
:1021D000B108C108D108E108F10801091109210974
:1021E0003109410951096109710981098824881C53
:1021F000880C98189882A982BA82CB82DC82ED8200
:10220000FE820F83188729873A874B875C876D8703
:102210007E878F87A0A0B0A8AB0CB1A0C1A8BC1CC2
:10222000C2A0D2A8CD1CD3A0E3A8DE1CE4A0F4A8D1
:10223000EF1CF5A005A9F01E06A116A9011F17A104
:1022400027A9121F20A530AD231F31A541AD341F92
:1022500042A552AD451F53A563AD561F64A574AD8D
:10226000671F75A585AD781F86A596AD891F97A5B3
:1022700097AC991D8824881C990F881C9695A80CEA
:10228000B11CC11CD11CE11CF11C011D111D211D23
:10229000311D411D511D611D711D811D911D9F939A
:1022A0008F937F936F935F934F933F932F931F93DE
:1022B0000F93FF92EF92DF92CF92BF92AF9290A0D6
:1022C000A0A89A18A1A0B1A8AB08B2A0C2A8BC0847
:1022D000C3A0D3A8CD08D4A0E4A8DE08E5A0F5A843
:1022E000EF08F6A006A9F00A07A117A9010B10A58F
:1022F00020AD120B21A531AD230B32A542AD340B1D
:1023000043A553AD450B54A564AD560B65A575ADFE
:10231000670B76A586AD780B87A597AD890B8824CA
:10232000881C880C9818A108B108C108D108E108D8
:10233000F10801091109210931094109510961090E
:10234000710981098824881C880C981898AAA9AA60
:10235000BAAACBAADCAAEDAAFEAA0FAB18AF29AF86
:102360003AAF4BAF5CAF6DAF7EAF8FAF8888980C44
:102370008988A81C8A88B81C8B88C81C8C88D81CA3
:102380008D88E81C8E88F81C8F88081D888C181D85
:10239000898C281D8A8C381D8B8C481D8C8C581D6F
:1023A0008D8C681D8E8C781D8F8C881D8824881CD0
:1023B000880F881C8695980CA11CB11CC11CD11CCF
:1023C000E11CF11C011D111D211D311D411D511D5F
:1023D000611D711D811D88A898AA9888891899A8DF
:1023E000A9AAA9889A08AAA8BAAABA88AB08BBA8B9
:1023F000CBAACB88BC08CCA8DCAADC88CD08DDA899
:10240000EDAAED88DE08EEA8FEAAFE88EF08FFA878
:102410000FAB0F89F00A08AD18AF188D010B19AD7D
:1024200029AF298D120B2AAD3AAF3A8D230B3BAD64
:102430004BAF4B8D340B4CAD5CAF5C8D450B5DAD44
:102440006DAF6D8D560B6EAD7EAF7E8D670B7FAD24
:102450008FAF8F8D780B8827881F880F881A910877
:10246000A108B108C108D108E108F1080109110962
:102470002109310941095109610971098827881F1A
:10248000880F881A88A299A2AAA2BBA2CCA2DDA218
:10249000EEA2FFA208A719A72AA73BA74CA75DA7F2
:1024A0006EA77FA7A880BF90B88AAB0CB980CF90E9
:1024B000C98ABC1CCA80DF90DA8ACD1CDB80EF9011
:1024C000EB8ADE1CEC80FF90FC8AEF1CFD800F91F4
:1024D0000D8BF01E0E811F911E8B011F1F812F91EE
:1024E0002F8B121F28853F91388F231F39854F91DD
:1024F000498F341F4A855F915A8F451F5B856F91C5
:102500006B8F561F6C857F917C8F671F7D858F91A8
:102510008D8F781F8E859F919E8F891F9F859F909D
:102520009F8E991D8824881C990F881C9695A80C4D
:10253000B11CC11CD11CE11CF11C011D111D211D70
:10254000311D411D511D611D711D811D911D988001
:10255000A882A8889A18A980B982B988AB08BA80DD
:10256000CA82CA88BC08CB80DB82DB88CD08DC80CD
:10257000EC82EC88DE08ED80FD82FD88EF08FE80AD
:102580000E830E89F00A0F811F831F89010B1885A6
:102590002887288D120B29853987398D230B3A8599
:1025A0004A874A8D340B4B855B875B8D450B5C8579
:1025B0006C876C8D560B6D857D877D8D670B7E8559
:1025C0008E878E8D780B8F859F879F8D890B8824B2
:1025D000881C880C9818A108B108C108D108E10826
:1025E000F10801091109210931094109510961095C
:1025F000710981098824881C880C9818988AA98AEE
:10260000BA8ACB8ADC8AED8AFE8A0F8B188F298FD3
:102610003A8F4B8F5C8F6D8F7E8F8F8FE3011F9171
:102620000F91FF90EF90DF90CF90BF90AF909F9071
:102630008F907F906F900895DB01FC0133271F96E8
:102640002C911F97220F331F26955D91530F4D91AB
:10265000411D41834D91411D42834D91411D438355
:102660004D91411D44834D91411D45834D91411D27
:1026700046834D91411D47834D91411D40874D91AA
:10268000411D41874D91411D42874D91411D438719
:102690004D91411D44874D91411D45874D91411DEF
:1026A0004687211D220F511D2695278750830895A7
:1026B000A0E0B0E0EEE5F3E10C94DE2EF82FE92F78
:1026C000D62EB72FB901CA019701A801AFEF0E941A
:1026D0002E2F19012A013B014C01CD2DDB2FAF2FED
:1026E000BE2FE0E0F0E089918D9331969F0140E0AC
:1026F00050E060E070E080E090E051016201730121
:1027000084010E94432F79F370F3CDB7DEB7E2E185
:102710000C94FA2EA0E8B0E0E0E9F3E10C94E82E86
:102720006C017B018B01005F1F4FA80166E572E021
:10273000CE0101960E94DC0FA80166E372E0CE0193
:1027400041960E94DC0FA80166E472E0CE018196FA
:102750000E94DC0FA80166E272E0CE01C1960E94E1
:10276000DC0FA70166E672E0CE018F5B9F4F0E94EF
:102770006A0F46E552E0BE016F5B7F4FCE018F5975
:102780009F4F0E946A0F46E452E0BE016F5B7F4F8D
:10279000CB010E946A0FAE014F5F5F4FBE016F5BBE
:1027A0007F4FCB010E94EF00AE014F5D5F4FBE0136
:1027B0006F597F4FCB010E94EF00A70166E572E0E1
:1027C000CE018F5A9F4F0E946A0FAE014F5E5F4F3E
:1027D000BE016F5A7F4FCB010E94EF00AE014F5EEA
:1027E0005F4FBE016F5A7F4FCB010E946A0FA70156
:1027F00066E472E0CE018F589F4F0E946A0FAE01CF
:102800004F5C5F4FBE016F587F4FCB010E94EF00BE
:10281000AE014F5C5F4FBE016F587F4FCB010E94EE
:102820006A0FA801BE016F5B7F4FCB010E94EF00D2
:10283000A801BE016F5A7F4FCB010E94EF00A80193
:10284000BE016F597F4FCB010E94EF00A801BE016E
:102850006F587F4FCB010E94EF00B701605D7F4F43
:10286000CE0101960E940401AE014F5F5F4FBE0191
:102870006F5B7F4FCB010E94DC0FAE014F5F5F4F5C
:10288000BE016F5A7F4FCB010E94DC0FAE014F5F3C
:102890005F4FBE016F597F4FCB010E94DC0FAE012D
:1028A0004F5F5F4FBE016F587F4FCB010E94DC0F1F
:1028B0004CEA53E0BE016F5B7F4FCB010E94180EC4
:1028C000BE016F5B7F4FC6010E94050F4AEA53E0CD
:1028D000BE016F5A7F4FC60140960E94180E48EA0B
:1028E00053E0BE016F597F4FC60180960E94180EBB
:1028F00046EA53E0BE016F587F4FC601C0960E9462
:10290000180EC058DF4FE8E00C94042FA0E9B0E0A7
:10291000ECE8F4E10C94E22E6C017B018A0146E1C3
:1029200052E0BA01CE0101960E946A0FAE014F5FDC
:102930005F4FB701CE0141960E94DC0FAE014F5FA1
:102940005F4FB801CE018F579F4F0E94DC0F46E1C9
:1029500052E0BE016F5E7F4FCE01C1960E946A0FAA
:1029600046E152E0BE016F5C7F4FCB010E94EF0059
:10297000B701605F7F4FAE014F5C5F4FCA010E949D
:10298000DC0F46E152E0BE016F577F4FCE018F5BF7
:102990009F4F0E946A0F46E152E0BE016F5B7F4F7E
:1029A000CB010E94EF00B801605F7F4FAE014F5B2B
:1029B0005F4FCA010E94DC0F470180E2880E911C24
:1029C00046E152E0B401CE018F5A9F4F0E94EF00C2
:1029D000B701605D7F4FAE014F5A5F4FCA010E9441
:1029E000DC0F380180E2680E711C46E152E0B30151
:1029F000CE018F599F4F0E94EF00B801605D7F4F5D
:102A0000AE014F595F4FCA010E94DC0FAE014F5714
:102A10005F4FBE016F5E7F4FC6010E94DC0F7601E3
:102A200080E1E80EF11CAE014F5B5F4FBE016F5CB1
:102A30007F4FC7010E94DC0FA601BE016F577F4F79
:102A4000CE0181960E94EF00A701BE016F5D7F4F0E
:102A5000CB010E94DC0F8601005E1F4FAE014F5973
:102A60005F4FBE016F5A7F4FC8010E94DC0F5601B5
:102A700080E3A80EB11CA801B601C5010E94EF00B9
:102A8000AE014F5D5F4FB801C8010E94EF00A70182
:102A9000BE016F5D7F4FCB010E94EF00AE014F5B27
:102AA0005F4FB601CA010E94EF00A301B401CE013D
:102AB0008F589F4F0E94DC0FAE014F585F4FB701F8
:102AC000C7010E94EF00A701B501C5010E94DC0FFC
:102AD000AE014F5B5F4FBE016F587F4FCB010E942D
:102AE000EF00AE014F585F4FB801C8010E94DC0FE4
:102AF000A601BE016F5B7F4FCB010E94EF00AE01CC
:102B00004F5B5F4FBE016F5D7F4FC7010E94DC0FBF
:102B1000A501B701CE018F589F4F0E94EF00BE0163
:102B20006F587F4FCE018F5B9F4F0E942403A701F8
:102B3000BE016F5B7F4FCE018F589F4F0E94EF0009
:102B4000A701BE016F587F4FCE018F599F4F0E9442
:102B5000EF00A801BE016F587F4FC8010E94EF002F
:102B6000A801B601CE018F589F4F0E946A0FA8019D
:102B7000BE016F587F4FC6010E946A0FA801BE01B7
:102B80006F587F4FC7010E94EF00BE016F597F4F02
:102B9000CE018F589F4F0E940401AE014F585F4FE6
:102BA000B601C6010E94DC0FAE014F575F4FBE0158
:102BB0006F5E7F4FCA010E946A0FAE014F595F4F8F
:102BC000BE016F577F4FCB010E94EF00A401BE01F1
:102BD0006F577F4FCB010E94DC0FA301BE016F57DF
:102BE0007F4FCB010E94DC0FAE014F595F4FBE01FA
:102BF0006F577F4FCB010E94EF00AE014F575F4FE1
:102C0000B701C7010E946A0FB501C5010E94040106
:102C1000AE014F5B5F4FB501C5010E94EF00A601F9
:102C2000BE016F5E7F4FCB010E94DC0FA701BE018A
:102C30006F5C7F4FCB010E94DC0FA801BE016F5C6F
:102C40007F4FCE018F5B9F4F0E94EF00A701BE0117
:102C50006F5E7F4FCE0181960E94EF00AE014F5D07
:102C60005F4FBE016F5B7F4FCB010E94DC0FA6015F
:102C7000BE016F5E7F4FCE0181960E94EF00AE01D4
:102C80004F5D5F4FBE016F5C7F4FCB010E94DC0F39
:102C9000A801BE016F5E7F4FCE0181960E94EF00BA
:102CA000AE014F5D5F4FBE016F5C7F4FCB010E9455
:102CB0006A0FA501BE016F5C7F4FC8010E94EF0043
:102CC000A501BE016F5B7F4FC5010E94EF00A4010B
:102CD000B801C8010E94DC0FAE014F5A5F4FB50129
:102CE000C5010E94DC0FAE014F5F5F4FB601C60108
:102CF0000E946A0F46E152E0B601CE0101960E94A1
:102D0000DC0F46E152E0BE016F5F7F4FCB010E94B6
:102D1000EF00AE014F5F5F4FB701C7010E946A0F1E
:102D200046E152E0B801CE0101960E94EF00AE01EB
:102D30004F5F5F4FB501C5010E946A0FC057DF4F5B
:102D4000EEE00C94FE2EA0E0B0E0E9EAF6E10C948F
:102D5000E42E6C018B01EB01E096AE010E94EF00C6
:102D6000480120E2820E911C580180E1A80EB11C9E
:102D70007601E0E1EE0EF11CA401B501C7010E944D
:102D8000EF00A701B601C6010E94DC0FA401B60145
:102D9000C6010E94EF00BE01C7010E940401A70105
:102DA000B601C6010E94DC0FA601B601C6010E9451
:102DB0006A0FA601B601C6010E946A0FB601C601DC
:102DC0000E941C13F6018081F0E88F9FC00111243E
:102DD000F80197859827F6019787E80120E030E011
:102DE000899181932F5F3F4F2F303105C9F7F8014B
:102DF00080A1F0E88F9FC0011124F801978D9827DA
:102E0000F601978FF501D701015E1F4F81918D93D8
:102E1000E017F107D9F7CDB7DEB7ECE00C94002F3F
:102E2000A0E4B0E0E6E1F7E10C94E42E7C01DC01E3
:102E3000FB0120E030E081918D932F5F3F4F2031E7
:102E40003105C9F7570180E1A80EB11CFB0170964E
:102E5000D501605E7F4F81918D93E617F707D9F713
:102E6000F7010785878D182F111F1127111F902F2C
:102E70009F7797878F77878F4701F0E28F0E911C9E
:102E8000B701C4010E940401A401B501CE018196DD
:102E90000E94DC0FAE014F5D5F4FB501CE01C196C0
:102EA0000E946A0F670180E3C80ED11C46EA52E017
:102EB000BE016F5C7F4FC6010E94EF00A70166E96B
:102EC00072E0CE0101960E94EF0046E852E0BE019A
:102ED0006F5F7F4FCB010E94DC0F46E852E0BE01DE
:102EE0006F5F7F4FCB010E94DC0FAE014F5F5F4FE2
:102EF000B601C6010E946A0FA501B601C6010E9473
:102F0000EF00BE016F5C7F4FCB010E94050FA50152
:102F1000BE016F5C7F4FC4010E94DC0FA501B401AC
:102F2000CE0101960E94EF0046E752E0BE016F5FBE
:102F30007F4FCB010E946A0FA701BE016F5F7F4FD9
:102F4000CB010E94EF00AE014F5F5F4FB601C6019B
:102F50000E946A0FA601B601C6010E946A0FA50170
:102F6000B401C4010E94DC0F46EA52E0B701CE0171
:102F700001960E94DC0FA701BE016F5F7F4FCB015E
:102F80000E94EF00AE014F5F5F4F66E972E0CA0139
:102F90000E946A0FAE014F5F5F4FB501CA010E94E8
:102FA000DC0FA501BE016F5F7F4FCB010E94EF00D8
:102FB00046E752E0BE016F5F7F4FCB010E946A0F70
:102FC000BE016F5F7F4FCB010E940401A401B401D9
:102FD000C4010E946A0FAE014F5F5F4FBA01CA0180
:102FE0000E946A0FAE014F5F5F4FB401CA010E9499
:102FF000EF00B601CE0141960E940401AE014F5F81
:103000005F4FBE016F5E7F4FCA010E94DC0F001F41
:103010000027001F9401AE014F5F5F4FBA01CE0140
:1030200041960E94A602A601BE016F5F7F4FCB01B1
:103030000E94DC0FAE014F5E5F4FBE016F5F7F4F9E
:10304000C6010E94EF0046E952E0BE016F5C7F4F6F
:10305000CE0101960E946A0FA701BE016F5F7F4FEC
:10306000CB010E94EF00BE016F5D7F4FCE01419604
:103070000E94050F46EA52E0BE016F5E7F4FCB0112
:103080000E94EF00AE014F5F5F4FBE016F5E7F4F4A
:10309000CA010E94DC0F46E852E0BE016F5F7F4F1D
:1030A000CB010E946A0FA601BE016F5F7F4FCB016B
:1030B0000E946A0FAE014F5F5F4FBA01CE01419689
:1030C0000E946A0FAE014F5E5F4FBA01CA010E94B3
:1030D0006A0FBE016F5E7F4FCB010E941901AE01E6
:1030E0004F5E5F4FBA01C4010E946A0FAE014F5F8D
:1030F0005F4FB401C4010E94EF00B401C4010E94FB
:103100001C13F70180A18170811751F0BE016F5E21
:103110007F4FCB010E94050FB401C4010E94050F2F
:1031200046E952E0BE016F5D7F4FCB010E94DC0F8C
:10313000A70166EA72E0CE0101960E94EF00AE019F
:103140004F5D5F4FBE016F5F7F4FCB010E946A0FE3
:10315000A501BE016F5F7F4FCB010E94EF00A6016A
:10316000B701C6010E94EF00AE014F5F5F4FB6018D
:10317000C6010E946A0F46E752E0B601C6010E94EE
:103180006A0FAE014F5E5F4FB601C6010E94EF00AD
:10319000B401C4010E941C13B601C6010E941C1395
:1031A000C05CDF4FECE00C94002FA0E4B0E0EBED4E
:1031B000F8E10C94DE2E8C017A011901CE01019602
:1031C0000E944F10B701C8010E944F10AE014F5F1F
:1031D0005F4FB801C8010E94EF00680180E1C80E8E
:1031E000D11CAE014F5E5F4FB601C6010E94EF00D9
:1031F000780180E2E80EF11CAE014F5D5F4FB70130
:10320000C7010E94EF00280180E3480E511CAE0167
:103210004F5C5F4FB201C2010E94EF0044EB53E0EC
:10322000B801C8010E94180E42EB53E0B601C60176
:103230000E94180E40EB53E0B701C7010E94180E20
:103240004EEA53E0B201C2010E94180EB801C80153
:103250000E944F10B801C8010E940401B601C601C6
:103260000E940401B701C7010E940401B201C2011A
:103270000E940401310180E1680E711CA301B801B4
:10328000C8010E94EF00A101B601C6010E94EF0033
:10329000410180E3880E911CA401B701C7010E947F
:1032A000EF00510180E2A80EB11CA501B201C201DC
:1032B0000E94EF00A301B101CE0101960E94EF0030
:1032C000A401B501CE0141960E94EF00AE014F5E10
:1032D0005F4FB801C8010E94EF00AE014F5E5F4F23
:1032E000B601C6010E94EF00AE014F5F5F4FB7010C
:1032F000C7010E94EF00AE014F5F5F4FB201C201F4
:103300000E94EF00C05CDF4FE2E10C94FA2EA0E4D3
:10331000B0E0EDE8F9E10C94E42E7C018B015B0157
:1033200080E2A80EB11C6B0180E1C80ED11CA50182
:10333000B601CE0101960E94EF00480180E3880E9D
:10334000911CA401BE016F5F7F4FCE0141960E9488
:10335000EF00BE016F5E7F4FCE0181960E94240375
:10336000A801BE016F5D7F4FCB010E94EF00A40159
:10337000BE016F5D7F4FCE01C1960E94EF00A50197
:10338000BE016F5C7F4FC7010E94EF00A601BE0126
:103390006F5C7F4FC70140960E94EF00AE014F5D0A
:1033A0005F4FBE016F5F7F4FC70180960E94EF00A5
:1033B000C05CDF4FECE00C94002FA0E0B0E0E3EE47
:1033C000F9E10C94E62EEC018B015B0180E1A80E83
:1033D000B11C6E0180E3C80ED11CA501C6010E947C
:1033E000EF00780180E2E80EF11CA701B801CE01E0
:1033F00080960E94EF00A701B501CE0140960E9481
:10340000EF00A701B601CE010E94EF00CDB7DEB7F5
:10341000EAE00C94022FA0E1B0E0E1E1FAE10C94C3
:10342000E22E8C016B013B0180E1680E711CA3014F
:1034300066E973E0C8010E94EF00A801B601C80167
:103440000E946A0F460180E2880E911C780180E19B
:10345000E80EF11CA40166E873E0C7010E94EF00CA
:10346000A801B701C8010E946A0F560180E3A80EA7
:10347000B11CA50166E773E0C7010E94EF00A80137
:10348000B701C8010E946A0FA60166E673E0C70192
:103490000E94EF00005E1F4FA30166E573E0C801C4
:1034A0000E94EF00A701B801C7010E946A0FA401A2
:1034B00066E473E0C8010E94EF00A701B801C701EC
:1034C0000E946A0FA50166E373E0C8010E94EF0045
:1034D000A701B801C7010E946A0FA60166E273E066
:1034E000C8010E94EF00A30166E173E0CE010196DE
:1034F0000E94EF00A801BE016F5F7F4FC8010E94CC
:103500006A0FA40166E073E0CE0101960E94EF000D
:10351000A801BE016F5F7F4FC8010E946A0FA5011D
:1035200066EF72E0CE0101960E94EF00A801BE0195
:103530006F5F7F4FC8010E946A0F6096EEE00C94A7
:10354000FE2EA0E1B0E0E7EAFAE10C94EA2E8C014D
:103550007B010E940B1A005D1F4FA70166EE72E00F
:10356000C8010E94EF00A701405F5F4F66ED72E067
:10357000CE0101960E94EF00A801BE016F5F7F4F50
:10358000C8010E946A0FA701405E5F4F66EC72E0BF
:10359000CE0101960E94EF00A801BE016F5F7F4F30
:1035A000C8010E946A0FA701405D5F4F66EB72E0A1
:1035B000CE0101960E94EF00A801BE016F5F7F4F10
:1035C000C8010E946A0F6096E6E00C94062FACE9F1
:1035D000B0E0EDEEFAE10C94DE2E2C016B011A0145
:1035E00049013801CF56DF4FF982E882C159D040F6
:1035F0008A01005F1F4FA901B801CE0181960E9488
:10360000EF009401205F3F4FA901B101CE01019667
:10361000C556DF4F2883CB59D040C456DF4F38837F
:10362000CC59D0400E94EF00AE014F5F5F4FBE010A
:103630006F5D7F4FCB010E94DC0FC4018096CD5699
:10364000DF4F99838883C359D040AC01B101CE01CB
:10365000C1960E94EF00710190E2E90EF11CA401F5
:10366000B701CE0101960E94EF00AE014F5F5F4FA0
:10367000BE016F5C7F4FCB010E94DC0FA701BE0132
:103680006F5D7F4FCE018F5B9F4F0E94EF00A801BF
:10369000BE016F5C7F4FCE018F5A9F4F0E94EF009B
:1036A000AE014F5B5F4FBE016F5A7F4FCB010E944F
:1036B0006A0FAE014F5A5F4FBE016F5D7F4FCE0163
:1036C00001960E94EF00BE016F5C7F4FCE018F59C3
:1036D0009F4F0E94040146E852E0BE016F597F4FA0
:1036E000CE018F589F4F0E94EF00A101BE016F597C
:1036F0007F4FCB010E94EF00AE014F5F5F4FBE01D5
:103700006F597F4FCB010E946A0FAE014F5C5F4F34
:10371000BE016F5D7F4FCE018F579F4F0E94EF001C
:10372000A401B101C2010E94EF00AE014F575F4FEB
:1037300066E772E0CE0101960E94EF00AE014F5F96
:103740005F4FBE016F587F4FCB010E94DC0FA2017B
:10375000BE016F587F4FCB010E94EF00B401605D46
:103760007F4FAE014F595F4FCE0101960E94EF008F
:10377000AE014F5F5F4FBE016F587F4FCB010E947C
:103780006A0FA201BE016F587F4FCB010E94EF006C
:10379000A101BE016F5C7F4FCE0141960E94EF00F8
:1037A00046E952E0BE016F5E7F4FCB010E94EF0001
:1037B000AE014F5A5F4F66EA72E0CE0101960E9459
:1037C000EF00AE014F5F5F4FBE016F5E7F4FCB01D9
:1037D0000E946A0FB401CE0101960E940401AE015D
:1037E0004F5F5F4FBE016F5E7F4FCB010E94EF00C6
:1037F000AE014F5A5F4FBE016F5E7F4FCB010E94FB
:10380000EF00AE014F5E5F4FBE016F587F4FCB019F
:103810000E946A0FC556DF4F2881CB59D040C4564D
:10382000DF4F3881CC59D040A901BE016F5A7F4F7C
:10383000CE0141960E94EF00CD56DF4F488159815D
:10384000C359D040BE016F5C7F4FCE0101960E94EC
:10385000EF00A101BE016F5F7F4FCB010E94EF001F
:10386000AE014F5F5F4FBE016F5E7F4FCB010E9485
:10387000DC0FAE014F5A5F4FBE016F5E7F4FCB0131
:103880000E94EF00A401BE016F5E7F4FCB010E943A
:10389000EF00AE014F5E5F4FBE016F587F4FCB010F
:1038A0000E946A0F760180E2E80EF11CA701BE01BA
:1038B0006F5C7F4FCE018F5A9F4F0E94EF0090E3C5
:1038C000C90ED11CA601BE016F5D7F4FCE010196CE
:1038D0000E94EF00AE014F5F5F4FBE016F5A7F4FF6
:1038E000CB010E94DC0FA101BE016F5A7F4FCB01BB
:1038F0000E94EF00A801BE016F5D7F4FCE0141968F
:103900000E94EF00A101BE016F5C7F4FCE010196C6
:103910000E94EF00AE014F5F5F4FBE016F5E7F4FB1
:10392000CB010E946A0F520180E1A80EB11CA701D1
:10393000BE016F5B7F4FC5010E94EF00A601BE0173
:103940006F5E7F4FCE0101960E94EF00AE014F5F88
:103950005F4FB501C5010E946A0F8201005E1F4FD3
:10396000BE016F5D7F4FC8010E940401A401BE012A
:103970006F5E7F4FCE0101960E94EF00AE014F5F58
:103980005F4FB801C8010E94DC0FA401BE016F5B4C
:103990007F4FCB010E94EF00AE014F575F4FBE013A
:1039A0006F5B7F4FCB010E946A0FC3018096CB569D
:1039B000DF4F99838883C559D040CF56DF4F488168
:1039C0005981C159D040BC01CE018F579F4F0E94F1
:1039D000EF00CF56DF4FC880D980C159D04090E268
:1039E000C90ED11CA301B601CE0101960E94EF00C1
:1039F000AE014F5F5F4FBE016F577F4FCB010E94FB
:103A0000DC0FCF56DF4F88819981C159D040409655
:103A1000C956DF4F99838883C759D040A301BC01A1
:103A2000CE0141960E94EF00C3014096C756DF4F7A
:103A300099838883C959D040AC01CF56DF4F688144
:103A40007981C159D040CE0101960E94EF00AE01AC
:103A50004F5F5F4FBE016F5E7F4FCB010E94DC0F57
:103A6000A501BE016F5E7F4FCB010E94EF00AE014A
:103A70004F5A5F4FBE016F577F4FCE0101960E9494
:103A8000EF00720190E3E90EF11CAE014F5E5F4F53
:103A9000BE016F5F7F4FC7010E94DC0FA701B80115
:103AA000C8010E94EF00A701BE016F5B7F4FCB01F1
:103AB0000E94EF00CB56DF4F48815981C559D04055
:103AC000C956DF4F68817981C759D040CE014196F0
:103AD0000E94EF00A601C756DF4F68817981C9595E
:103AE000D040CE0101960E94EF00AE014F5F5F4FC4
:103AF000BE016F5E7F4FCB010E94DC0FAE014F5ABB
:103B00005F4FBE016F5E7F4FCB010E94EF00A501AA
:103B1000BE016F577F4FCE0101960E94EF00AE01AC
:103B20004F5F5F4FBE016F5E7F4FCB010E946A0FF8
:103B3000A201BE016F5E7F4FCE018F579F4F0E9443
:103B4000EF00AE014F575F4FBE016F5D7F4FCE015B
:103B500001960E94EF00AE014F5F5F4FB801CE01AA
:103B600081960E946A0FAE014F575F4FBE016F5C96
:103B70007F4FCE0101960E94EF00AE014F5F5F4F75
:103B8000BE016F5B7F4FCE01C1960E946A0FCF5678
:103B9000DF4F48815981C159D040B301CE018F5BBD
:103BA0009F4F0E94EF00A201BE016F5A7F4FCE01CE
:103BB00041960E94EF00BE016F5E7F4FCB010E94D5
:103BC0000401B101CE0101960E940401AE014F5FD4
:103BD0005F4FBE016F587F4FCB010E94EF00AE01D7
:103BE0004F5E5F4FBE016F587F4FCB010E946A0F3F
:103BF000BE016F587F4FCB010E94050FAE014F5B96
:103C00005F4FBE016F587F4FCB010E94EF00A201B2
:103C1000BE016F587F4FCB010E94EF00AE014F5D98
:103C20005F4FBE016F587F4FCE018F579F4F0E944D
:103C3000EF00AE014F5C5F4FBE016F587F4FCA016E
:103C40000E94EF00A301C956DF4F68817981C759EF
:103C5000D040CE0141960E94EF00CF56DF4F488101
:103C60005981C159D040C756DF4F68817981C95900
:103C7000D040CE0101960E94EF00AE014F5F5F4F32
:103C8000BE016F5E7F4FCB010E946A0FCF56DF4FA0
:103C900048815981C159D040CB56DF4F6881798125
:103CA000C559D040CE0181960E94EF00A301B60114
:103CB000CE0101960E94EF00AE014F5F5F4FBE0143
:103CC0006F5D7F4FCB010E946A0FA501BE016F5E41
:103CD0007F4FCB010E94EF00AE014F5A5F4FBE01F4
:103CE0006F5D7F4FCB010E94EF00AE014F5D5F4FD4
:103CF000BE016F5E7F4FCB010E946A0FAE014F5A2B
:103D00005F4FBE016F5E7F4FCB010E94EF00B50198
:103D1000CE0101960E940401AE014F5B5F4FBE01D0
:103D20006F5F7F4FCB010E94EF00AE014F5F5F4F8F
:103D3000BA01CA010E946A0FAE014F5F5F4FBE0118
:103D40006F5E7F4FCE018F5A9F4F0E946A0FAE0168
:103D50004F5A5F4FBA01CA010E946A0FAE014F5914
:103D60005F4FBE016F5A7F4FCB010E94EF00BE0133
:103D70006F5A7F4FCB010E94050FA201BE016F5AFF
:103D80007F4FCB010E94EF00B201C2010E940401EB
:103D9000A201BE016F5A7F4FCB010E94EF00AE011E
:103DA0004F5B5F4FBE016F5A7F4FCB010E94EF0008
:103DB000A101BE016F5A7F4FCB010E94EF00AE01FF
:103DC0004F5A5F4FC556DF4F2881CB59D040C4565C
:103DD000DF4F3881CC59D040B901C2010E94EF00B9
:103DE000B201C2010E94050FAE014F5A5F4FCD567E
:103DF000DF4F68817981C359D040C5010E94EF002F
:103E0000A401BE016F5A7F4FCB010E94EF00BE019B
:103E10006F5A7F4FCE018F5B9F4F0E942403AE01EC
:103E20004F5B5F4FB201C2010E94EF00AE014F5BDA
:103E30005F4FB501C5010E94EF00AE014F5B5F4FC0
:103E4000BE016F577F4FC8010E94EF00AE014F5B6C
:103E50005F4FBE016F5C7F4FC7010E94EF00B20150
:103E6000C2010E941C13B501C5010E941C13B801B8
:103E7000C8010E941C13B701C7010E941C13C4563D
:103E8000DF4FE2E10C94FA2EA0EEB0E0EAE4FFE1AD
:103E90000C94E22E6C015B013A014901D9017E01CB
:103EA00081E4E80EF11CFE0131968D918193EE15AF
:103EB000FF05D9F7D301F70181E090E08C0F9D1F3A
:103EC00080589F4F2D912193E817F907D9F7B70133
:103ED000C7010E94050FBE016F5F7F4FCB010E949B
:103EE000050F9801AE014F5F5F4FB701C6010E94F9
:103EF000D518B301CE018F549F4F0E940B1AB40105
:103F0000CE0101960E94A11AB601CE018F579F4F94
:103F10000E940B1AB801C7010E940B1A8E010F579D
:103F20001F4F9E012F5F3F4FAE014F545F4FB501B2
:103F3000C6010E94E71AC052DF4FEEE00C94FE2E3D
:103F4000A0ECB0E0E6EAFFE10C94E62E7C015B0118
:103F50006A018901B901CE018F579F4F0E94DD1977
:103F60002AEF30E0A801B501CE0101960E94BA0502
:103F70008E010F5B1F4F9E012F5F3F4FAE014F57CA
:103F80005F4FB601C7010E94441FB701C7010E94DD
:103F90001C13C7014096BC010E941C13C7018096E8
:103FA000BC010E941C13C701C096BC010E941C13D7
:103FB000C054DF4FEAE00C94022FA0E0B1E0E3EE42
:103FC000FFE10C94E02E6C013B015A0149012801EC
:103FD000B901CE018F579F4F0E948A13BE016F57C0
:103FE0007F4FC6010E9487192FE730E0A601B70175
:103FF000CE0101960E94BA058E010F5B1F4F9E01F4
:104000002F5F3F4FAE014F575F4FB401CE018F532B
:104010009F4F0E94441FB501C6010E94DD192AEF7F
:1040200030E0A501B201CE0101960E94BA059E01C1
:104030002F5F3F4FA601B301CE018F579F4F0E94C4
:10404000441FAE014F575F4FBE016F537F4FC601F4
:104050000E948614B601C6010E941C13C601409638
:10406000BC010E941C13C6018096BC010E941C1357
:10407000C601C096BC010E941C13D395E0E10C94CC
:10408000FC2EA0E4B0E0E7E4F0E20C94E82E6C0132
:1040900080E2E82EF12C00E010E020E030E040E08B
:1040A00050E0CE0101960E945813FE01B1969E0188
:1040B0002F5B3F4F1192E217F307E1F7BE016F5FED
:1040C0007F4FC6010E947423C05CDF4FE8E00C9470
:1040D000042FDC01FB0180E02D919191291305C093
:1040E0008F5F8031C9F781E0089580E00895A0E4F2
:1040F000B0E0EDE7F0E20C94E62E5C016B01BA0152
:1041000090E2E92EF12C00E010E020E030E040E009
:1041100050E0C6010E944824B601605E7F4FCE0188
:1041200001960E944120BE016F5F7F4FCB010E942C
:10413000D700BE016F5F7F4FCB010E94412026EB6D
:1041400033E046EE53E0BE016F5F7F4FCB010E942C
:10415000A01FBE016F5F7F4FC5010E94A316C05C08
:10416000DF4FEAE00C94022FAAE4B0E0EAEBF0E2C1
:104170000C94DE2E23969FAF8EAF239729967FAFA8
:104180006EAF299725965FAF4EAF25971601270191
:10419000380149012796BFAEAEAE27972DB73EB77F
:1041A0002B963FAF2EAF2B97C601805C9F4F281BED
:1041B000390B0FB6F8943EBF0FBE2DBF8DB79EB71B
:1041C00001965C0130E2E32EF12C00E010E020E0EB
:1041D00030E040E050E027966EAD7FAD27970E941B
:1041E0005813650190E2C90ED11C7101820193013F
:1041F000A40125966EAD7FAD2597C6010E94581388
:104200009101A201B301C401A0E20E942E2F790105
:104210008A019B01AC01B501CE0101960E944824A0
:10422000BE016F5F7F4F23968EAD9FAD23970E9497
:10423000742326EB33E046EE53E023966EAD7FAD5C
:104240002397C5010E94A01FB50123968EAD9FAD97
:1042500023970E94A31640E2E42EF12C00E010E028
:1042600020E030E040E050E023966EAD7FAD239734
:10427000C5010E94581320E030E040E050E029964C
:104280006EAD7FAD2997C6010E945813710182015E
:104290009301A40125966EAD7FAD2597C501805C85
:1042A0009F4F0E9458139101A201B301C401A0E4E1
:1042B0000E942E2F79018A019B01AC01B501C50135
:1042C0000E944824F501709680E190E011920196D9
:1042D00080349105D9F727962EAD3FAD2797205E04
:1042E0003F4FA501BE016F5F7F4F23968EAD9FADFF
:1042F00023970E94202420E1E22EF12C00E010E020
:1043000020E030E040E050E0B50123968EAD9FAD57
:10431000239780960E9458132B962EAD3FAD2B9776
:104320000FB6F8943EBF0FBE2DBFC65BDF4FE2E174
:104330000C94FA2EA6E4B0E0E0EAF1E20C94DE2E52
:104340005C0125967FAF6EAF2597170128013901D3
:104350004A0186012DB73EB727963FAF2EAF27976C
:10436000C701805C9F4F281B390B0FB6F8943EBFE6
:104370000FBE2DBF8DB79EB701966C01B5010E948F
:1043800010179801205E3F4F23963FAF2EAF239723
:104390007901960146EB53E066EE73E0CE0101969B
:1043A0000E94DD1FBE016F5F7F4FC6010E94A316F2
:1043B00050E2E52EF12C00E010E020E030E040E09B
:1043C00050E0B501C60180960E9458137101820128
:1043D0009301A40125966EAD7FAD2597C601805C43
:1043E0009F4F0E9458139101A201B301C401A0E4A0
:1043F0000E942E2F79018A019B01AC01B601CE01EA
:1044000001960E944824FE0131962396AEADBFADC1
:104410002397CE01419631912D91321312C0E817A6
:10442000F907C9F781E027962EAD3FAD27970FB664
:10443000F8943EBF0FBE2DBFCA5BDF4FE2E10C9484
:10444000FA2E80E0F0CFA0E8B0E0E9E2F2E20C94CE
:10445000EA2E8C017B01BA010E9441202AEF30E054
:10446000A701B801CE0101960E94BA05BE016F5F97
:104470007F4FC8010E948719C058DF4FE6E00C94B7
:10448000062FCF93DF93EB01DA01B90140E05D9194
:10449000FB012191BF0130E0250F311D5881250F0F
:1044A000311D31703883FC012193CF014F5F4032C1
:1044B00071F7DF91CF9108950F931F93CF93DF93FF
:1044C000EB01DA01890140E02D91F80151918F0152
:1044D00030E06881261B3109251B31093170388392
:1044E000FC012193CF014F5F403271F7DF91CF91F3
:1044F0001F910F910895CF93DF93DA01FB01EC0137
:1045000080E091912C9130E0290F311D3C9329934B
:104510008F5F8031B1F7DF91CF910895CF93DF9313
:10452000EA01288121952883FB01DC0190E201C08A
:104530002881819182238D939150D1F7DF91CF9182
:104540000895AF92BF92DF92EF92FF920F931F9365
:10455000CF93DF93CDB7DEB7A0970FB6F894DEBF49
:104560000FBECDBF7A01DC015B0100E010E0F50178
:1045700021915F01F701D1907F0130E0211B3109CA
:104580002D193109132F11702D930F5F003279F718
:10459000FB01B096405E5F4F8096605C7F4F7C0170
:1045A0002191DA010D91AD0130E0211B3109201B71
:1045B0003109132F1170D7012D937D01E617F707ED
:1045C00079F772E0AE014F5D5F4F1195E6E4F4E0DC
:1045D000DE011196219121232D9324E0E636F20786
:1045E000C9F7DC01FE01319610E061912C9130E0B9
:1045F000211B3109261B3109132F11702D93E4174C
:10460000F50799F7715009F7A0960FB6F894DEBF39
:104610000FBECDBFDF91CF911F910F91FF90EF9013
:10462000DF90BF90AF900895A0E2B0E0EAE1F3E23E
:104630000C94E32E7C018B016A010E94490656010D
:1046400080E1A80EB11C480180E1880E911CA501F3
:10465000B401C70180960E944906A501B801CE01A8
:1046600001960E944906570180E1A80EB11C8E01F7
:104670000F5D1F4FD501FE013196712C8C91219158
:1046800030E0280F311D270D311D732E2D93E017BB
:10469000F107A1F7A601B401CE0101960E944906D7
:1046A000D501FE01319680E09C91219130E0290FE7
:1046B000311D280F311D832F2D93E017F107A1F72E
:1046C000730EF701F09680E4E80EF11C2081872D2F
:1046D00090E0820F911D792E8193EE15FF05B1F7C1
:1046E000A096EDE00C94FF2EA0E8B0E0EAE7F3E23C
:1046F0000C94E02E3C01DB01FE0131965F017E014E
:1047000081E4E80EF11C8D918193EE15FF05D9F738
:1047100044E0442E512C8701005E1F4F6701A0E347
:10472000CA0ED11C4701B0E48B0E911C46E454E044
:10473000BE016F5D7F4FC7010E941423D501F701B1
:104740008C91219130E0280F311D250D311D532E04
:104750002D93E017F107A1F7F801DE019196219161
:10476000852D90E0820F911D592E8D93EC15FD053E
:10477000B1F7F601DE01D1962191852D90E0820FEF
:10478000911D592E8D93E815F905B1F74A9471F6EC
:1047900029A1822F8C7190E09595879595958795A5
:1047A0008AA398A1892F869586952295220F220F9C
:1047B000207C822B89A3937098A346E254E0BE012B
:1047C0006F5D7F4FC7010E941423D501F7012C9123
:1047D000819190E0820F911D850D911D592E8D9331
:1047E000E017F107A1F71AA288A182FB992790F997
:1047F000837088A39195E6E2F4E0D7018191892343
:104800008D9384E0E634F807C9F7B3019501205E83
:104810003F4FF50140E05191D7018D917D0190E02E
:10482000850F911D840F911D492FDB018D93BD01D3
:10483000E217F30781F7C058DF4FE0E10C94FC2E3C
:10484000A0E4B0E0E6E2F4E20C94E82E8C017B01F7
:104850006901BA010E947423B801C8010E94D700FF
:10486000A601B801CE0101960E941423AE014F5F4C
:104870005F4FB701CA010E94A122BE016F5F7F4F47
:10488000C8010E947423C05CDF4FE8E00C94042F41
:104890002F923F924F925F926F927F928F929F9250
:1048A000AF92BF92CF92DF92EF92FF920F931F933E
:1048B000CF93DF93EDB7FEB7E05FF0400FB6F8940B
:1048C000FEBFEDBF0FBEB9968F939F93CF01EB0153
:1048D000870142E311921192119211924A95D1F7F8
:1048E000083A110598F145E1FC012991308123270F
:1048F00021932991308123272193299130812327E6
:1049000021932991308123272193299130812327D5
:1049100021932991308123272193299130812327C5
:10492000219329913081232721934150F1F6CF9390
:10493000DF930F931F930E9476251F910F91DF91B4
:10494000CF91085A1040083A110568F6FC01069507
:1049500028F42991308123272193005051F0299187
:1049600030812327219329913081232721930150DE
:10497000B1F72FE1308123272083E7EAE80FF92FF1
:10498000F11D2081205820830E94762540E1EC0112
:10499000FF91EF91299121932991219329912193BD
:1049A000299121934A95B1F7E7EC8E0F911D0FB62F
:1049B000F8949EBF8DBF0FBEDF91CF911F910F91D5
:1049C000FF90EF90DF90CF90BF90AF909F908F902F
:1049D0007F906F905F904F903F902F90812D912D01
:1049E0000895010050030938060958021288071B70
:1049F00090051B18042428043680053F400700A8B2
:104A00000212C0061B20032D78013FB80009980050
:104A10001B68012D600300100612A0022D70070014
:104A2000B0051248042D3004000801000000000009
:104A3000000082800000000000008A80000000006A
:104A4000008000800080000000808B80000000005B
:104A50000000010000800000000081800080000054
:104A6000008009800000000000808A000000000033
:104A700000008800000000000000098000800000A5
:104A800000000A000080000000008B800080000011
:104A900000008B0000000000008089800000000002
:104AA0000080038000000000008002800000000001
:104AB000008080000000000000800A8000000000EC
:104AC00000000A000080000000808180008000005B
:104AD0000080808000000000008001000080000055
:104AE00000000880008000000080FF00FC01B897F3
:104AF00025E0EC012990399049905990699079907E
:104B000089909990A09609902024099030240990CA
:104B10004024099050240990602409907024099041
:104B2000802409909024A096099020240990302494
:104B30000990402409905024099060240990702421
:104B40000990802409909024A0960990202409902F
:104B50003024099040240990502409906024099041
:104B600070240990802409909024A0960990202414
:104B70000990302409904024099050240990602421
:104B800009907024099080240990902421923192F8
:104B9000419251926192719281929192C05AD1093F
:104BA000215009F0A7CF6AE27AE4FC013897DC01D2
:104BB0009097EC0126E12D903D904D905D906D9089
:104BC0007D908D909D90220C331C441C551C661CBE
:104BD000771C881C991C211C0190202401903024F2
:104BE0000190402401905024019060240190702491
:104BF000019080240190902435E0088002240992DD
:104C0000088003240992088004240992088005245E
:104C100009920880062409920880072409920880D6
:104C200008240992088009240992A0963A9529F748
:104C3000C05CD109269510F439F0BDCF2B3011F4AA
:104C4000B897B9CF9897B7CFA09729903990499046
:104C5000599069907990899099906F937F9322EE03
:104C600039E4ACE9B6E268EE76E2F9010590A59088
:104C700045919F01FD01E00DF11D0994EC01C40F68
:104C8000D11DFB01EA0DF11D099428972992399253
:104C900049925992699279928992999215012601C5
:104CA00037014801485009F77F916F91EC01DC0111
:104CB0009897FB0108E0A12CB12C6501E12C15E0CF
:104CC000288038844888588C68A0032C00940420DD
:104CD0000224A0240882042C009405200324B0247C
:104CE0000886052C009406200424C024088A062C7B
:104CF000009402200524D024088E2094232026240A
:104D0000E22428A2A8961A95D9F6C85CD109059084
:104D1000288020242992BF01FD01A024A192B782FE
:104D2000C786D78AE78EDF01FB010A9521F604903A
:104D3000039409F03ACF0895A1CF21C017C00DC048
:104D400003C027C030C039C0220C331C441C551C82
:104D5000661C771C881C991C211C220C331C441CCB
:104D6000551C661C771C881C991C211C220C331CAA
:104D7000441C551C661C771C881C991C211C220C89
:104D8000331C441C551C661C771C881C991C211C58
:104D900075CF20FA979487947794679457944794A3
:104DA0003794279497F820FA979487947794679488
:104DB000579447943794279497F820FA97948794B8
:104DC00077946794579447943794279497F856CFDD
:104DD000A990B990C990D990E990F9900991199149
:104DE00054CFB990C990D990E990F990099119914F
:104DF000A9904BCFC990D990E990F9900991199158
:104E0000A990B99042CFD990E990F9900991199160
:104E1000A990B990C99039CFE990F9900991199169
:104E2000A990B990C990D99030CFF9900991199172
:104E3000A990B990C990D990E99027CF099119917B
:104E4000A990B990C990D990E990F9901ECF199185
:104E5000A990B990C990D990E990F990099115CF8E
:104E60001092C50089E18093C40088E18093C1005D
:104E700008959091580691110BC01092C50099E1C8
:104E80009093C40098E19093C10091E090935806EC
:104E90009091C00095FFFCCF8093C6000895FC015F
:104EA00020812223C9F0319649E138E191E08091D7
:104EB0005806811108C01092C5004093C400309379
:104EC000C100909358068091C00085FFFCCF2093CD
:104ED000C60021912111EBCF0895A4E0B0E0E3E7F3
:104EE000F7E20C94E62E6115710511F18C015C015D
:104EF000A60EB71ECE0101967C0185E3C82E86E082
:104F0000D82EF80181918F011F928F93DF92CF925B
:104F1000FF92EF920E947F30C7010E944F270F90AF
:104F20000F900F900F900F900F900A151B0549F7E7
:104F30002496EAE00C94022FACE1B0E0E2EAF7E25A
:104F40000C94DE2E922E832E742E652E562E472E16
:104F5000382E292E188EA0E00E944C2F09F44DC047
:104F60009E01285E3F4F3C8F2B8F86E190E09A8F09
:104F7000898F9AE0A92EB12CC12CD12CE12CF12CD7
:104F800000E010E0292D382D472D562D652D742D6C
:104F9000832D922D0E947F2E205DEB8DFC8D229320
:104FA000FC8FEB8F298D3A8D215031093A8F298F53
:104FB000292D382D472D562D652D742D832D922D9D
:104FC0000E94812E922E832E742E652E562E472EF1
:104FD000382E292EA0E00E944C2F59F6898D9A8DEB
:104FE0000196E1E0F0E0EC0FFD1F8E0F9F1F0E9485
:104FF0004F276C96E2E10C94FA2E8BE396E00E9428
:105000004F2787E190E0EDCFA0E0B0E0EAE0F8E2E2
:105010000C94E22E4B013A01E9010E944F2785E5ED
:1050200096E00E944F278FEF88169806B1F08DE327
:1050300096E00E944F27A12CB12CC12CD12C7601D7
:10504000940140E050E060E070E080E090E00E9479
:105050009C278FE396E00E944F272197209729F104
:105060004301612C712C8FEF681A780AF4012085B6
:1050700088E0880E911C318542855385648575854D
:1050800086859785A080B180C280D380E480F5803A
:10509000068117810E943A2F0E949C2786E596E0A0
:1050A0000E944F276C167D06F0F28EE496E00E9477
:1050B0004F27CDB7DEB7EEE00C94FE2E8F929F9275
:1050C000AF92BF92CF92DF92EF92FF92CF93DF9396
:1050D0004B01EA010E944F2785E596E00E944F2789
:1050E0008FEF8816980689F08DE396E00E944F278F
:1050F000940140E050E060E070E080E090E00E94C9
:105100009C278FE396E00E944F279E0140E050E0ED
:1051100060E070E080E090E00E949C2782E496E0EE
:105120000E944F27DF91CF91FF90EF90DF90CF90BB
:10513000BF90AF909F908F90089584E00E94392790
:10514000FFCFEC0180E596E00E944F27CE010E9440
:105150004F278EE496E00E944F270E949D288FEFF4
:105160009FEF0E944F331F920F920FB60F921124A0
:105170002F933F934F935F936F937F938F939F935F
:1051800020915A0630915B0640915C0650915D0675
:1051900060915E0670915F06809160069091610655
:1051A0005F5F6F4F7F4F8F4F9F4F20935A06309313
:1051B0005B0640935C0650935D0660935E067093B9
:1051C0005F0680936006909361069F918F917F9117
:1051D0006F915F914F913F912F910F900FBE0F9064
:1051E0001F901895A0E0B0E0E8EFF8E20C94E32EF1
:1051F00080915906811123C010925A0610925B06C5
:1052000010925C0610925D0610925E0610925F0688
:10521000109260061092610681E085BD84E0809363
:10522000810080916F00816080936F0016BC1092A6
:10523000850010928400789481E0809359068090D4
:1052400084009090850086B5E0915A06E82BD091B5
:105250005B06C0915C06B0915D06A0915E06F09180
:105260005F067090600610916106A12CB12CC12CD4
:10527000D12C7601940140E050E060E070E080E0E5
:1052800090E008E00E94152FE22BD32BC42BB52B06
:10529000A62BF72B2E2F3D2F4C2F5B2F6A2F7F2F06
:1052A0008729912BCDB7DEB7EDE00C94FF2EA0E35C
:1052B000B0E0EDE5F9E20C94DE2E80E290E00E9491
:1052C000582F2C01009709F410C580E890E00E9447
:1052D000582F4C01009709F40DC58EE496E00E940A
:1052E0004F278DE994E00E944F278EE496E00E94BC
:1052F0004F2788EA94E00E944F278EE496E00E94B0
:105300004F273E0181E3680E711CFE0131961F019B
:105310000E94F228F1012083318342835383648306
:10532000758386839783F8E02F0E311CA401B401A6
:10533000C4010E9477202614370451F726E030E09C
:10534000AE014F5F5F4F6FEF7FEF8BEB94E00E94FA
:105350000428CE0101961C010E94F228F10120834D
:105360003183428353836483758386839783F8E014
:105370002F0E311C5401CC24C394D12CE12CF12CE0
:1053800000E010E020E030E0A401B401C4010E947C
:10539000B4202614370401F726E030E0AE014F5F59
:1053A0005F4F6FEF7FEF82EC94E00E940428CE0104
:1053B00001961C010E94F228F1012083318342836F
:1053C00053836483758386839783F8E02F0E311CA3
:1053D0006401EE24E394F12C00E010E020E030E0E2
:1053E00040E050E0B401C4010E949A212614370421
:1053F00009F726E030E0AE014F5F5F4F6FEF7FEFC0
:1054000087EC94E00E9404288EE496E00E944F27E7
:105410008EEC94E00E944F278EE496E00E944F2786
:1054200088EA94E00E944F278EE496E00E944F277E
:10543000CE0101961C010E94F228F10120833183E4
:10544000428353836483758386839783F8E02F0EAA
:10545000311CA401B401C4010E9423222614370484
:1054600051F726E030E0AE014F5F5F4F6FEF7FEF07
:105470008BED94E00E9404288EE496E00E944F2772
:1054800087EE94E00E944F278EE496E00E944F271B
:1054900088EA94E00E944F278EE496E00E944F270E
:1054A000CE0101961C010E94F228F1012083318374
:1054B000428353836483758386839783F8E02F0E3A
:1054C000311C9401A401B401C4010E94A01F261440
:1054D000370449F726E030E0AE014F5F5F4F6FEFD2
:1054E0007FEF80EF94E00E940428CE0101961C011A
:1054F0000E94F228F1012083318342835383648325
:10550000758386839783F8E02F0E311C7401840124
:105510009401A401B401C4010E94DD1F26143704C4
:1055200039F726E030E0AE014F5F5F4F6FEF7FEF5E
:1055300084E095E00E940428CE0101961C010E949F
:10554000F228F1012083318342835383648375837E
:1055500086839783F8E02F0E311CA401B401C401A7
:105560000E9486142614370451F726E030E0AE017D
:105570004F5F5F4F6FEF7FEF86E495E00E94042856
:10558000CE0101961C010E94F228F1012083318393
:10559000428353836483758386839783F8E02F0E59
:1055A000311CB401C4010E94A3162614370459F714
:1055B00026E030E0AE014F5F5F4F6FEF7FEF88E195
:1055C00095E00E940428CE0101961C010E94F22859
:1055D000F1012083318342835383648375838683FF
:1055E0009783F8E02F0E311CB401C4010E941017FC
:1055F0002614370459F726E030E0AE014F5F5F4FC5
:105600006FEF7FEF86E195E00E940428CE010196BE
:105610001C010E94F228F1012083318342835383CD
:105620006483758386839783F8E02F0E311CB40161
:10563000C4010E948A132614370459F726E030E08B
:10564000AE014F5F5F4F6FEF7FEF81E295E00E9409
:1056500004288EE496E00E944F2789E295E00E949C
:105660004F278EE496E00E944F2788EA94E00E943C
:105670004F278EE496E00E944F27CE0101961C0131
:105680000E94F228F1012083318342835383648393
:10569000758386839783F8E02F0E311C2AEF30E064
:1056A000A401B401C4010E94BA052614370441F7CD
:1056B00026E030E0AE014F5F5F4F6FEF7FEF80E39A
:1056C00095E00E940428CE0101961C010E94F22858
:1056D000F1012083318342835383648375838683FE
:1056E0009783F8E02F0E311C84019401A401B401CA
:1056F000C4010E94E5042614370441F726E030E097
:10570000AE014F5F5F4F6FEF7FEF82E495E00E9445
:105710000428CE0101961C010E94F228F101208389
:105720003183428353836483758386839783F8E050
:105730002F0E311C9401A401B401C4010E94D5189C
:105740002614370449F726E030E0AE014F5F5F4F83
:105750006FEF7FEF8AE495E00E940428CE01019666
:105760001C010E94F228F10120833183428353837C
:105770006483758386839783F8E02F0E311CB40110
:10578000C4010E9487192614370459F726E030E037
:10579000AE014F5F5F4F6FEF7FEF8FE495E00E94A8
:1057A0000428CE0101961C010E94F228F1012083F9
:1057B0003183428353836483758386839783F8E0C0
:1057C0002F0E311CB401C4010E94DD1926143704C8
:1057D00059F726E030E0AE014F5F5F4F6FEF7FEF8C
:1057E00085E595E00E940428CE0101961C010E94E7
:1057F000F228F101208331834283538364837583CC
:1058000086839783F8E02F0E311CB401C4010E94F7
:105810000B1A2614370459F726E030E0AE014F5F2B
:105820005F4F6FEF7FEF8DE595E00E940428CE017A
:1058300001961C010E94F228F101208331834283EA
:1058400053836483758386839783F8E02F0E311C1E
:10585000B401C4010E94A11A2614370459F726E0A6
:1058600030E0AE014F5F5F4F6FEF7FEF8DE695E069
:105870000E940428CE0101961C010E94F228F10129
:105880002083318342835383648375838683978324
:10589000F8E02F0E311C84019401A401B401C4016D
:1058A0000E94441F2614370441F726E030E0AE0181
:1058B0004F5F5F4F6FEF7FEF8AE795E00E9404280C
:1058C000CE0101961C010E94F228F1012083318350
:1058D000428353836483758386839783F8E02F0E16
:1058E000311C740184019401A401B401C4010E941B
:1058F000E71A2614370439F726E030E0AE014F5F8F
:105900005F4F6FEF7FEF86E895E00E9404288EE4FA
:1059100096E00E944F2785E995E00E944F278EE48C
:1059200096E00E944F2788EA94E00E944F278EE479
:1059300096E00E944F27CE0101961C010E94F2289A
:10594000F10120833183428353836483758386838B
:105950009783F8E02F0E311CA201B201C4010E940E
:1059600049062614370451F726E030E0AE014F5FB8
:105970005F4F6FEF7FEF8DEA95E00E940428CE0124
:1059800001961C010E94F228F10120833183428399
:1059900053836483758386839783F8E02F0E311CCD
:1059A000B201C4010E94A00A2614370459F726E068
:1059B00030E0AE014F5F5F4F6FEF7FEF88EB95E018
:1059C0000E940428CE0101961C010E94F228F101D8
:1059D00020833183428353836483758386839783D3
:1059E000F8E02F0E311CB401C2010E946C0D261488
:1059F000370459F726E030E0AE014F5F5F4F6FEF9D
:105A00007FEF83EC95E00E940428CE0101961C01F3
:105A10000E94F228F10120833183428353836483FF
:105A2000758386839783F8E02F0E311CA201B201A3
:105A3000C2010E946A0F2614370451F726E030E0B5
:105A4000AE014F5F5F4F6FEF7FEF8EEC95E00E94EE
:105A50000428CE0101961C010E94F228F101208346
:105A60003183428353836483758386839783F8E00D
:105A70002F0E311CA201B201C2010E94DC0F2614BC
:105A8000370451F726E030E0AE014F5F5F4F6FEF14
:105A90007FEF86ED95E00E940428CE0101961C015F
:105AA0000E94F228F101208331834283538364836F
:105AB000758386839783F8E02F0E311CB201C201F3
:105AC0000E94050F2614370459F726E030E0AE0196
:105AD0004F5F5F4F6FEF7FEF8EED95E00E940428E0
