:100000000C94B2000C94D3000C94D3000C94D30045
:100010000C94D3000C94D3000C94D3000C94D30014
:100020000C94D3000C94D3000C94D3000C94D30004
:100030000C94D3000C94D3000C94D3000C94D300F4
:100040000C94D3000C94D3000C94D3000C94D300E4
:100050000C94D3000C94D3000C94D3000C94D300D4
:100060000C94D3000C94D3000C94D3000C94D300C4
:100070000C94D3000C94D3000C94D3000C94D300B4
:100080000C94D3000C94D3000C94D3000C94D300A4
:100090000C94D3000C94D3000C94D3000C94D30094
:1000A0000C94D3000C94D3000C94D3000C94D30084
:1000B0000C94D3000C94D3000C94D3000C94D30074
:1000C0000C94D3000C94D3000C94D3000C94D30064
:1000D0000C94D3000C94D3000C94D3000C94D30054
:1000E0000C94D3000C9460260C9447180C94A02711
:1000F0000C94A70D0C94A9090C94A6120C94E3126D
:100100000C9471180C9488170C945C180C94DB00F8
:100110000C94110D0C9490060C947C1A0C9465169A
:100120000C94160A0C9411180C9400260C948D0C47
:100130000C9408280C940C270C945E060C94ED0D7E
:100140000C94B7280C944A120C942F160C94712717
:100150000C94E30C0C948C070C94A2160C94B00134
:100160000C94DB0B11241FBECFEFD1E2DEBFCDBF5D
:1001700000E00CBF15E0A0E0B2E0E2EDF0E600E048
:100180000BBF02C007900D92A435B107D9F726E046
:10019000A4E5B5E001C01D92AC3AB207E1F70E94B8
:1001A000B1280C9467300C940000A0E0B0E0EBEDB7
:1001B000F0E00C94782CEC017B016A011801B90184
:1001C000C7010E948B03B601CE010E948B03AE01D2
:1001D000B701C7010E9441185E0180E1A80EB11C61
:1001E000370180E1680E711CA501B301C3010E94B3
:1001F00041186E0180E2C80ED11C470180E2880ED2
:10020000911CA601B401C4010E9441188E01005D39
:100210001F4F270180E3480E511CA801B201C20103
:100220000E944118BE01CE010E945618B501C501B9
:100230000E945618B601C6010E945618B801C8019E
:100240000E9456184AE752E0B701C7010E943902DE
:1002500048E752E0B301C3010E94390246E752E089
:10026000B401C4010E94390244E752E0B201C20164
:100270000E9439024AE752E0BE01CE010E943902D3
:1002800048E752E0B501C5010E94390246E752E055
:10029000B601C6010E94390244E752E0B801C80124
:1002A0000E943902B701C7010E948B03BE01CE0133
:1002B0000E948B03B701C7010E945618B301C30106
:1002C0000E945618B401C4010E945618B201C2011E
:1002D0000E945618BE01CE010E945618B501C501F4
:1002E0000E945618B601C6010E945618B801C801EE
:1002F0000E945618A101B301C3010E944118A10137
:10030000405F5F4FB401C4010E944118A101405EEB
:100310005F4FB201C2010E94411842E852E0BE01A3
:10032000CE010E94390240E852E0B501C5010E94A9
:1003300039024EE752E0B601C6010E9439024CE78D
:1003400052E0B801C8010E943902CDB7DEB7E2E140
:100350000C94942CA0E0B0E0E0EBF1E00C947C2C49
:100360005C014B013A0169018BE0D5018C9386E178
:1003700050968C93509783E190968C93909783E05E
:10038000D0968C9395012F5F3F4FC5014196F501A3
:10039000B196B5016F5C7F4FA501405D5F4FD901FC
:1003A0001D929D01DC011D92CD011192DB011D9278
:1003B000BD01E417F50799F77501B0E4EB0EF11CE8
:1003C000B301C7010E94DD0CD7FC3AC000E010E089
:1003D000F601F595E795F595E795F595E795E80D1F
:1003E000F91DC081D0E0C6018770992702C0D5955C
:1003F000C7958A95E2F7C170DD270C271D27B70145
:10040000C7010E9426030195F701D50120E09C91C8
:1004100080818927802398279D93908198279193A5
:100420002F5F2034A1F783019701A501B701C50112
:100430000E94D500E1E0CE1AD10810F08E01C8CF9D
:10044000B501C5010E942603C195F701D50120E041
:100450009C91808189278C2398279D939081982750
:1004600091932F5F2034A1F7CDB7DEB7EEE00C9467
:10047000982C2F923F926F927F928F929F92AF9281
:10048000BF92CF92DF92EF92FF920F931F93CF9381
:10049000DF93FC01EA01DB0177278827992766248F
:1004A000772488249924AA24BB24CC24DD24EE2498
:1004B000FF240027112722273327588169814D9176
:1004C000459F10014D91459F300C811D4D91459FD9
:1004D000800D911D4D91459F900D611C4D91459F43
:1004E000600C711C4D91459F700C811C4D91459F76
:1004F000800C911C4D91459F900CA11C4D91459FE6
:10050000A00CB11C4D91459FB00CC11C4D91459F55
:10051000C00CD11C4D91459FD00CE11C4D91459FC5
:10052000E00CF11C4D91459FF00C011D4D91459F34
:10053000000D111D4C91459F100D211D12974D91DD
:10054000469F000D131E512D4D91469F100D211DEC
:10055000331F4C91469F150F201D311D1F97110F02
:10056000221F331F16954D91469F220E301C212DC0
:10057000271F4D91469F330E801D312D371F4D9102
:10058000469F820F901D212D271F4D91469F930F4F
:10059000601C312D371F4D91469F620E701C212D1E
:1005A000271F4D91469F730E801C312D371F4D9193
:1005B000469F820E901C212D271F4D91469F930E22
:1005C000A01C312D371F4D91469FA20EB01C212D2E
:1005D000271F4D91469FB30EC01C312D371F4D91E3
:1005E000469FC20ED01C212D271F4D91469FD30E32
:1005F000E01C312D371F4C91469FE20EF01C071F67
:10060000171FF30E011D171F2082318282839383EF
:100610006482758286829782A086B186C286D386DE
:10062000E486F586068717871124DF91CF911F9105
:100630000F91FF90EF90DF90CF90BF90AF909F9081
:100640008F907F906F903F902F9008959F92AF92E0
:10065000BF92CF92DF92EF92FF920F931F93DB0135
:10066000FC01AA24BB246501750185019501A50142
:10067000B501C5019D90A9189D90B9089D90C90824
:100680009D90D9089D90E9089D90F9089D900909D1
:100690009D9019099D9029099D9039099D904909BE
:1006A0009D9059099D9069099D9079099D908909AE
:1006B0009D909909111C110CA1181124B108C108B1
:1006C000D108E108F108010911092109310941099D
:1006D00051096109710981099109111C110CA118B5
:1006E0001124A192B192C192D192E192F19201931F
:1006F000119321933193419351936193719381931A
:1007000090831F910F91FF90EF90DF90CF90BF905B
:10071000AF909F9008956F927F928F929F92AF9229
:10072000BF92CF92DF92EF92FF920F931F933E0101
:10073000FB01EC01A080B088AB0CB180C188BC1C6F
:10074000C280D288CD1CD380E388DE1CE480F4888C
:10075000EF1CF5800589F01E06811689011F17819F
:100760002789121F2085308D231F3185418D341F2D
:100770004285528D451F5385638D561F6485748D48
:10078000671F7585858D781F8685968D891F97854E
:10079000978C991D8824881C990F881C9695A80C05
:1007A000B11CC11CD11CE11CF11C011D111D211D1E
:1007B000311D411D511D611D711D811D911D9088AF
:1007C000A88AA0809A18A188B98AB180AB08B2889B
:1007D000CA8AC280BC08C388DB8AD380CD08D4888B
:1007E000EC8AE480DE08E588FD8AF580EF08F6886B
:1007F0000E8B0681F00A07891F8B1781010B108D64
:10080000288F2085120B218D398F3185230B328D56
:100810004A8F4285340B438D5B8F5385450B548D36
:100820006C8F6485560B658D7D8F7585670B768D16
:100830008E8F8685780B878D9F8F9785890B88246F
:10084000881C880C9818A108B108C108D108E108D3
:10085000F108010911092109310941095109610909
:10086000710981098824881C880C98189882A982AB
:10087000BA82CB82DC82ED82FE820F8318872987C1
:100880003A874B875C876D877E878F87A0A0B0A84B
:10089000AB0CB1A0C1A8BC1CC2A0D2A8CD1CD3A0D7
:1008A000E3A8DE1CE4A0F4A8EF1CF5A005A9F01E47
:1008B00006A116A9011F17A127A9121F20A530AD57
:1008C000231F31A541AD341F42A552AD451F53A58D
:1008D00063AD561F64A574AD671F75A585AD781F00
:1008E00086A596AD891F97A597AC991D8824881C6D
:1008F000990F881C9695A80CB11CC11CD11CE11C39
:10090000F11C011D111D211D311D411D511D611DB8
:10091000711D811D911D9F938F937F936F935F93A3
:100920004F933F932F931F930F93FF92EF92DF927A
:10093000CF92BF92AF9290A0A0A89A18A1A0B1A800
:10094000AB08B2A0C2A8BC08C3A0D3A8CD08D4A04D
:10095000E4A8DE08E5A0F5A8EF08F6A006A9F00ACD
:1009600007A117A9010B10A520AD120B21A531ADD0
:10097000230B32A542AD340B43A553AD450B54A513
:1009800064AD560B65A575AD670B76A586AD780B86
:1009900087A597AD890B8824881C880C9818A10816
:1009A000B108C108D108E108F108010911092109BC
:1009B0003109410951096109710981098824881C9B
:1009C000880C981898AAA9AABAAACBAADCAAEDAA58
:1009D000FEAA0FAB18AF29AF3AAF4BAF5CAF6DAF0C
:1009E0007EAF8FAF8888980C8988A81C8A88B81C2D
:1009F0008B88C81C8C88D81C8D88E81C8E88F81CB5
:100A00008F88081D888C181D898C281D8A8C381D9C
:100A10008B8C481D8C8C581D8D8C681D8E8C781D80
:100A20008F8C881D8824881C880F881C8695980CBC
:100A3000A11CB11CC11CD11CE11CF11C011D111D0C
:100A4000211D311D411D511D611D711D811D88A874
:100A500098AA9888891899A8A9AAA9889A08AAA8DA
:100A6000BAAABA88AB08BBA8CBAACB88BC08CCA8CA
:100A7000DCAADC88CD08DDA8EDAAED88DE08EEA8AA
:100A8000FEAAFE88EF08FFA80FAB0F89F00A08AD99
:100A900018AF188D010B19AD29AF298D120B2AAD96
:100AA0003AAF3A8D230B3BAD4BAF4B8D340B4CAD76
:100AB0005CAF5C8D450B5DAD6DAF6D8D560B6EAD56
:100AC0007EAF7E8D670B7FAD8FAF8F8D780B8827C4
:100AD000881F880F881A9108A108B108C108D10899
:100AE000E108F108010911092109310941095109F8
:100AF000610971098827881F880F881A88A299A21E
:100B0000AAA2BBA2CCA2DDA2EEA2FFA208A719A7AF
:100B10002AA73BA74CA75DA76EA77FA7A880BF9079
:100B2000B88AAB0CB980CF90C98ABC1CCA80DF9050
:100B3000DA8ACD1CDB80EF90EB8ADE1CEC80FF9024
:100B4000FC8AEF1CFD800F910D8BF01E0E811F9112
:100B50001E8B011F1F812F912F8B121F28853F9104
:100B6000388F231F39854F91498F341F4A855F91F4
:100B70005A8F451F5B856F916B8F561F6C857F91D8
:100B80007C8F671F7D858F918D8F781F8E859F91BC
:100B90009E8F891F9F859F909F8E991D8824881CFA
:100BA000990F881C9695A80CB11CC11CD11CE11C86
:100BB000F11C011D111D211D311D411D511D611D06
:100BC000711D811D911D9880A882A8889A18A980FE
:100BD000B982B988AB08BA80CA82CA88BC08CB80FF
:100BE000DB82DB88CD08DC80EC82EC88DE08ED80DF
:100BF000FD82FD88EF08FE800E830E89F00A0F81CA
:100C00001F831F89010B18852887288D120B2985C2
:100C10003987398D230B3A854A874A8D340B4B85AA
:100C20005B875B8D450B5C856C876C8D560B6D858A
:100C30007D877D8D670B7E858E878E8D780B8F856A
:100C40009F879F8D890B8824881C880C9818A10881
:100C5000B108C108D108E108F10801091109210909
:100C60003109410951096109710981098824881CE8
:100C7000880C9818988AA98ABA8ACB8ADC8AED8A65
:100C8000FE8A0F8B188F298F3A8F4B8F5C8F6D8F59
:100C90007E8F8F8FE3011F910F91FF90EF90DF9078
:100CA000CF90BF90AF909F908F907F906F9008955E
:100CB000A0E0B0E0EEE5F6E00C94782CF82FE92FF8
:100CC000D62EB72FB901CA019701A801AFEF0E9434
:100CD000AF2C19012A013B014C01CD2DDB2FAF2F89
:100CE000BE2FE0E0F0E089918D9331969F0140E0C6
:100CF00050E060E070E080E090E05101620173013B
:100D000084010E94C42C79F370F3CDB7DEB7E2E121
:100D10000C94942CA0E8B0E0E0E9F6E00C94822C6E
:100D20006C017B018B01005F1F4FA80164EC72E036
:100D3000CE0101960E947824A80164EA72E0CE01F7
:100D400041960E947824A80164EB72E0CE0181965E
:100D50000E947824A80164E972E0CE01C1960E9445
:100D60007824A70164ED72E0CE018F5B9F4F0E9453
:100D7000062444EC52E0BE016F5B7F4FCE018F59D9
:100D80009F4F0E94062444EB52E0BE016F5B7F4FF1
:100D9000CB010E940624AE014F5F5F4FBE016F5B27
:100DA0007F4FCB010E944118AE014F5D5F4FBE01E6
:100DB0006F597F4FCB010E944118A70164EC72E08C
:100DC000CE018F5A9F4F0E940624AE014F5E5F4FA7
:100DD000BE016F5A7F4FCB010E944118AE014F5E9A
:100DE0005F4FBE016F5A7F4FCB010E940624A701BF
:100DF00064EB72E0CE018F589F4F0E940624AE0133
:100E00004F5C5F4FBE016F587F4FCB010E9441186E
:100E1000AE014F5C5F4FBE016F587F4FCB010E9408
:100E20000624A801BE016F5B7F4FCB010E944118D1
:100E3000A801BE016F5A7F4FCB010E944118A80143
:100E4000BE016F597F4FCB010E944118A801BE011E
:100E50006F587F4FCB010E944118B701605D7F4FF3
:100E6000CE0101960E945618AE014F5F5F4FBE0142
:100E70006F5B7F4FCB010E947824AE014F5F5F4FC5
:100E8000BE016F5A7F4FCB010E947824AE014F5FA5
:100E90005F4FBE016F597F4FCB010E947824AE0196
:100EA0004F5F5F4FBE016F587F4FCB010E94782488
:100EB0004AE154E0BE016F5B7F4FCB010E943902D3
:100EC000BE016F5B7F4FC6010E94260348E154E0DC
:100ED000BE016F5A7F4FC60140960E94390246E11B
:100EE00054E0BE016F597F4FC60180960E943902BF
:100EF00044E154E0BE016F587F4FC601C0960E9486
:100F00003902C058DF4FE8E00C949E2CA0E9B0E015
:100F1000ECE8F7E00C947C2C6C017B018A0144E83E
:100F200052E0BA01CE0101960E940624AE014F5F45
:100F30005F4FB701CE0141960E947824AE014F5F0A
:100F40005F4FB801CE018F579F4F0E94782444E82D
:100F500052E0BE016F5E7F4FCE01C1960E94062413
:100F600044E852E0BE016F5C7F4FCB010E94411804
:100F7000B701605F7F4FAE014F5C5F4FCA010E94B7
:100F8000782444E852E0BE016F577F4FCE018F5B5B
:100F90009F4F0E94062444E852E0BE016F5B7F4FE2
:100FA000CB010E944118B801605F7F4FAE014F5BDB
:100FB0005F4FCA010E947824470180E2880E911C8D
:100FC00044E852E0B401CE018F5A9F4F0E9441186D
:100FD000B701605D7F4FAE014F5A5F4FCA010E945B
:100FE0007824380180E2680E711C44E852E0B301B5
:100FF000CE018F599F4F0E944118B801605D7F4F0D
:10100000AE014F595F4FCA010E947824AE014F577D
:101010005F4FBE016F5E7F4FC6010E94782476014C
:1010200080E1E80EF11CAE014F5B5F4FBE016F5CCB
:101030007F4FC7010E947824A601BE016F577F4FE2
:10104000CE0181960E944118A701BE016F5D7F4FBE
:10105000CB010E9478248601005E1F4FAE014F59DC
:101060005F4FBE016F5A7F4FC8010E94782456011E
:1010700080E3A80EB11CA801B601C5010E94411869
:10108000AE014F5D5F4FB801C8010E944118A70132
:10109000BE016F5D7F4FCB010E944118AE014F5BD7
:1010A0005F4FB601CA010E944118A301B401CE01ED
:1010B0008F589F4F0E947824AE014F585F4FB70161
:1010C000C7010E944118A701B501C5010E947824FB
:1010D000AE014F5B5F4FBE016F587F4FCB010E9447
:1010E0004118AE014F585F4FB801C8010E947824E3
:1010F000A601BE016F5B7F4FCB010E944118AE017C
:101100004F5B5F4FBE016F5D7F4FC7010E94782428
:10111000A501B701CE018F589F4F0E944118BE0113
:101120006F587F4FCE018F5B9F4F0E94761AA701A9
:10113000BE016F5B7F4FCE018F589F4F0E944118B9
:10114000A701BE016F587F4FCE018F599F4F0E945C
:101150004118A801BE016F587F4FC8010E94411875
:10116000A801B601CE018F589F4F0E940624A80106
:10117000BE016F587F4FC6010E940624A801BE0120
:101180006F587F4FC7010E944118BE016F597F4FB2
:10119000CE018F589F4F0E945618AE014F585F4F97
:1011A000B601C6010E947824AE014F575F4FBE01C1
:1011B0006F5E7F4FCA010E940624AE014F595F4FF8
:1011C000BE016F577F4FCB010E944118A401BE01A1
:1011D0006F577F4FCB010E947824A301BE016F5748
:1011E0007F4FCB010E947824AE014F595F4FBE0163
:1011F0006F577F4FCB010E944118AE014F575F4F91
:10120000B701C7010E940624B501C5010E94561806
:10121000AE014F5B5F4FB501C5010E944118A601A9
:10122000BE016F5E7F4FCB010E947824A701BE01F3
:101230006F5C7F4FCB010E947824A801BE016F5CD8
:101240007F4FCE018F5B9F4F0E944118A701BE01C7
:101250006F5E7F4FCE0181960E944118AE014F5DB7
:101260005F4FBE016F5B7F4FCB010E947824A601C8
:10127000BE016F5E7F4FCE0181960E944118AE0184
:101280004F5D5F4FBE016F5C7F4FCB010E947824A2
:10129000A801BE016F5E7F4FCE0181960E9441186A
:1012A000AE014F5D5F4FBE016F5C7F4FCB010E946F
:1012B0000624A501BE016F5C7F4FC8010E94411842
:1012C000A501BE016F5B7F4FC5010E944118A401BB
:1012D000B801C8010E947824AE014F5A5F4FB50192
:1012E000C5010E947824AE014F5F5F4FB601C60171
:1012F0000E94062444E852E0B601CE0101960E9405
:10130000782444E852E0BE016F5F7F4FCB010E941A
:101310004118AE014F5F5F4FB701C7010E9406241D
:1013200044E852E0B801CE0101960E944118AE0196
:101330004F5F5F4FB501C5010E940624C057DF4FC4
:10134000EEE00C94982CA0E0B0E0E9EAF9E00C940F
:101350007E2C6C018B01EB01E096AE010E944118DE
:10136000480120E2820E911C580180E1A80EB11CB8
:101370007601E0E1EE0EF11CA401B501C7010E9467
:101380004118A701B601C6010E947824A401B60144
:10139000C6010E944118BE01C7010E945618A7014C
:1013A000B601C6010E947824A601B601C6010E94BA
:1013B0000624A601B601C6010E940624B601C60194
:1013C0000E94EB24F6018081F0E88F9FC001112478
:1013D000F80197859827F6019787E80120E030E02B
:1013E000899181932F5F3F4F2F303105C9F7F80165
:1013F00080A1F0E88F9FC0011124F801978D9827F4
:10140000F601978FF501D701015E1F4F81918D93F2
:10141000E017F107D9F7CDB7DEB7ECE00C949A2CC2
:10142000A0E4B0E0E6E1FAE00C947E2C7C01DC0163
:10143000FB0120E030E081918D932F5F3F4F203101
:101440003105C9F7570180E1A80EB11CFB01709668
:10145000D501605E7F4F81918D93E617F707D9F72D
:10146000F7010785878D182F111F1127111F902F46
:101470009F7797878F77878F4701F0E28F0E911CB8
:10148000B701C4010E945618A401B501CE0181968E
:101490000E947824AE014F5D5F4FB501CE01C19629
:1014A0000E940624670180E3C80ED11C44E153E08A
:1014B000BE016F5C7F4FC6010E944118A70164E026
:1014C00073E0CE0101960E94411844EF52E0BE0144
:1014D0006F5F7F4FCB010E94782444EF52E0BE0142
:1014E0006F5F7F4FCB010E947824AE014F5F5F4F4B
:1014F000B601C6010E940624A501B601C6010E94DC
:101500004118BE016F5C7F4FCB010E942603A501ED
:10151000BE016F5C7F4FC4010E947824A501B40115
:10152000CE0101960E94411844EE52E0BE016F5F69
:101530007F4FCB010E940624A701BE016F5F7F4F42
:10154000CB010E944118AE014F5F5F4FB601C6014B
:101550000E940624A601B601C6010E940624A50128
:10156000B401C4010E94782444E153E0B701CE01E4
:1015700001960E947824A701BE016F5F7F4FCB01C7
:101580000E944118AE014F5F5F4F64E073E0CA01F3
:101590000E940624AE014F5F5F4FB501CA010E9451
:1015A0007824A501BE016F5F7F4FCB010E944118D7
:1015B00044EE52E0BE016F5F7F4FCB010E940624D4
:1015C000BE016F5F7F4FCB010E945618A401B4018A
:1015D000C4010E940624AE014F5F5F4FBA01CA01E9
:1015E0000E940624AE014F5F5F4FB401CA010E9402
:1015F0004118B601CE0141960E945618AE014F5FC8
:101600005F4FBE016F5E7F4FCA010E947824001FAA
:101610000027001F9401AE014F5F5F4FBA01CE015A
:1016200041960E94F819A601BE016F5F7F4FCB0162
:101630000E947824AE014F5E5F4FBE016F5F7F4F07
:10164000C6010E94411844E053E0BE016F5C7F4F29
:10165000CE0101960E940624A701BE016F5F7F4F55
:10166000CB010E944118BE016F5D7F4FCE014196B4
:101670000E94260344E153E0BE016F5E7F4FCB0121
:101680000E944118AE014F5F5F4FBE016F5E7F4FFA
:10169000CA010E94782444EF52E0BE016F5F7F4F81
:1016A000CB010E940624A601BE016F5F7F4FCB01D4
:1016B0000E940624AE014F5F5F4FBA01CE014196F2
:1016C0000E940624AE014F5E5F4FBA01CA010E941C
:1016D0000624BE016F5E7F4FCB010E946B18AE01E6
:1016E0004F5E5F4FBA01C4010E940624AE014F5FF6
:1016F0005F4FB401C4010E944118B401C4010E94AB
:10170000EB24F70180A18170811751F0BE016F5E5B
:101710007F4FCB010E942603B401C4010E9426031F
:1017200044E053E0BE016F5D7F4FCB010E947824FF
:10173000A70164E173E0CE0101960E944118AE0159
:101740004F5D5F4FBE016F5F7F4FCB010E9406244C
:10175000A501BE016F5F7F4FCB010E944118A6011A
:10176000B701C6010E944118AE014F5F5F4FB6013D
:10177000C6010E94062444EE52E0B601C6010E9452
:101780000624AE014F5E5F4FB601C6010E944118AC
:10179000B401C4010E94EB24B601C6010E94EB24EF
:1017A000C05CDF4FECE00C949A2CA0E4B0E0EBEDD1
:1017B000FBE00C94782C8C017A011901CE01019682
:1017C0000E948B03B701C8010E948B03AE014F5FDB
:1017D0005F4FB801C8010E944118680180E1C80E3E
:1017E000D11CAE014F5E5F4FB601C6010E94411889
:1017F000780180E2E80EF11CAE014F5D5F4FB7014A
:10180000C7010E944118280180E3480E511CAE0117
:101810004F5C5F4FB201C2010E94411842E254E0A6
:10182000B801C8010E94390240E254E0B601C60185
:101830000E9439024EE154E0B701C7010E9439020B
:101840004CE154E0B201C2010E943902B801C80162
:101850000E948B03B801C8010E945618B601C60148
:101860000E945618B701C7010E945618B201C20162
:101870000E945618310180E1680E711CA301B80165
:10188000C8010E944118A101B601C6010E94411879
:10189000410180E3880E911CA401B701C7010E9499
:1018A0004118510180E2A80EB11CA501B201C2018C
:1018B0000E944118A301B101CE0101960E94411876
:1018C000A401B501CE0141960E944118AE014F5EC0
:1018D0005F4FB801C8010E944118AE014F5E5F4FD3
:1018E000B601C6010E944118AE014F5F5F4FB701BC
:1018F000C7010E944118AE014F5F5F4FB201C201A4
:101900000E944118C05CDF4FE2E10C94942CA0E4EB
:10191000B0E0EDE8FCE00C947E2C7C018B015B01D7
:1019200080E2A80EB11C6B0180E1C80ED11CA5019C
:10193000B601CE0101960E944118480180E3880E4D
:10194000911CA401BE016F5F7F4FCE0141960E94A2
:101950004118BE016F5E7F4FCE0181960E94761ABC
:10196000A801BE016F5D7F4FCB010E944118A40109
:10197000BE016F5D7F4FCE01C1960E944118A50147
:10198000BE016F5C7F4FC7010E944118A601BE01D6
:101990006F5C7F4FC70140960E944118AE014F5DBA
:1019A0005F4FBE016F5F7F4FC70180960E94411855
:1019B000C05CDF4FECE00C949A2CA0E0B0E0E3EECA
:1019C000FCE00C94802CEC018B015B0180E1A80E03
:1019D000B11C6E0180E3C80ED11CA501C6010E9496
:1019E0004118780180E2E80EF11CA701B801CE0190
:1019F00080960E944118A701B501CE0140960E9431
:101A00004118A701B601CE010E944118CDB7DEB73B
:101A1000EAE00C949C2CA0E1B0E0E1E1FDE00C9444
:101A20007C2C8C016B013B0180E1680E711CA301D1
:101A300064E074E0C8010E944118A801B601C80121
:101A40000E940624460180E2880E911C780180E104
:101A5000E80EF11CA40164EF73E0C7010E94411875
:101A6000A801B701C8010E940624560180E3A80E10
:101A7000B11CA50164EE73E0C7010E944118A801E2
:101A8000B701C8010E940624A60164ED73E0C701F6
:101A90000E944118005E1F4FA30164EC73E0C8016F
:101AA0000E944118A701B801C7010E940624A401A1
:101AB00064EB73E0C8010E944118A701B801C70197
:101AC0000E940624A50164EA73E0C8010E9441183F
:101AD000A701B801C7010E940624A60164E973E0CA
:101AE000C8010E944118A30164E873E0CE01019689
:101AF0000E944118A801BE016F5F7F4FC8010E947C
:101B00000624A40164E773E0CE0101960E94411807
:101B1000A801BE016F5F7F4FC8010E940624A50186
:101B200064E673E0CE0101960E944118A801BE014F
:101B30006F5F7F4FC8010E9406246096EEE00C9410
:101B4000982CA0E1B0E0E7EAFDE00C94842C8C0135
:101B50007B010E940B0D005D1F4FA70164E573E040
:101B6000C8010E944118A701405F5F4F64E473E021
:101B7000CE0101960E944118A801BE016F5F7F4F00
:101B8000C8010E940624A701405E5F4F64E373E032
:101B9000CE0101960E944118A801BE016F5F7F4FE0
:101BA000C8010E940624A701405D5F4F64E273E014
:101BB000CE0101960E944118A801BE016F5F7F4FC0
:101BC000C8010E9406246096E6E00C94A02CACE9C3
:101BD000B0E0EDEEFDE00C94782C2C016B011A01C5
:101BE00049013801CF56DF4FF982E882C159D04010
:101BF0008A01005F1F4FA901B801CE0181960E94A2
:101C000041189401205F3F4FA901B101CE01019617
:101C1000C556DF4F2883CB59D040C456DF4F388399
:101C2000CC59D0400E944118AE014F5F5F4FBE01BA
:101C30006F5D7F4FCB010E947824C4018096CD5602
:101C4000DF4F99838883C359D040AC01B101CE01E5
:101C5000C1960E944118710190E2E90EF11CA401A5
:101C6000B701CE0101960E944118AE014F5F5F4F50
:101C7000BE016F5C7F4FCB010E947824A701BE019B
:101C80006F5D7F4FCE018F5B9F4F0E944118A8016F
:101C9000BE016F5C7F4FCE018F5A9F4F0E9441184B
:101CA000AE014F5B5F4FBE016F5A7F4FCB010E9469
:101CB0000624AE014F5A5F4FBE016F5D7F4FCE01CC
:101CC00001960E944118BE016F5C7F4FCE018F5973
:101CD0009F4F0E94561844EF52E0BE016F597F4F4C
:101CE000CE018F589F4F0E944118A101BE016F592C
:101CF0007F4FCB010E944118AE014F5F5F4FBE0185
:101D00006F597F4FCB010E940624AE014F5C5F4F9D
:101D1000BE016F5D7F4FCE018F579F4F0E944118CC
:101D2000A401B101C2010E944118AE014F575F4F9B
:101D300064EE72E0CE0101960E944118AE014F5F41
:101D40005F4FBE016F587F4FCB010E947824A201E4
:101D5000BE016F587F4FCB010E944118B401605DF6
:101D60007F4FAE014F595F4FCE0101960E9441183F
:101D7000AE014F5F5F4FBE016F587F4FCB010E9496
:101D80000624A201BE016F587F4FCB010E9441186B
:101D9000A101BE016F5C7F4FCE0141960E944118A8
:101DA00044E053E0BE016F5E7F4FCB010E944118BB
:101DB000AE014F5A5F4F64E173E0CE0101960E947D
:101DC0004118AE014F5F5F4FBE016F5E7F4FCB0189
:101DD0000E940624B401CE0101960E945618AE015D
:101DE0004F5F5F4FBE016F5E7F4FCB010E94411876
:101DF000AE014F5A5F4FBE016F5E7F4FCB010E9415
:101E00004118AE014F5E5F4FBE016F587F4FCB014F
:101E10000E940624C556DF4F2881CB59D040C456B6
:101E2000DF4F3881CC59D040A901BE016F5A7F4F96
:101E3000CE0141960E944118CD56DF4F488159810D
:101E4000C359D040BE016F5C7F4FCE0101960E9406
:101E50004118A101BE016F5F7F4FCB010E94411865
:101E6000AE014F5F5F4FBE016F5E7F4FCB010E949F
:101E70007824AE014F5A5F4FBE016F5E7F4FCB019A
:101E80000E944118A401BE016F5E7F4FCB010E94EA
:101E90004118AE014F5E5F4FBE016F587F4FCB01BF
:101EA0000E940624760180E2E80EF11CA701BE0123
:101EB0006F5C7F4FCE018F5A9F4F0E94411890E375
:101EC000C90ED11CA601BE016F5D7F4FCE010196E8
:101ED0000E944118AE014F5F5F4FBE016F5A7F4FA6
:101EE000CB010E947824A101BE016F5A7F4FCB0124
:101EF0000E944118A801BE016F5D7F4FCE0141963F
:101F00000E944118A101BE016F5C7F4FCE01019676
:101F10000E944118AE014F5F5F4FBE016F5E7F4F61
:101F2000CB010E940624520180E1A80EB11CA7013A
:101F3000BE016F5B7F4FC5010E944118A601BE0123
:101F40006F5E7F4FCE0101960E944118AE014F5F38
:101F50005F4FB501C5010E9406248201005E1F4F3C
:101F6000BE016F5D7F4FC8010E945618A401BE01DB
:101F70006F5E7F4FCE0101960E944118AE014F5F08
:101F80005F4FB801C8010E947824A401BE016F5BB5
:101F90007F4FCB010E944118AE014F575F4FBE01EA
:101FA0006F5B7F4FCB010E940624C3018096CB5606
:101FB000DF4F99838883C559D040CF56DF4F488182
:101FC0005981C159D040BC01CE018F579F4F0E940B
:101FD0004118CF56DF4FC880D980C159D04090E218
:101FE000C90ED11CA301B601CE0101960E94411871
:101FF000AE014F5F5F4FBE016F577F4FCB010E9415
:102000007824CF56DF4F88819981C159D0404096BE
:10201000C956DF4F99838883C759D040A301BC01BB
:10202000CE0141960E944118C3014096C756DF4F2A
:1020300099838883C959D040AC01CF56DF4F68815E
:102040007981C159D040CE0101960E944118AE015C
:102050004F5F5F4FBE016F5E7F4FCB010E947824C0
:10206000A501BE016F5E7F4FCB010E944118AE01FA
:102070004F5A5F4FBE016F577F4FCE0101960E94AE
:102080004118720190E3E90EF11CAE014F5E5F4F03
:10209000BE016F5F7F4FC7010E947824A701B8017E
:1020A000C8010E944118A701BE016F5B7F4FCB01A1
:1020B0000E944118CB56DF4F48815981C559D04005
:1020C000C956DF4F68817981C759D040CE0141960A
:1020D0000E944118A601C756DF4F68817981C9590E
:1020E000D040CE0101960E944118AE014F5F5F4F74
:1020F000BE016F5E7F4FCB010E947824AE014F5A24
:102100005F4FBE016F5E7F4FCB010E944118A5015A
:10211000BE016F577F4FCE0101960E944118AE015C
:102120004F5F5F4FBE016F5E7F4FCB010E94062461
:10213000A201BE016F5E7F4FCE018F579F4F0E945D
:102140004118AE014F575F4FBE016F5D7F4FCE010B
:1021500001960E944118AE014F5F5F4FB801CE015A
:1021600081960E940624AE014F575F4FBE016F5CFF
:102170007F4FCE0101960E944118AE014F5F5F4F25
:10218000BE016F5B7F4FCE01C1960E940624CF56E1
:10219000DF4F48815981C159D040B301CE018F5BD7
:1021A0009F4F0E944118A201BE016F5A7F4FCE017E
:1021B00041960E944118BE016F5E7F4FCB010E9485
:1021C0005618B101CE0101960E945618AE014F5F1C
:1021D0005F4FBE016F587F4FCB010E944118AE0187
:1021E0004F5E5F4FBE016F587F4FCB010E940624A8
:1021F000BE016F587F4FCB010E942603AE014F5B9B
:102200005F4FBE016F587F4FCB010E944118A20162
:10221000BE016F587F4FCB010E944118AE014F5D48
:102220005F4FBE016F587F4FCE018F579F4F0E9467
:102230004118AE014F5C5F4FBE016F587F4FCA011E
:102240000E944118A301C956DF4F68817981C7599F
:10225000D040CE0141960E944118CF56DF4F4881B1
:102260005981C159D040C756DF4F68817981C9591A
:10227000D040CE0101960E944118AE014F5F5F4FE2
:10228000BE016F5E7F4FCB010E940624CF56DF4F09
:1022900048815981C159D040CB56DF4F688179813F
:1022A000C559D040CE0181960E944118A301B601C4
:1022B000CE0101960E944118AE014F5F5F4FBE01F3
:1022C0006F5D7F4FCB010E940624A501BE016F5EAA
:1022D0007F4FCB010E944118AE014F5A5F4FBE01A4
:1022E0006F5D7F4FCB010E944118AE014F5D5F4F84
:1022F000BE016F5E7F4FCB010E940624AE014F5A94
:102300005F4FBE016F5E7F4FCB010E944118B50148
:10231000CE0101960E945618AE014F5B5F4FBE0181
:102320006F5F7F4FCB010E944118AE014F5F5F4F3F
:10233000BA01CA010E940624AE014F5F5F4FBE0181
:102340006F5E7F4FCE018F5A9F4F0E940624AE01D1
:102350004F5A5F4FBA01CA010E940624AE014F597D
:102360005F4FBE016F5A7F4FCB010E944118BE01E3
:102370006F5A7F4FCB010E942603A201BE016F5A04
:102380007F4FCB010E944118B201C2010E94561832
:10239000A201BE016F5A7F4FCB010E944118AE01CE
:1023A0004F5B5F4FBE016F5A7F4FCB010E944118B8
:1023B000A101BE016F5A7F4FCB010E944118AE01AF
:1023C0004F5A5F4FC556DF4F2881CB59D040C45676
:1023D000DF4F3881CC59D040B901C2010E94411869
:1023E000B201C2010E942603AE014F5A5F4FCD5683
:1023F000DF4F68817981C359D040C5010E944118DF
:10240000A401BE016F5A7F4FCB010E944118BE014B
:102410006F5A7F4FCE018F5B9F4F0E94761AAE019D
:102420004F5B5F4FB201C2010E944118AE014F5B8A
:102430005F4FB501C5010E944118AE014F5B5F4F70
:10244000BE016F577F4FC8010E944118AE014F5B1C
:102450005F4FBE016F5C7F4FC7010E944118B20100
:10246000C2010E94EB24B501C5010E94EB24B80112
:10247000C8010E94EB24B701C7010E94EB24C45697
:10248000DF4FE2E10C94942CA0EEB0E0EAE4F2E13C
:102490000C947C2C6C015B013A014901D9017E014D
:1024A00081E4E80EF11CFE0131968D918193EE15C9
:1024B000FF05D9F7D301F70181E090E08C0F9D1F54
:1024C00080589F4F2D912193E817F907D9F7B7014D
:1024D000C7010E942603BE016F5F7F4FCB010E94A0
:1024E00026039801AE014F5F5F4FB701C6010E94FE
:1024F000D50BB301CE018F549F4F0E940B0DB40139
:10250000CE0101960E94A10DB601CE018F579F4FBB
:102510000E940B0DB801C7010E940B0D8E010F57D1
:102520001F4F9E012F5F3F4FAE014F545F4FB501CC
:10253000C6010E94E70DC052DF4FEEE00C94982CCC
:10254000A0ECB0E0E6EAF2E10C94802C7C015B01A7
:102550006A018901B901CE018F579F4F0E94DD0C9E
:102560002AEF30E0A801B501CE0101960E94AA0130
:102570008E010F5B1F4F9E012F5F3F4FAE014F57E4
:102580005F4FB601C7010E944412B701C7010E9404
:10259000EB24C7014096BC010E94EB24C701809642
:1025A000BC010E94EB24C701C096BC010E94EB2431
:1025B000C054DF4FEAE00C949C2CA0E0B1E0E3EEC5
:1025C000F2E10C947A2C6C013B015A01490128017B
:1025D000B901CE018F579F4F0E948A06BE016F57E7
:1025E0007F4FC6010E94870C2FE730E0A601B7019C
:1025F000CE0101960E94AA018E010F5B1F4F9E0122
:102600002F5F3F4FAE014F575F4FB401CE018F5345
:102610009F4F0E944412B501C6010E94DD0C2AEFB3
:1026200030E0A501B201CE0101960E94AA019E01EF
:102630002F5F3F4FA601B301CE018F579F4F0E94DE
:102640004412AE014F575F4FBE016F537F4FC6011B
:102650000E948607B601C6010E94EB24C60140967F
:10266000BC010E94EB24C6018096BC010E94EB24B1
:10267000C601C096BC010E94EB24D395E0E10C9406
:10268000962C2F923F924F925F926F927F928F92F1
:102690009F92AF92BF92CF92DF92EF92FF920F93F1
:1026A0001F93CF93DF93EDB7FEB7E05FF0400FB617
:1026B000F894FEBFEDBF0FBEB9968F939F93CF01E5
:1026C000EB01870142E311921192119211924A9506
:1026D000D1F7083A110598F145E1FC0129913081C3
:1026E0002327219329913081232721932991308118
:1026F0002327219329913081232721932991308108
:1027000023272193299130812327219329913081F7
:102710002327219329913081232721934150F1F6DA
:10272000CF93DF930F931F930E946F141F910F910C
:10273000DF91CF91085A1040083A110568F6FC0164
:10274000069528F42991308123272193005051F0D8
:1027500029913081232721932991308123272193A7
:102760000150B1F72FE1308123272083E7EAE80FFA
:10277000F92FF11D2081205820830E946F1440E121
:10278000EC01FF91EF9129912193299121932991B6
:102790002193299121934A95B1F7E7EC8E0F911D72
:1027A0000FB6F8949EBF8DBF0FBEDF91CF911F91E2
:1027B0000F91FF90EF90DF90CF90BF90AF909F90E0
:1027C0008F907F906F905F904F903F902F90812DD2
:1027D000912D089501005003093806095802128806
:1027E000071B90051B18042428043680053F40076A
:1027F00000A80212C0061B20032D78013FB8000973
:1028000098001B68012D600300100612A0022D70B5
:102810000700B0051248042D300400080100000034
:102820000000000082800000000000008A8000009C
:102830000000008000800080000000808B8000008D
:102840000000000001000080000000008180008086
:102850000000008009800000000000808A00000065
:1028600000000000880000000000000009800080D7
:10287000000000000A000080000000008B80008043
:10288000000000008B000000000000808980000034
:102890000000008003800000000000800280000033
:1028A0000000008080000000000000800A8000001E
:1028B000000000000A00008000000080818000808D
:1028C0000000008080800000000000800100008087
:1028D000000000000880008000000080FF00FC0174
:1028E000B89725E0EC01299039904990599069906A
:1028F000799089909990A09609902024099030248D
:102900000990402409905024099060240990702473
:102910000990802409909024A09609902024099081
:102920003024099040240990502409906024099093
:1029300070240990802409909024A0960990202466
:102940000990302409904024099050240990602473
:10295000099070240990802409909024A0960990F1
:102960002024099030240990402409905024099093
:102970006024099070240990802409909024219269
:102980003192419251926192719281929192C05A88
:10299000D109215009F0A7CF6CE178E2FC0138970A
:1029A000DC019097EC0126E12D903D904D905D90DB
:1029B0006D907D908D909D90220C331C441C551C75
:1029C000661C771C881C991C211C019020240190F6
:1029D0003024019040240190502401906024019003
:1029E0007024019080240190902435E00880022416
:1029F000099208800324099208800424099208801F
:102A00000524099208800624099208800724099267
:102A1000088008240992088009240992A0963A9512
:102A200029F7C05CD109269510F439F0BDCF2B30C1
:102A300011F4B897B9CF9897B7CFA097299039904C
:102A40004990599069907990899099906F937F936C
:102A500024ED37E2A5E9B5E161EE75E1F9010590F4
:102A6000A59045919F01FD01E00DF11D0994EC0138
:102A7000C40FD11DFB01EA0DF11D0994289729927D
:102A80003992499259926992799289929992150153
:102A9000260137014801485009F77F916F91EC01F9
:102AA000DC019897FB0108E0A12CB12C6501E12C19
:102AB00015E0288038844888588C68A0032C00943E
:102AC00004200224A0240882042C0094052003245E
:102AD000B0240886052C009406200424C024088A0B
:102AE000062C009402200524D024088E2094232054
:102AF0002624E22428A2A8961A95D9F6C85CD10902
:102B00000590288020242992BF01FD01A024A192D4
:102B1000B782C786D78AE78EDF01FB010A9521F6C7
:102B20000490039409F03ACF0895A1CF21C017C0B3
:102B30000DC003C027C030C039C0220C331C441C58
:102B4000551C661C771C881C991C211C220C331CEC
:102B5000441C551C661C771C881C991C211C220CCB
:102B6000331C441C551C661C771C881C991C211C9A
:102B7000220C331C441C551C661C771C881C991C99
:102B8000211C75CF20FA9794879477946794579473
:102B900047943794279497F820FA979487947794DA
:102BA0006794579447943794279497F820FA97940A
:102BB000879477946794579447943794279497F819
:102BC00056CFA990B990C990D990E990F990099100
:102BD000199154CFB990C990D990E990F990099181
:102BE0001991A9904BCFC990D990E990F99009918A
:102BF0001991A990B99042CFD990E990F990099193
:102C00001991A990B990C99039CFE990F99009919B
:102C10001991A990B990C990D99030CFF9900991A4
:102C20001991A990B990C990D990E99027CF0991AD
:102C30001991A990B990C990D990E990F9901ECFB7
:102C40001991A990B990C990D990E990F9900991FA
:102C500015CFA0E4B0E0EFE2F6E10C94822C6C0119
:102C600080E2E82EF12C00E010E020E030E040E0CF
:102C700050E0CE0101960E945806FE01B1969E01D9
:102C80002F5B3F4F1192E217F307E1F7BE016F5F31
:102C90007F4FC6010E945A26C05CDF4FE8E00C94CB
:102CA0009E2CDC01FB0180E02D919191291305C040
:102CB0008F5F8031C9F781E0089580E00895A0E436
:102CC000B0E0E5E6F6E10C94802C5C016B01BA0102
:102CD00090E2E92EF12C00E010E020E030E040E04E
:102CE00050E0C6010E944113B601605E7F4FCE01E5
:102CF00001960E942916BE016F5F7F4FCB010E9493
:102D00002918BE016F5F7F4FCB010E94291624E274
:102D100034E044E554E0BE016F5F7F4FCB010E9479
:102D2000A012BE016F5F7F4FC5010E94A309C05C66
:102D3000DF4FEAE00C949C2CAAE4B0E0E2EAF6E172
:102D40000C94782C23969FAF8EAF239729967FAF54
:102D50006EAF299725965FAF4EAF259716012701D5
:102D6000380149012796BFAEAEAE27972DB73EB7C3
:102D70002B963FAF2EAF2B97C601805C9F4F281B31
:102D8000390B0FB6F8943EBF0FBE2DBF8DB79EB75F
:102D900001965C0130E2E32EF12C00E010E020E02F
:102DA00030E040E050E027966EAD7FAD27970E945F
:102DB0005806650190E2C90ED11C71018201930190
:102DC000A40125966EAD7FAD2597C6010E945806D9
:102DD0009101A201B301C401A0E20E94AF2C7901CC
:102DE0008A019B01AC01B501CE0101960E944113FD
:102DF000BE016F5F7F4F23968EAD9FAD23970E94DC
:102E00005A2624E234E044E554E023966EAD7FADCB
:102E10002397C5010E94A012B50123968EAD9FADE8
:102E200023970E94A30940E2E42EF12C00E010E079
:102E300020E030E040E050E023966EAD7FAD239778
:102E4000C5010E94580620E030E040E050E029969D
:102E50006EAD7FAD2997C6010E94580671018201AF
:102E60009301A40125966EAD7FAD2597C501805CC9
:102E70009F4F0E9458069101A201B301C401A0E432
:102E80000E94AF2C79018A019B01AC01B501C501FB
:102E90000E944113F501709680E190E01192019635
:102EA00080349105D9F727962EAD3FAD2797205E48
:102EB0003F4FA501BE016F5F7F4F23968EAD9FAD43
:102EC00023970E94062720E1E22EF12C00E010E07B
:102ED00020E030E040E050E0B50123968EAD9FAD9C
:102EE000239780960E9458062B962EAD3FAD2B97C8
:102EF0000FB6F8943EBF0FBE2DBFC65BDF4FE2E1B9
:102F00000C94942CA6E4B0E0E8E8F7E10C94782C5B
:102F10005C0125967FAF6EAF259717012801390117
:102F20004A0186012DB73EB727963FAF2EAF2797B0
:102F3000C701805C9F4F281B390B0FB6F8943EBF2A
:102F40000FBE2DBF8DB79EB701966C01B5010E94D3
:102F5000100A9801205E3F4F23963FAF2EAF239774
:102F60007901960144E254E064E574E0CE010196F3
:102F70000E94DD12BE016F5F7F4FC6010E94A30950
:102F800050E2E52EF12C00E010E020E030E040E0DF
:102F900050E0B501C60180960E9458067101820179
:102FA0009301A40125966EAD7FAD2597C601805C87
:102FB0009F4F0E9458069101A201B301C401A0E4F1
:102FC0000E94AF2C79018A019B01AC01B601CE01B0
:102FD00001960E944113FE0131962396AEADBFAD1E
:102FE0002397CE01419631912D91321312C0E817EB
:102FF000F907C9F781E027962EAD3FAD27970FB6A9
:10300000F8943EBF0FBE2DBFCA5BDF4FE2E10C94C8
:10301000942C80E0F0CFA0E8B0E0E1E1F8E10C947E
:10302000842C8C017B01BA010E9429162AEF30E022
:10303000A701B801CE0101960E94AA01BE016F5FEF
:103040007F4FC8010E94870CC058DF4FE6E00C9408
:10305000A02CDC019096FB017F9640E030813295F8
:10306000307F3E93229122952F70232B2C934F5F1C
:103070004F31A1F7FB0120812295207FFC012083A5
:103080000895A0E2B0E0E7E4F8E10C94862C8C010E
:10309000CE0101960E94371CBE016F5F7F4FC801B1
:1030A0000E945A23A096E4E00C94A22CA0E2B0E087
:1030B000ECE5F8E10C94862C8C01CE0101960E947F
:1030C0008E20BE016F5F7F4FC8010E945A23A096D9
:1030D000E4E00C94A22CA0E5B0E0E1E7F8E10C9468
:1030E000842C8C017B01CE0101960E948E20BE01B2
:1030F0006F5F7F4FCE018F5B9F4F0E945A23A701C6
:10310000BE016F5B7F4FCE0101960E94371CBE014E
:103110006F5F7F4FCE01C1960E945A23BE016F5C44
:103120007F4FCE0101960E948E20BE016F5F7F4FC0
:10313000CE0181960E945A23BE016F5D7F4FCE0162
:1031400001960E948E20BE016F5F7F4FCE01819657
:103150000E945A23AE014F5C5F4FBE016F5D7F4FEF
:10316000CE0101960E94371CBE016F5F7F4FCE01DA
:10317000C1960E945A23BE016F5C7F4FCE0101961B
:103180000E948E20BE016F5F7F4FCE0181960E940C
:103190005A23A701BE016F5D7F4FCE0101960E94A9
:1031A000371CBE016F5F7F4FCE0181960E945A236C
:1031B000BE016F5D7F4FCE0101960E948E20BE0141
:1031C0006F5F7F4FC8010E945A2354E0F52EB8016B
:1031D000CE0101960E948E20BE016F5F7F4FC80115
:1031E0000E945A23FA9499F7AE014F5D5F4FB801E0
:1031F000CE0101960E94371CBE016F5F7F4FCE014A
:1032000081960E945A23BE016F5D7F4FCE010196C9
:103210000E948E20BE016F5F7F4FC8010E945A231B
:1032200049E0F42EB801CE0101960E948E20BE0125
:103230006F5F7F4FC8010E945A23FA9499F7AE013D
:103240004F5D5F4FB801CE0101960E94371CBE0151
:103250006F5F7F4FCE0181960E945A23BE016F5D42
:103260007F4FCE0101960E948E20BE016F5F7F4F7F
:10327000C8010E945A2333E1F32EB801CE01019612
:103280000E948E20BE016F5F7F4FC8010E945A23AB
:10329000FA9499F7AE014F5D5F4FB801CE010196E8
:1032A0000E94371CBE016F5F7F4FCE0181960E9446
:1032B0005A23BE016F5D7F4FCE0101960E948E2082
:1032C000BE016F5F7F4FC8010E945A2327E2F22E92
:1032D000B801CE0101960E948E20BE016F5F7F4F24
:1032E000C8010E945A23FA9499F7AE014F5D5F4FCF
:1032F000B801CE0101960E94371CBE016F5F7F4F5F
:10330000C8010E945A2398E2F92EB801CE01019615
:103310000E948E20BE016F5F7F4FC8010E945A231A
:10332000FA9499F7AE014F5D5F4FB801CE01019657
:103330000E94371CBE016F5F7F4FC8010E945A2355
:1033400084E0F82EB801CE0101960E948E20BE01C5
:103350006F5F7F4FC8010E945A23FA9499F7AE011C
:103360004F5C5F4FB801CE0101960E94371CBE0131
:103370006F5F7F4FC8010E945A23B801CE010196AA
:103380000E948E20BE016F5F7F4FC8010E945A23AA
:10339000AE014F5B5F4FB801CE0101960E94371C12
:1033A000BE016F5F7F4FCE0181960E945A23BE01FE
:1033B0006F5D7F4FCE0101960E948E20BE016F5F30
:1033C0007F4FCE0181960E945A23AE014F5D5F4F21
:1033D000B801CE0101960E94371CBE016F5F7F4F7E
:1033E000C8010E945A23C05BDF4FE6E00C94A02C7A
:1033F0008F929F92AF92BF92CF92DF92EF92FF9205
:103400000F93CF93DF93CDB7DEB7E0970FB6F89465
:10341000DEBF0FBECDBF6C017B015A014901B9016E
:10342000CE0101960E948E20BE016F5F7F4FCE01BC
:1034300081960E945A23A501BE016F5D7F4FCE0188
:1034400001960E94371CBE016F5F7F4FCE018196AF
:103450000E945A23BE016F5D7F4FC6010E946B1808
:10346000A501B601CE0101960E94371CBE016F5F17
:103470007F4FCE0181960E945A23A401BE016F5D49
:103480007F4FCE0101960E94371CBE016F5F7F4FB8
:10349000C7010E945A23B701C7010E94EB24A7016C
:1034A000B601CE0101960E94371CBE016F5F7F4FAF
:1034B000C6010E945A23F7018081802780FF04C043
:1034C000B701C7010E942603E0960FB6F894DEBF4D
:1034D0000FBECDBFDF91CF910F91FF90EF90DF90A6
:1034E000CF90BF90AF909F908F900895A0E5B0E0EF
:1034F000ECE7FAE10C94832C8C017B01CE01019660
:103500000E948E20BE016F5F7F4FCE018F5B9F4F69
:103510000E945A23A701BE016F5B7F4FCE01019627
:103520000E94371CBE016F5F7F4FCE018F5B9F4FA4
:103530000E945A23BE016F5B7F4FCE0101960E940D
:103540008E20BE016F5F7F4FCE01C1960E945A232D
:10355000BE016F5C7F4FCE0101960E948E20BE019E
:103560006F5F7F4FCE01C1960E945A23AE014F5B21
:103570005F4FBE016F5C7F4FCE0101960E94371CEA
:10358000BE016F5F7F4FCE018F5B9F4F0E945A231A
:10359000BE016F5B7F4FCE0101960E948E20BE015F
:1035A0006F5F7F4FCE018F5B9F4F0E945A23A70111
:1035B000BE016F5B7F4FCE0101960E94371CBE019A
:1035C0006F5F7F4FCE018F5B9F4F0E945A23BE01DA
:1035D0006F5B7F4FCE0101960E948E20BE016F5F10
:1035E0007F4FCE01C1960E945A23B4E0DB2EBE016C
:1035F0006F5C7F4FCE0101960E948E20BE016F5FEF
:103600007F4FCE01C1960E945A23DA9481F7AE0112
:103610004F5B5F4FBE016F5C7F4FCE0101960E94F2
:10362000371CBE016F5F7F4FCE0181960E945A23E7
:10363000BE016F5D7F4FCE0101960E948E20BE01BC
:103640006F5F7F4FCE01C1960E945A23A9E0DA2E08
:10365000BE016F5C7F4FCE0101960E948E20BE019D
:103660006F5F7F4FCE01C1960E945A23DA9481F793
:10367000AE014F5D5F4FBE016F5C7F4FCE01019683
:103680000E94371CBE016F5F7F4FCE0181960E9462
:103690005A23BE016F5D7F4FCE0101960E948E209E
:1036A000BE016F5F7F4FCE01C1960E945A23F3E1A6
:1036B000DF2EBE016F5C7F4FCE0101960E948E20EF
:1036C000BE016F5F7F4FCE01C1960E945A23DA94EC
:1036D00081F7AE014F5D5F4FBE016F5C7F4FCE0142
:1036E00001960E94371CBE016F5F7F4FCE0181960D
:1036F0000E945A23BE016F5D7F4FCE0101960E944A
:103700008E20BE016F5F7F4FCE01C1960E945A236B
:10371000E7E2DE2EBE016F5C7F4FCE0101960E9474
:103720008E20BE016F5F7F4FCE01C1960E945A234B
:10373000DA9481F7AE014F5D5F4FBE016F5C7F4F42
:10374000CE0101960E94371CBE016F5F7F4FC801FA
:103750000E945A23B801CE0101960E948E20BE011C
:103760006F5F7F4FCE01C1960E945A2377E2D72E1A
:10377000BE016F5C7F4FCE0101960E948E20BE017C
:103780006F5F7F4FCE01C1960E945A23DA9481F772
:10379000AE014F5D5F4FBE016F5C7F4FCE01019662
:1037A0000E94371CBE016F5F7F4FC8010E945A23E1
:1037B000B801CE0101960E948E20BE016F5F7F4F3F
:1037C000CE01C1960E945A2364E0D62EBE016F5CE2
:1037D0007F4FCE0101960E948E20BE016F5F7F4F0A
:1037E000CE01C1960E945A23DA9481F7AE014F5B55
:1037F0005F4FBE016F5C7F4FCE0101960E94371C68
:10380000BE016F5F7F4FCE018F5B9F4F0E945A2397
:10381000BE016F5B7F4FCE0101960E948E20BE01DC
:103820006F5F7F4FCE01C1960E945A23BE016F5C2D
:103830007F4FCE0101960E948E20BE016F5F7F4FA9
:10384000CE01C1960E945A23A701BE016F5C7F4F33
:10385000CE0101960E94371CBE016F5F7F4FC801E9
:103860000E945A23C05BDF4FE7E00C949F2C2F92FD
:103870003F924F925F926F927F928F929F92AF9200
:10388000BF92CF92DF92EF92FF920F931F93CF934D
:10389000DF93FC01EA01DB01442755278A012D90C3
:1038A0003D904D905D90688079808A809B80289CB7
:1038B0006001269C5001279CB00CC11CD51E399C70
:1038C0007001299C9001369CB00CC11CD21E351F82
:1038D000379CC00CD11C351F499CE30EF01C011D08
:1038E000489C9001469CC00CD11CE21E351F389CA0
:1038F000D00CE11C351F599CF30E001D111D579C67
:103900009001479CD00C211D351F569CD00C211DC9
:10391000351F589CE20E031E151EF00C011D151FCD
:10392000A082B182C282D3825A012D913D914D91E4
:103930006C817D818E819F81269FE00CF11C051F8B
:10394000B51E279FF00C011DB51E369FF00C011D02
:103950001B1DA51E289F000D111DA51E379F000DC4
:10396000111DA51E469F000D111DA51EBB24299FDC
:10397000100DA11CB51E389F100DA11CB51E479F30
:10398000100DA11CB51E221A330A440A2D91520AA9
:103990000008661A770A880A990A11082024302438
:1039A000402450246124712481249124201830085B
:1039B000400850086118710881089108012400FA34
:1039C000269F100DA11CB51E399F3327A00CB11CDA
:1039D000351F489FA00CB11C351F279FA00CB11CA0
:1039E000351F499F4427B00C311D451F289FB00C3F
:1039F000311D451F299F300D411D882799272227FA
:103A0000269CB001279C700D811D369C700D811D78
:103A1000951F289C800D911D251F379C800D911DA1
:103A2000251F469C800D911D251F299C2224900D49
:103A3000211D251E389C900D211D251E479C900D93
:103A4000211D251E569C900D211D251E399C3324B9
:103A5000200D211C351E489C200D211C351E579C15
:103A6000200D211C351E499C4424200C311C451E70
:103A7000589C200C311C451E599C300C411C608008
:103A800071806E0C7F1CC01ED11EEA1CFB1C031F24
:103A9000141F882480F88A94581D052E05946825E3
:103AA0007825882598252825282438244824880C1A
:103AB000661E771EC81ED91EE21EF21C031D141DB1
:103AC000A51EB01C301D401D64827582C682D7823F
:103AD000B701C8012A2D5B2DCC24DD247601860197
:103AE0002D903D904D905D90688479848A849B846C
:103AF000269C5001279CB00CC11C369CB00CC11CEC
:103B0000D11E289CC00CD11CE11E379CC00CD11CBE
:103B1000E11E469CC00CD11CE11E299CD00CE11C6E
:103B2000F11E389CD00CE11CF11E479CD00CE11C0E
:103B3000F11E569CD00CE11CF11E6A0D608B7B1DA2
:103B4000718B8C1D828B9D1D938BA21EA48AB51E2A
:103B5000B58AC31ED41E00080F9244275527399CEE
:103B6000E00CF11C051F489CE00CF11C051F579C44
:103B7000E00CF11C051F499CF00C011D151F589C01
:103B8000F00C011D151F599C000D111D5A012D919E
:103B90003D914D916C857D858E859F85269FE00C9E
:103BA000F11C051FB51E279FF00C011DB51E369F89
:103BB000F00C011D1B1DA51E289F000D111DA51E2B
:103BC000379F000D111DA51E469F000D111DA51E3E
:103BD000BB24299F100DA11CB51E389F100DA11CE0
:103BE000B51E479F100DA11CB51E221A330A440AA8
:103BF0002D91520A0008661A770A880A990A110854
:103C000020243024402450246124712481249124D0
:103C10002018300840085008611871088108910880
:103C2000012400FA269F100DA11CB51E399F3327D1
:103C3000A00CB11C351F489FA00CB11C351F279F3D
:103C4000A00CB11C351F499F4427B00C311D451FE6
:103C5000289FB00C311D451F299F300D411D88271D
:103C600099272227269CB001279C700D811D369C28
:103C7000700D811D951F289C800D911D251F379C5F
:103C8000800D911D251F469C800D911D251F299C8F
:103C90002224900D211D251E389C900D211D251ECE
:103CA000479C900D211D251E569C900D211D251E03
:103CB000399C3324200D211C351E489C200D211CCD
:103CC000351E579C200D211C351E499C4424200C78
:103CD000311C451E589C200C311C451E599C300C33
:103CE000411C648875886E0C7F1CC01ED11EEA1CA6
:103CF000FB1C031F141F551F0F900194E00C0024A0
:103D0000F01C001D101D882480F88A94581D052E73
:103D10000594682578258825982528252824382481
:103D20004824880C661E771EC81ED91EE21EF21C8F
:103D3000031D141DA51EB01C301D401D648A758A0C
:103D4000C68AD78AE08EF18E028F138FA48EB58E2D
:103D5000368F478F50972D903D904D905D902D91CF
:103D60003D914D915D91AD90BD90CD90DD90ED90E8
:103D7000FD900D911C912A183B084C085D082E09F6
:103D80003F09400B510B0008688079808A809B8036
:103D90006C817D818E819F81A884B984CA84DB84F3
:103DA000EC84FD840E851F856A187B088C089D08AD
:103DB0006E097F09800B910B1108202430244024C8
:103DC000502420253025402550256124712481244C
:103DD00091246125712581259125201830084008FE
:103DE00050082009300940095009611871088108FC
:103DF00091086109710981099109AA27BB2701244A
:103E00000F928D01289C6001269C5001279CB00CCC
:103E1000C11CDA1E399C7001299CE001369CB00C53
:103E2000C11CDC1EDA1F379CC00CD11CDA1F499C58
:103E3000ED0EF01C011D489CE001469CC00CD11CFD
:103E4000EC1EDA1F389CD00CE11CDA1F599CFD0EC9
:103E5000001D111D579CE001479CD00CC11DDA1FAD
:103E6000569CD00CC11DDA1F589CEC0E0D1E1A1E5C
:103E7000F00C011D1A1F221A330A440A550A0008C1
:103E8000661A770A880A990A1108202430244024E7
:103E90005024612471248124912420183008400882
:103EA00050086118710881089108012400FA289FC0
:103EB000E001269FE00CF11C0C1FDA1F279FF00C7D
:103EC000011DDA1F399F1D0FA01DB11D299FE001A3
:103ED000369FF00C011D1C1F2227D21F379F000D9B
:103EE000111DD21F499FAD0FB01D2227211D489FD4
:103EF000E001469F000D111DAC1F0024D01D389F0E
:103F0000100DA11D3327D31F599FBD0F201D9927C9
:103F1000911D579FE001479F100DC11DD31F569F54
:103F2000100DC11DD31F589FAC0F0D1E131EB00DD9
:103F3000211D931F289CB001269CA001279C500D99
:103F4000611D731F399C802D022C212C099CE001DE
:103F5000369C500D611D7C1FD31F379C600D711D59
:103F6000D31F499C8D0F201C311D489CE001469CAD
:103F7000600D711D8C1F0024D01D389C700D811D9B
:103F80003324D31D599C2D0E301D9924911C579C10
:103F9000E001479C700DC11DD31D569C700DC11DC5
:103FA000D31D589C8C0F0D1E131C200C311D931C0F
:103FB00025013601AE0CBF1CC01ED11EEA1EFB1E21
:103FC000021F191F002400F80A94301C132C1594AA
:103FD00040255025602570258025202430259024FB
:103FE000000CA41EB51EC61ED71EE81EF21C031F21
:103FF000191DA31DB11D211D911D392F4081518116
:104000006281738184819581868097800F9000946E
:10401000102C15944024502460247024A024B02433
:10402000C024D024E024F02400251025A025B025AC
:1040300020253025C02DCC0F441D551D661D771D34
:104040008A1D9B1D8C1C9D1CCC27CC1F2088318871
:10405000420D531D40875187A10122883388621D7C
:10406000731D62877387B10124883588821D931D73
:1040700084879587C10126883788821C931C868691
:10408000978641012224221CC6954E1D5F1D601F8C
:10409000711F8A1F9B1F821E931E0C1E1C1E408CAC
:1040A000518C628C738CA48CB58CC68CD78C269466
:1040B000441D551D661D771D8A1D9B1D8C1C9D1C56
:1040C000021C121C408B518B628B738B848B958BE3
:1040D000868A978A400C511C611C711CA11CB11C62
:1040E000C11CD11C408E518E628E738EA48EB58EF3
:1040F000C68ED78E1124DF91CF911F910F91FF9023
:10410000EF90DF90CF90BF90AF909F908F907F9077
:104110006F905F904F903F902F9008952F923F9215
:104120004F925F926F927F928F929F92AF92BF92C7
:10413000CF92DF92EF92FF920F931F93CF93DF9373
:10414000FC01EB01288039804A805B806C807D8097
:104150008E809F80AA27BB27239C50016D01249C41
:10416000B00CC11C7D01259CC00CD11C349CC00C22
:10417000D11CEA1E269CD00CE11C359CD00CE11C05
:10418000FA1E8D01279CE00CF11C0A1F369CE00CE6
:10419000F11C0A1F459CE00CF11C0A1F289CF00C26
:1041A000011D1A1F379CF00C011D1A1F469CF00CB4
:1041B000011D1A1F9D01299C000D111D2A1F389CED
:1041C000000D111D2A1F479C000D111D2A1F569C12
:1041D000000D111D2A1FAA1CBB1CCC1CDD1CEE1CD3
:1041E000FF1C001F990B229C0082212C339CA001F4
:1041F000449CB001559CA20CA182B41EB282C51E83
:10420000C382D61ED482E71EE582F01CF682011D11
:1042100007839A0B399C100D211D3A1F489C100DE5
:10422000211D3A1F579C100D211D3A1FAD01499CBD
:10423000200D311D4A1F589C200D311D4A1F679CBF
:10424000200D311D4A1F599C300D411D5A1F689C7D
:10425000300D411D5A1FBD01699C400D511D6A1F43
:10426000789C400D511D6A1F799C500D611D7A1F6D
:104270008827899C600D711D8A1F111F221F331F03
:10428000441F551F661F771F881F669C9195090E56
:104290001A1E5001779C6001889C7001999C100146
:1042A0001A0D2B1D3C1D4D1D5E1D6F1D721D831DA6
:1042B000288439844A845B846C847D848E849F84C2
:1042C000239C50016D01249CB00CC11C7D01259CD8
:1042D000C00CD11C349CC00CD11CEA1E269CD00CF6
:1042E000E11C359CD00CE11CFA1E0A2F279CE00C27
:1042F000F11C0A1F369CE00CF11C0A1F459CE00CC7
:10430000F11C0A1F289CF00C011DAB1F379CF00C00
:10431000011DAB1F469CF00C011DAB1F299C000D1D
:10432000A11DBB0B389C000DA11DB040479C000D8A
:10433000A11DB040569C000DA11DB040B195AA0C26
:10434000BB1CCC1CDD1CEE1CFF1C001F990BA20E1D
:10435000B31EC41ED51EE61EF71E081F9040229CE9
:104360009001339CA001449CB001559C210F208BEF
:10437000A31EA18AB41EB28AC51EC38AD61ED48AC1
:10438000E71EE58AF01CF68A011D078B9040112775
:104390003327399CA00DB11D311F489CA00DB11DC4
:1043A000311F579CA00DB11D311F412F499CB00DED
:1043B000311D411F589CB00D311D411F679CB00D30
:1043C000311D411F512F599C300D411D511F689CBB
:1043D000300D411D511F612F699C400D511D611F02
:1043E000789C400D511D611F712F799C500D611DEE
:1043F000711F8827899C600D711D811FAA1FBB1F1B
:10440000331F441F551F661F771F881F669C919599
:10441000090E111E5001779C6001889C7001999CC7
:10442000AA0DA08FBB1DB18F3C1D328F4D1D438F38
:104430005E1D548F6F1D658F701D768F811D878F58
:10444000A880B980CA80DB80EC80FD800E811F814E
:104450002A183B084C085D086E087F08800A910AFC
:10446000BB27AA0B2A263A264A265A266A267A26E5
:104470008A269A26A1952A0E3B1E4B1E5B1E6B1E9A
:104480007B1E8B1E9B1EAA27239C50016D01249C22
:10449000B00CC11C7D01259CC00CD11C349CC00CEF
:1044A000D11CEA1E269CD00CE11C359CD00CE11CD2
:1044B000FA1E8D01279CE00CF11C0A1F369CE00CB3
:1044C000F11C0A1F459CE00CF11C0A1F289CF00CF3
:1044D000011D1A1F379CF00C011D1A1F469CF00C81
:1044E000011D1A1F9D01299C000D111D2A1F389CBA
:1044F000000D111D2A1F479C000D111D2A1F569CDF
:10450000000D111D2A1FAA1CBB1CCC1CDD1CEE1C9F
:10451000FF1C001F990B229CE001339CA001449CCE
:10452000B001559CAD0EB41EC51ED61EE71EF01C74
:10453000011D9A0B399C100D211D3A1F489C100D2E
:10454000211D3A1F579C100D211D3A1FAD01499C9A
:10455000200D311D4A1F589C200D311D4A1F679C9C
:10456000200D311D4A1F599C300D411D5A1F689C5A
:10457000300D411D5A1FBD01699C400D511D6A1F20
:10458000789C400D511D6A1F799C500D611D7A1F4A
:104590008827899C600D711D8A1F111F221F331FE0
:1045A000441F551F661F771F881F669C9195090E33
:1045B0001A1E1001779C2001889C3001999C120DD5
:1045C000231D341D451D561D671D701D811D20882E
:1045D0003188428853886488758886889788C2198C
:1045E000A308B408C508D608E708F80809090008B0
:1045F000D081DC1BD087D181DA09D187D281DB0958
:10460000D287D381DC09D387D481DD09D487D581D2
:10461000DE09D587D681DF09D687D781D00BD7872A
:10462000210A320A430A540A650A760A870A980A56
:10463000AA0BA08CB18CC28CD38CE48CF58C068D2B
:10464000178D000C2A1C3B1C4C1C5D1C6E1C7F1C17
:10465000801E911E208A318A428A538A648A758A12
:10466000868A978A2227A21FBA2FB595AA0EBB1E4B
:10467000CB1EDB1EEB1EFB1E0B1F1B1FA08EB18E65
:10468000C28ED38EE48EF58E068F178F1124DF91A4
:10469000CF911F910F91FF90EF90DF90CF90BF903F
:1046A000AF909F908F907F906F905F904F903F90D2
:1046B0002F9008952227DB01FC01CE01EB011F960C
:1046C0003C911F9760966F85660F121E360F121E63
:1046D000330F111C36955D917727510D721F69912B
:1046E000660F721F560F721F51935D916991660F8D
:1046F000221F570F7727271F560F271F51935D91B2
:104700006991660F771F520F2227721F560F721F73
:1047100051935D916991660F221F570F7727271FCD
:10472000560F271F51935D916991660F771F520FA6
:104730002227721F560F721F51935D916991660F68
:10474000221F570F7727271F560F271F51935D9161
:104750006991660F771F520F2227721F560F721F23
:1047600051935D916991660F221F570F7727271F7D
:10477000560F271F51935D916991660F771F520F56
:104780002227721F560F721F51935D916991660F18
:10479000221F570F7727271F560F271F51935D9111
:1047A0006991660F771F520F2227721F560F721FD3
:1047B00051935D916991660F221F570F7727271F2D
:1047C000560F271F51935D916991660F771F520F06
:1047D0002227721F560F721F51935D916991660FC8
:1047E000221F570F7727271F560F271F51935D91C1
:1047F0006991660F771F520F2227721F560F721F83
:104800005193370F3083EC01112408957F928F92DA
:104810009F92AF92BF92CF92DF92EF92FF920F934F
:104820001F93DB01FC01CE01EA017D908990780C99
:104830008D909990891C9D90A9909A1CAD90B990EB
:10484000AB1CBD90C990BC1CCD90D990CD1CDD9007
:10485000E990DE1CED90F990EF1CFD900991F01E9F
:104860000D911991011F1D912991121F2D913991BF
:10487000231F3D914991341F4D915991451F5D91E1
:104880006991561F6D917991671F7727771F660F82
:10489000771F6695770E811C911CA11CB11CC11C51
:1048A000D11CE11CF11C011D111D211D311D411DDB
:1048B000511D611D719281929192A192B192C1920A
:1048C000D192E192F192019311932193319341930B
:1048D00051936083EC0111241F910F91FF90EF9091
:1048E000DF90CF90BF90AF909F908F907F90089572
:1048F0007F928F929F92AF92BF92CF92DF92EF9270
:10490000FF920F931F93DB01FC01CE01EA017D9022
:10491000899078188D90999089089D90A9909A080F
:10492000AD90B990AB08BD90C990BC08CD90D9901E
:10493000CD08DD90E990DE08ED90F990EF08FD904C
:104940000991F00A0D911991010B1D912991120BFA
:104950002D913991230B3D914991340B4D915991F2
:10496000450B5D916991560B6D917991670B772796
:10497000771F770F771A81089108A108B108C1083D
:10498000D108E108F108010911092109310941099A
:10499000510961097727771F770F771A71928192F2
:1049A0009192A192B192C192D192E192F19201932E
:1049B000119321933193419351936083EC011F91A3
:1049C0000F91FF90EF90DF90CF90BF90AF909F90AE
:1049D0008F907F900895DB01FC0133271F962C9167
:1049E0001F97220F331F26955D91530F4D91411D47
:1049F00041834D91411D42834D91411D43834D9112
:104A0000411D44834D91411D45834D91411D468378
:104A10004D91411D47834D91411D40874D91411D51
:104A200041874D91411D42874D91411D43874D91D5
:104A3000411D44874D91411D45874D91411D46873C
:104A4000211D220F511D2695278750830895CF934E
:104A5000DF93EB01DA01B90140E05D91FB012191A7
:104A6000BF0130E0250F311D5881250F311D3170F8
:104A70003883FC012193CF014F5F403271F7DF9102
:104A8000CF9108950F931F93CF93DF93EB01DA013A
:104A9000890140E02D91F80151918F0130E068814A
:104AA000261B3109251B310931703883FC01219304
:104AB000CF014F5F403271F7DF91CF911F910F917E
:104AC0000895CF93DF93DA01FB01EC0180E091912F
:104AD0002C9130E0290F311D3C9329938F5F803159
:104AE000B1F7DF91CF910895CF93DF93EA01288149
:104AF00021952883FB01DC0190E201C0288181918E
:104B000082238D939150D1F7DF91CF910895AF9289
:104B1000BF92DF92EF92FF920F931F93CF93DF9399
:104B2000CDB7DEB7A0970FB6F894DEBF0FBECDBFEE
:104B30007A01DC015B0100E010E0F50121915F01E9
:104B4000F701D1907F0130E0211B31092D19310986
:104B5000132F11702D930F5F003279F7FB01B09680
:104B6000405E5F4F8096605C7F4F7C012191DA014F
:104B70000D91AD0130E0211B3109201B3109132FAC
:104B80001170D7012D937D01E617F70779F772E0D1
:104B9000AE014F5D5F4F1195E4EBF4E0DE0111963D
:104BA000219121232D9324E0E43DF207C9F7DC0194
:104BB000FE01319610E061912C9130E0211B31090A
:104BC000261B3109132F11702D93E417F50799F760
:104BD000715009F7A0960FB6F894DEBF0FBECDBF97
:104BE000DF91CF911F910F91FF90EF90DF90BF90D9
:104BF000AF900895A0E2B0E0E0E0F6E20C947D2CE6
:104C00007C018B016A010E94371C560180E1A80ECD
:104C1000B11C480180E1880E911CA501B401C701B7
:104C200080960E94371CA501B801CE0101960E9412
:104C3000371C570180E1A80EB11C8E010F5D1F4F7C
:104C4000D501FE013196712C8C91219130E0280F15
:104C5000311D270D311D732E2D93E017F107A1F79C
:104C6000A601B401CE0101960E94371CD501FE01B8
:104C7000319680E09C91219130E0290F311D280F61
:104C8000311D832F2D93E017F107A1F7730EF70164
:104C9000F09680E4E80EF11C2081872D90E0820FD1
:104CA000911D792E8193EE15FF05B1F7A096EDE0E9
:104CB0000C94992CA0E8B0E0E0E6F6E20C947A2C93
:104CC0003C01DB01FE0131965F017E0181E4E80ECB
:104CD000F11C8D918193EE15FF05D9F744E0442E28
:104CE000512C8701005E1F4F6701A0E3CA0ED11C43
:104CF0004701B0E48B0E911C44EB54E0BE016F5DA4
:104D00007F4FC7010E94FA25D501F7018C912191AF
:104D100030E0280F311D250D311D532E2D93E01746
:104D2000F107A1F7F801DE0191962191852D90E020
:104D3000820F911D592E8D93EC15FD05B1F7F601EB
:104D4000DE01D1962191852D90E0820F911D592E83
:104D50008D93E815F905B1F74A9471F629A1822FD0
:104D60008C7190E095958795959587958AA398A1E4
:104D7000892F869586952295220F220F207C822BE3
:104D800089A3937098A344E954E0BE016F5D7F4FFF
:104D9000C7010E94FA25D501F7012C91819190E07D
:104DA000820F911D850D911D592E8D93E017F107EE
:104DB000A1F71AA288A182FB992790F9837088A392
:104DC0009195E4E9F4E0D701819189238D9384E002
:104DD000E43BF807C9F7B3019501205E3F4FF501A9
:104DE00040E05191D7018D917D0190E0850F911D9B
:104DF000840F911D492FDB018D93BD01E217F3074D
:104E000081F7C058DF4FE0E10C94962CA0E4B0E0AD
:104E1000ECE0F7E20C94822C8C017B016901BA0171
:104E20000E945A26B801C8010E942918A601B8019B
:104E3000CE0101960E94FA25AE014F5F5F4FB70188
:104E4000CA010E948725BE016F5F7F4FC8010E9483
:104E50005A26C05CDF4FE8E00C949E2C1092C500EF
:104E600089E18093C40088E18093C1000895909106
:104E7000A80691110BC01092C50099E19093C4004F
:104E800098E19093C10091E09093A8069091C000A2
:104E900095FFFCCF8093C6000895FC01208122235A
:104EA000C9F0319649E138E191E08091A80681117D
:104EB00008C01092C5004093C4003093C100909385
:104EC000A8068091C00085FFFCCF2093C6002191E9
:104ED0002111EBCF0895A4E0B0E0E1E7F7E20C94F4
:104EE000802C6115710511F18C015C01A60EB71EB5
:104EF000CE0101967C0180E3C82E85E0D82EF80112
:104F000081918F011F928F93DF92CF92FF92EF9248
:104F10000E94342DC7010E944D270F900F900F90D3
:104F20000F900F900F900A151B0549F72496EAE0A1
:104F30000C949C2CACE1B0E0E0EAF7E20C94782C05
:104F4000922E832E742E652E562E472E382E292E05
:104F5000188EA0E00E94CD2C09F44DC09E01285E61
:104F60003F4F3C8F2B8F86E190E09A8F898F9AE09C
:104F7000A92EB12CC12CD12CE12CF12C00E010E099
:104F8000292D382D472D562D652D742D832D922DCD
:104F90000E94192C205DEB8DFC8D2293FC8FEB8FF2
:104FA000298D3A8D215031093A8F298F292D382D9D
:104FB000472D562D652D742D832D922D0E941B2C6F
:104FC000922E832E742E652E562E472E382E292E85
:104FD000A0E00E94CD2C59F6898D9A8D0196E1E0D2
:104FE000F0E0EC0FFD1F8E0F9F1F0E944D276C9667
:104FF000E2E10C94942C86E395E00E944D2787E132
:1050000090E0EDCFA0E0B0E0E8E0F8E20C947C2C7A
:105010004B013A01E9010E944D2780E595E00E948D
:105020004D278FEF88169806B1F088E395E00E942F
:105030004D27A12CB12CC12CD12C7601940140E03C
:1050400050E060E070E080E090E00E949A278AE300
:1050500095E00E944D272197209729F14301612C6B
:10506000712C8FEF681A780AF401208588E0880E89
:10507000911C318542855385648575858685978524
:10508000A080B180C280D380E480F5800681178142
:105090000E94BB2C0E949A2781E595E00E944D2733
:1050A0006C167D06F0F289E495E00E944D27CDB79D
:1050B000DEB7EEE00C94982C8F929F92AF92BF9245
:1050C000CF92DF92EF92FF92CF93DF934B01EA01F1
:1050D0000E944D2780E595E00E944D278FEF8816AE
:1050E000980689F088E395E00E944D27940140E0FE
:1050F00050E060E070E080E090E00E949A278AE350
:1051000095E00E944D279E0140E050E060E070E095
:1051100080E090E00E949A278DE395E00E944D2761
:10512000DF91CF91FF90EF90DF90CF90BF90AF9045
:105130009F908F90089584E00E943727FFCFEC0165
:105140008BE495E00E944D27CE010E944D2789E413
:1051500095E00E944D270E949B288FEF9FEF0E94B1
:105160006730A1E0B0E0E7EBF8E20C947E2C0E94FF
:10517000272D6093AB06CE0101964C019093AA06B1
:105180008093A9069CEA891696E0990698F0F401A6
:1051900002C06091AB06CF0101979093AA0680935D
:1051A000A9066083E091A906F091AA0626E0EC3AF0
:1051B000F20778F750E2E52EF12C00E010E020E055
:1051C00030E040E050E064E072E088E696E00E9463
:1051D00041133091AB068091AC06381312C38CEAB0
:1051E00096E08F5F914211F008F00BC380E090E0F1
:1051F000ECEAF6E0319601962081321305C021E2F7
:10520000EF3FF207B9F3B0F3A401481B590B4C5A16
:105210005640509355054093540580915605909102
:1052200057054817590708F4AC01509357054093A8
:1052300056056FEF7FEF84ED94E00E945C2810929A
:1052400057051092560510925505109254050E946C
:10525000272D6093AB069092AA068092A9068CEA4D
:10526000881686E0980698F0F40102C06091AB06BB
:10527000CF0101979093AA068093A9066083E091DD
:10528000A906F091AA0696E0EC3AF90778F744E20D
:1052900052E068E076E088E496E00E945F16309184
:1052A000AB068091AC063813AFC28CEA96E08F5FF4
:1052B000914211F008F0A8C280E090E0ECEAF6E03C
:1052C000319601962081321305C021E2EF3FF207AB
:1052D000B9F3B0F3A401481B590B4C5A56405093F4
:1052E00055054093540580915605909157054817F0
:1052F000590708F4AC0150935705409356056FEFDA
:105300007FEF89ED94E00E945C281092570510927F
:10531000560510925505109254050E94272D609352
:10532000AB069092AA068092A9068CEA881686E0BF
:10533000980698F0F40102C06091AB06CF01019786
:105340009093AA068093A9066083E091A906F09144
:10535000AA0696E0EC3AF90778F738E0A32E36E093
:10536000B32E40E2C42ED12CE12CF12C00E010E051
:1053700020E030E044E052E068E476E088ED95E03B
:105380000E949C163091AB068091AC0638133FC248
:105390008CEA96E08F5F914211F008F038C280E00D
:1053A00090E0ECEAF6E0319601962081321305C0D8
:1053B00021E2EF3FF207B9F3B0F3A401481B590B08
:1053C0004C5A5640509355054093540580915605CC
:1053D000909157054817590708F4AC0150935705A9
:1053E000409356056FEF7FEF80EE94E00E945C28BB
:1053F00010925705109256051092550510925405BB
:105400000E94272D6093AB069092AA068092A9066F
:105410008CEA881686E0980698F0F40102C0609144
:10542000AB06CF0101979093AA068093A9066083EB
:10543000E091A906F091AA0696E0EC3AF90778F710
:1054400098EDC92E95E0D92E20E2E22EF12C00E055
:1054500010E020E030E040E050E064E072E088E4FA
:1054600096E00E9482173091AB068091AC0638130B
:10547000D1C18CEA96E08F5F914211F008F0CAC169
:1054800080E090E0ECEAF6E031960196208132135C
:1054900005C021E2EF3FF207B9F3B0F3A401481BC6
:1054A000590B4C5A564050935505409354058091E2
:1054B0005605909157054817590708F4AC015093C9
:1054C0005705409356056FEF7FEF85EE94E00E94FD
:1054D0005C281092570510925605109255051092AF
:1054E00054050E94272D6093AB069092AA068092E5
:1054F000A9068CEA881686E0980698F0F40102C0A6
:105500006091AB06CF0101979093AA068093A906FC
:105510006083E091A906F091AA0696E0EC3AF907BB
:1055200078F744E252E064E472E088ED95E00E948E
:105530000B183091AB068091AC0638136EC18CEA23
:1055400096E08F5F914211F008F067C180E090E033
:10555000ECEAF6E0319601962081321305C021E293
:10556000EF3FF207B9F3B0F3A401481B590B4C5AB3
:10557000564050935505409354058091560590919F
:1055800057054817590708F4AC0150935705409345
:1055900056056FEF7FEF8CEE94E00E945C2810922E
:1055A00057051092560510925505109254050E9409
:1055B000272D6093AB069092AA068092A9068CEAEA
:1055C000881686E0980698F0F40102C06091AB0658
:1055D000CF0101979093AA068093A9066083E0917A
:1055E000A906F091AA0696E0EC3AF90778F72AEFB7
:1055F00030E048ED55E064E272E088E595E00E9415
:10560000AA013091AB068091AC06381309C18CEA2F
:1056100096E08F5F914211F008F002C180E090E0C7
:10562000ECEAF6E0319601962081321305C021E2C2
:10563000EF3FF207B9F3B0F3A401481B590B4C5AE2
:1056400056405093550540935405809156059091CE
:1056500057054817590708F4AC0150935705409374
:1056600056056FEF7FEF88EF94E00E945C280E9460
:10567000272D6093AB069092AA068092A9068CEA29
:10568000881686E0980698F0F40102C06091AB0697
:10569000CF0101979093AA068093A9066083E091B9
:1056A000A906F091AA0696E0EC3AF90778F728EDFA
:1056B00035E048E056E064E272E0CA010E94A012C0
:1056C0003091AB068091AC063813ADC08CEA96E001
:1056D0008F5F914211F008F0A6C080E090E0ECEA04
:1056E000F6E0319601962081321305C021E2EF3FAA
:1056F000F207B9F3B0F3A401481B590B4C5A5640BA
:105700005093550540935405809156059091570547
:105710004817590708F4AC015093570540935605B4
:105720006FEF7FEF8AE095E00E945C280E94272DB2
:105730006093AB069092AA068092A9068CEA88161E
:1057400086E0980698F0F40102C06091AB06CF01A4
:1057500001979093AA068093A9066083E091A90619
:10576000F091AA0696E0EC3AF90778F784E2E82E81
:1057700082E0F82E870128E036E048ED55E0B901D7
:10578000C9010E94DD123091AB068091AC0638133E
:105790004DC08CEA96E08F5F914211F008F046C050
:1057A00080E090E0ECEAF6E0319601962081321339
:1057B00005C021E2EF3FF207B9F3B0F3A401481BA3
:1057C000590B4C5A564050935505409354058091BF
:1057D0005605909157054817590708F4AC015093A6
:1057E0005705409356056FEF7FEF8EE195E00E94DD
:1057F0005C280E949B2880E090E02196ECE00C94CD
:105800009A2C80E090E000CD80E090E063CD80E0D5
:1058100090E0D3CD80E090E041CE80E090E0A4CE57
:1058200080E090E009CF80E090E065CF80E090E0FC
:10583000C5CF689401C0E8948F929F92CF93DF9375
:105840000E94272CDF91CF919F908F9008958824FC
:105850009924F401E401B0E49F93AA279A158B04DC
:105860009C04ED05FE05CF05D007A10798F4AD2FE8
:10587000DC2FCF2FFE2FE92D982C892E982F872FE4
:10588000762F652F542F432F322F2227B85031F710
:10589000BF9127C01B2EBF91BB27220F331F441F70
:1058A000551F661F771F881F991F881C991CEE1FA4
:1058B000FF1FCC1FDD1FAA1FBB1F8A149B04EC0512
:1058C000FD05CE05DF05A007B10748F08A189B0843
:1058D000EC09FD09CE09DF09A00BB10B21601A9478
:1058E000E1F62EF49401AF01BE01CD01000C089544
:1058F0002F923F924F925F926F927F928F929F92E0
:10590000AF92BF92CF92DF92EF92FF920F931F93CD
:10591000CF93DF93CDB7DEB7CA1BDB0B0FB6F8947E
:10592000DEBF0FBECDBF19942A88398848885F84AE
:105930006E847D848C849B84AA84B984C884DF802F
:10594000EE80FD800C811B81AA81B981CE0FD11D13
:105950000FB6F894DEBF0FBECDBFED010895002451
:10596000A7FD00942A0F301D401D501D601D701DA5
:10597000801D901D08952A193B094C095D096E0987
:105980007F09800B910B08952A153B054C055D0599
:105990006E057F058007910708950024A7FD0094F8
:1059A0002A173005400550056005700580059005F3
:1059B00008958F929F92AF92BF92CF92DF92EF9213
:1059C000FF92CF93DF93EC01688179818A819B817B
:1059D000611571058105910521F464E279ED8BE58E
:1059E00097E02DE133EF41E050E00E94043049019F
:1059F0005A019B01AC01A7EAB1E40E9423306B017C
:105A00007C01ACEEB4EFA50194010E943130C60ECA
:105A1000D71EE81EF91EF7FE06C081E0C81AD1089D
:105A2000E10880E8F80AC882D982EA82FB82C701CD
:105A3000B6019F77DF91CF91FF90EF90DF90CF90ED
:105A4000BF90AF909F908F9008950C94D92C80E0D8
:105A500092E00C94D92C6093000270930102809321
:105A600002029093030208950F931F93CF93DF9345
:105A7000CDB7DEB72E970FB6F894DEBF0FBECDBF01
:105A80000E891F8986E08C831A8309838FEF9FE735
:105A90009E838D83AE01465E5F4F688D798DCE010A
:105AA00001960E94632DEF81F885E00FF11F1082AF
:105AB0002E960FB6F894DEBF0FBECDBFDF91CF910B
:105AC0001F910F9108952F923F924F925F926F9284
:105AD0007F928F929F92AF92BF92CF92DF92EF927E
