:100000000C94AE000C94CF000C94CF000C94CF0055
:100010000C94CF000C94CF000C94CF000C94CF0024
:100020000C94CF000C94CF000C94CF000C94CF0014
:100030000C94CF000C94CF000C94CF000C94CF0004
:100040000C94CF000C94CF000C94CF000C94CF00F4
:100050000C94CF000C94CF000C94CF000C94CF00E4
:100060000C94CF000C94CF000C94CF000C94CF00D4
:100070000C94CF000C94CF000C94CF000C94CF00C4
:100080000C94CF000C94CF000C94CF000C94CF00B4
:100090000C94CF000C94CF000C94CF000C94CF00A4
:1000A0000C94CF000C94CF000C94CF000C94CF0094
:1000B0000C94CF000C94CF000C94CF000C94CF0084
:1000C0000C94CF000C94CF000C94CF000C94CF0074
:1000D0000C94CF000C94CF000C94CF000C94CF0064
:1000E0000C94CF000C94FF1D0C94D1020C94EF12D1
:1000F0000C94E6020C9466150C940D010C9482127B
:100100000C94B4140C94C6160C9406050C94690F48
:100110000C94BC150C944F270C94FB020C94801685
:100120000C947F1B0C94231B0C94BC1B0C9430026E
:100130000C94E4210C94E6270C9465100C94F31CA9
:100140000C94D7000C947E270C94EA150C940F2184
:100150000C944A010C94370F0C94531D11241FBEAC
:10016000CFEFD1E2DEBFCDBF00E00CBF14E0A0E0D6
:10017000B2E0E4EBFBE500E00BBF02C007900D929C
:10018000A23EB107D9F725E0A2EEB4E001C01D926E
:10019000A537B207E1F70E948F280C94D82D0C9454
:1001A0000000A0E4B0E0E7EDF0E00C94F2296C016F
:1001B00080E2E82EF12C00E010E020E030E040E0AA
:1001C00050E0CE0101960E94310FFE01B1969E01D2
:1001D0002F5B3F4F1192E217F307E1F7BE016F5F0C
:1001E0007F4FC6010E944D1DC05CDF4FE8E00C94BC
:1001F0000E2ADC01FB0180E02D919191291305C0AD
:100200008F5F8031C9F781E0089580E00895A0E410
:10021000B0E0EDE0F1E00C94F0295C016B01BA0173
:1002200090E2E92EF12C00E010E020E030E040E028
:1002300050E0C6010E94211EB601605E7F4FCE01D4
:1002400001960E94D100BE016F5F7F4FCB010E94DB
:10025000B302BE016F5F7F4FCB010E94D10024E249
:1002600032E044E552E0BE016F5F7F4FCB010E9458
:10027000791BBE016F5F7F4FC5010E947C12C05C7D
:10028000DF4FEAE00C940C2AAAE4B0E0EAE4F1E0E3
:100290000C94E82923969FAF8EAF239729967FAFC2
:1002A0006EAF299725965FAF4EAF259716012701B0
:1002B000380149012796BFAEAEAE27972DB73EB79E
:1002C0002B963FAF2EAF2B97C601805C9F4F281B0C
:1002D000390B0FB6F8943EBF0FBE2DBF8DB79EB73A
:1002E00001965C0130E2E32EF12C00E010E020E00A
:1002F00030E040E050E027966EAD7FAD27970E943A
:10030000310F650190E2C90ED11C71018201930188
:10031000A40125966EAD7FAD2597C6010E94310FD1
:100320009101A201B301C401A0E20E941F2A790138
:100330008A019B01AC01B501CE0101960E94211EEC
:10034000BE016F5F7F4F23968EAD9FAD23970E94B6
:100350004D1D24E232E044E552E023966EAD7FADC0
:100360002397C5010E94791BB50123968EAD9FADE1
:1003700023970E947C1240E2E42EF12C00E010E072
:1003800020E030E040E050E023966EAD7FAD239753
:10039000C5010E94310F20E030E040E050E0299696
:1003A0006EAD7FAD2997C6010E94310F71018201A8
:1003B0009301A40125966EAD7FAD2597C501805CA4
:1003C0009F4F0E94310F9101A201B301C401A0E42B
:1003D0000E941F2A79018A019B01AC01B501C50168
:1003E0000E94211EF501709680E190E01192019625
:1003F00080349105D9F727962EAD3FAD2797205E23
:100400003F4FA501BE016F5F7F4F23968EAD9FAD1D
:1004100023970E94F91D20E1E22EF12C00E010E06C
:1004200020E030E040E050E0B50123968EAD9FAD76
:10043000239780960E94310F2B962EAD3FAD2B97C0
:100440000FB6F8943EBF0FBE2DBFC65BDF4FE2E193
:100450000C94042AA6E4B0E0E0E3F2E00C94E8296E
:100460005C0125967FAF6EAF2597170128013901F2
:100470004A0186012DB73EB727963FAF2EAF27978B
:10048000C701805C9F4F281B390B0FB6F8943EBF05
:100490000FBE2DBF8DB79EB701966C01B5010E94AE
:1004A000E9129801205E3F4F23963FAF2EAF23976E
:1004B0007901960144E252E064E572E0CE010196D2
:1004C0000E94B61BBE016F5F7F4FC6010E947C1267
:1004D00050E2E52EF12C00E010E020E030E040E0BA
:1004E00050E0B501C60180960E94310F7101820172
:1004F0009301A40125966EAD7FAD2597C601805C62
:100500009F4F0E94310F9101A201B301C401A0E4E9
:100510000E941F2A79018A019B01AC01B601CE011C
:1005200001960E94211EFE0131962396AEADBFAD0D
:100530002397CE01419631912D91321312C0E817C5
:10054000F907C9F781E027962EAD3FAD27970FB683
:10055000F8943EBF0FBE2DBFCA5BDF4FE2E10C94A3
:10056000042A80E0F0CFDC019096FB017F9640E00A
:1005700030813295307F3E93229122952F70232B2C
:100580002C934F5F4F31A1F7FB0120812295207FF3
:10059000FC0120830895A0E2B0E0E1EDF2E00C94CC
:1005A000F6298C01CE0101960E94C106BE016F5F43
:1005B0007F4FC8010E94E40DA096E4E00C94122A3B
:1005C000A0E2B0E0E6EEF2E00C94F6298C01CE0158
:1005D00001960E94180BBE016F5F7F4FC8010E94F9
:1005E000E40DA096E4E00C94122AA0E5B0E0EBEF55
:1005F000F2E00C94F4298C017B01CE0101960E945B
:10060000180BBE016F5F7F4FCE018F5B9F4F0E9423
:10061000E40DA701BE016F5B7F4FCE0101960E94E2
:10062000C106BE016F5F7F4FCE01C1960E94E40DEF
:10063000BE016F5C7F4FCE0101960E94180BBE0178
:100640006F5F7F4FCE0181960E94E40DBE016F5D0A
:100650007F4FCE0101960E94180BBE016F5F7F4F46
:10066000CE0181960E94E40DAE014F5C5F4FBE014A
:100670006F5D7F4FCE0101960E94C106BE016F5F84
:100680007F4FCE01C1960E94E40DBE016F5C7F4F8B
:10069000CE0101960E94180BBE016F5F7F4FCE0105
:1006A00081960E94E40DA701BE016F5D7F4FCE01D0
:1006B00001960E94C106BE016F5F7F4FCE018196F9
:1006C0000E94E40DBE016F5D7F4FCE0101960E9436
:1006D000180BBE016F5F7F4FC8010E94E40D54E00C
:1006E000F52EB801CE0101960E94180BBE016F5F76
:1006F0007F4FC8010E94E40DFA9499F7AE014F5D57
:100700005F4FB801CE0101960E94C106BE016F5F26
:100710007F4FCE0181960E94E40DBE016F5D7F4F39
:10072000CE0101960E94180BBE016F5F7F4FC8017A
:100730000E94E40D49E0F42EB801CE0101960E941A
:10074000180BBE016F5F7F4FC8010E94E40DFA9441
:1007500099F7AE014F5D5F4FB801CE0101960E943F
:10076000C106BE016F5F7F4FCE0181960E94E40DEE
:10077000BE016F5D7F4FCE0101960E94180BBE0136
:100780006F5F7F4FC8010E94E40D33E1F32EB80183
:10079000CE0101960E94180BBE016F5F7F4FC8010A
:1007A0000E94E40DFA9499F7AE014F5D5F4FB801D6
:1007B000CE0101960E94C106BE016F5F7F4FCE0140
:1007C00081960E94E40DBE016F5D7F4FCE010196C0
:1007D0000E94180BBE016F5F7F4FC8010E94E40D9D
:1007E00027E2F22EB801CE0101960E94180BBE013D
:1007F0006F5F7F4FC8010E94E40DFA9499F7AE0134
:100800004F5D5F4FB801CE0101960E94C106BE0147
:100810006F5F7F4FC8010E94E40D98E2F92EB80186
:10082000CE0101960E94180BBE016F5F7F4FC80179
:100830000E94E40DFA9499F7AE014F5D5F4FB80145
:10084000CE0101960E94C106BE016F5F7F4FC801B5
:100850000E94E40D84E0F82EB801CE0101960E94BA
:10086000180BBE016F5F7F4FC8010E94E40DFA9420
:1008700099F7AE014F5C5F4FB801CE0101960E941F
:10088000C106BE016F5F7F4FC8010E94E40DB80131
:10089000CE0101960E94180BBE016F5F7F4FC80109
:1008A0000E94E40DAE014F5B5F4FB801CE0101968F
:1008B0000E94C106BE016F5F7F4FCE0181960E94EC
:1008C000E40DBE016F5D7F4FCE0101960E94180BB3
:1008D000BE016F5F7F4FCE0181960E94E40DAE0195
:1008E0004F5D5F4FB801CE0101960E94C106BE0167
:1008F0006F5F7F4FC8010E94E40DC05BDF4FE6E0F1
:100900000C94102A8F929F92AF92BF92CF92DF9257
:10091000EF92FF920F93CF93DF93CDB7DEB7E097BF
:100920000FB6F894DEBF0FBECDBF6C017B015A013C
:100930004901B901CE0101960E94180BBE016F5FFB
:100940007F4FCE0181960E94E40DA501BE016F5D2F
:100950007F4FCE0101960E94C106BE016F5F7F4F9F
:10096000CE0181960E94E40DBE016F5D7F4FC601EE
:100970000E94F502A501B601CE0101960E94C106B2
:10098000BE016F5F7F4FCE0181960E94E40DA401EE
:10099000BE016F5D7F4FCE0101960E94C106BE0170
:1009A0006F5F7F4FC7010E94E40DB701C7010E942E
:1009B000F50EA701B601CE0101960E94C106BE0147
:1009C0006F5F7F4FC6010E94E40DF7018081802791
:1009D00080FF04C0B701C7010E94900EE0960FB6D9
:1009E000F894DEBF0FBECDBFDF91CF910F91FF9086
:1009F000EF90DF90CF90BF90AF909F908F90089531
:100A0000A0E5B0E0E6E0F5E00C94F3298C017B0171
:100A1000CE0101960E94180BBE016F5F7F4FCE0181
:100A20008F5B9F4F0E94E40DA701BE016F5B7F4F5C
:100A3000CE0101960E94C106BE016F5F7F4FCE01BD
:100A40008F5B9F4F0E94E40DBE016F5B7F4FCE0115
:100A500001960E94180BBE016F5F7F4FCE01C196B9
:100A60000E94E40DBE016F5C7F4FCE0101960E9493
:100A7000180BBE016F5F7F4FCE01C1960E94E40D3F
:100A8000AE014F5B5F4FBE016F5C7F4FCE010196A1
:100A90000E94C106BE016F5F7F4FCE018F5B9F4FEB
:100AA0000E94E40DBE016F5B7F4FCE0101960E9454
:100AB000180BBE016F5F7F4FCE018F5B9F4F0E946F
:100AC000E40DA701BE016F5B7F4FCE0101960E942E
:100AD000C106BE016F5F7F4FCE018F5B9F4F0E94AB
:100AE000E40DBE016F5B7F4FCE0101960E94180B93
:100AF000BE016F5F7F4FCE01C1960E94E40DB4E04E
:100B0000DB2EBE016F5C7F4FCE0101960E94180B59
:100B1000BE016F5F7F4FCE01C1960E94E40DDA9453
:100B200081F7AE014F5B5F4FBE016F5C7F4FCE011F
:100B300001960E94C106BE016F5F7F4FCE01819674
:100B40000E94E40DBE016F5D7F4FCE0101960E94B1
:100B5000180BBE016F5F7F4FCE01C1960E94E40D5E
:100B6000A9E0DA2EBE016F5C7F4FCE0101960E9494
:100B7000180BBE016F5F7F4FCE01C1960E94E40D3E
:100B8000DA9481F7AE014F5D5F4FBE016F5C7F4F1E
:100B9000CE0101960E94C106BE016F5F7F4FCE015C
:100BA00081960E94E40DBE016F5D7F4FCE010196DC
:100BB0000E94180BBE016F5F7F4FCE01C1960E944D
:100BC000E40DF3E1DF2EBE016F5C7F4FCE01019695
:100BD0000E94180BBE016F5F7F4FCE01C1960E942D
:100BE000E40DDA9481F7AE014F5D5F4FBE016F5C9B
:100BF0007F4FCE0101960E94C106BE016F5F7F4FFD
:100C0000CE0181960E94E40DBE016F5D7F4FCE0143
:100C100001960E94180BBE016F5F7F4FCE01C196F7
:100C20000E94E40DE7E2DE2EBE016F5C7F4FCE0135
:100C300001960E94180BBE016F5F7F4FCE01C196D7
:100C40000E94E40DDA9481F7AE014F5D5F4FBE0163
:100C50006F5C7F4FCE0101960E94C106BE016F5F9F
:100C60007F4FC8010E94E40DB801CE0101960E9499
:100C7000180BBE016F5F7F4FCE01C1960E94E40D3D
:100C800077E2D72EBE016F5C7F4FCE0101960E94A6
:100C9000180BBE016F5F7F4FCE01C1960E94E40D1D
:100CA000DA9481F7AE014F5D5F4FBE016F5C7F4FFD
:100CB000CE0101960E94C106BE016F5F7F4FC80141
:100CC0000E94E40DB801CE0101960E94180BBE01EE
:100CD0006F5F7F4FCE01C1960E94E40D64E0D62E77
:100CE000BE016F5C7F4FCE0101960E94180BBE01C2
:100CF0006F5F7F4FCE01C1960E94E40DDA9481F7B9
:100D0000AE014F5B5F4FBE016F5C7F4FCE0101961E
:100D10000E94C106BE016F5F7F4FCE018F5B9F4F68
:100D20000E94E40DBE016F5B7F4FCE0101960E94D1
:100D3000180BBE016F5F7F4FCE01C1960E94E40D7C
:100D4000BE016F5C7F4FCE0101960E94180BBE0161
:100D50006F5F7F4FCE01C1960E94E40DA701BE01D7
:100D60006F5C7F4FCE0101960E94C106BE016F5F8E
:100D70007F4FC8010E94E40DC05BDF4FE7E00C9499
:100D80000F2A2F923F924F925F926F927F928F9293
:100D90009F92AF92BF92CF92DF92EF92FF920F930A
:100DA0001F93CF93DF93FC01EA01DB014427552712
:100DB0008A012D903D904D905D90688079808A8069
:100DC0009B80289C6001269C5001279CB00CC11C74
:100DD000D51E399C7001299C9001369CB00CC11C19
:100DE000D21E351F379CC00CD11C351F499CE30E09
:100DF000F01C011D489C9001469CC00CD11CE21EB9
:100E0000351F389CD00CE11C351F599CF30E001D7A
:100E1000111D579C9001479CD00C211D351F569CDD
:100E2000D00C211D351F589CE20E031E151EF00C20
:100E3000011D151FA082B182C282D3825A012D9159
:100E40003D914D916C817D818E819F81269FE00C2B
:100E5000F11C051FB51E279FF00C011DB51E369F06
:100E6000F00C011D1B1DA51E289F000D111DA51EA8
:100E7000379F000D111DA51E469F000D111DA51EBB
:100E8000BB24299F100DA11CB51E389F100DA11C5D
:100E9000B51E479F100DA11CB51E221A330A440A25
:100EA0002D91520A0008661A770A880A990A1108D1
:100EB000202430244024502461247124812491244E
:100EC00020183008400850086118710881089108FE
:100ED000012400FA269F100DA11CB51E399F33274F
:100EE000A00CB11C351F489FA00CB11C351F279FBB
:100EF000A00CB11C351F499F4427B00C311D451F64
:100F0000289FB00C311D451F299F300D411D88279A
:100F100099272227269CB001279C700D811D369CA5
:100F2000700D811D951F289C800D911D251F379CDC
:100F3000800D911D251F469C800D911D251F299C0C
:100F40002224900D211D251E389C900D211D251E4B
:100F5000479C900D211D251E569C900D211D251E80
:100F6000399C3324200D211C351E489C200D211C4A
:100F7000351E579C200D211C351E499C4424200CF5
:100F8000311C451E589C200C311C451E599C300CB0
:100F9000411C608071806E0C7F1CC01ED11EEA1C3B
:100FA000FB1C031F141F882480F88A94581D052EEB
:100FB000059468257825882598252825282438240F
:100FC0004824880C661E771EC81ED91EE21EF21C1D
:100FD000031D141DA51EB01C301D401D64827582AA
:100FE000C682D782B701C8012A2D5B2DCC24DD240F
:100FF000760186012D903D904D905D9068847984B6
:101000008A849B84269C5001279CB00CC11C369C72
:10101000B00CC11CD11E289CC00CD11CE11E379CF9
:10102000C00CD11CE11E469CC00CD11CE11E299CA9
:10103000D00CE11CF11E389CD00CE11CF11E479C29
:10104000D00CE11CF11E569CD00CE11CF11E6A0D67
:10105000608B7B1D718B8C1D828B9D1D938BA21EC3
:10106000A48AB51EB58AC31ED41E00080F92442759
:101070005527399CE00CF11C051F489CE00CF11C25
:10108000051F579CE00CF11C051F499CF00C011D2D
:10109000151F589CF00C011D151F599C000D111DAA
:1010A0005A012D913D914D916C857D858E859F8551
:1010B000269FE00CF11C051FB51E279FF00C011D9B
:1010C000B51E369FF00C011D1B1DA51E289F000D8F
:1010D000111DA51E379F000D111DA51E469F000D59
:1010E000111DA51EBB24299F100DA11CB51E389FE4
:1010F000100DA11CB51E479F100DA11CB51E221A74
:10110000330A440A2D91520A0008661A770A880A9F
:10111000990A110820243024402450246124712489
:101120008124912420183008400850086118710863
:1011300081089108012400FA269F100DA11CB51EFC
:10114000399F3327A00CB11C351F489FA00CB11C40
:10115000351F279FA00CB11C351F499F4427B00C99
:10116000311D451F289FB00C311D451F299F300D93
:10117000411D882799272227269CB001279C700DA6
:10118000811D369C700D811D951F289C800D911D21
:10119000251F379C800D911D251F469C800D911D9C
:1011A000251F299C2224900D211D251E389C900D61
:1011B000211D251E479C900D211D251E569C900D1E
:1011C000211D251E399C3324200D211C351E489CD1
:1011D000200D211C351E579C200D211C351E499CBD
:1011E0004424200C311C451E589C200C311C451EEB
:1011F000599C300C411C648875886E0C7F1CC01E85
:10120000D11EEA1CFB1C031F141F551F0F900194D5
:10121000E00C0024F01C001D101D882480F88A9426
:10122000581D052E0594682578258825982528259C
:10123000282438244824880C661E771EC81ED91E10
:10124000E21EF21C031D141DA51EB01C301D401D06
:10125000648A758AC68AD78AE08EF18E028F138FD0
:10126000A48EB58E368F478F50972D903D904D9020
:101270005D902D913D914D915D91AD90BD90CD9042
:10128000DD90ED90FD900D911C912A183B084C08C3
:101290005D082E093F09400B510B000868807980DA
:1012A0008A809B806C817D818E819F81A884B98496
:1012B000CA84DB84EC84FD840E851F856A187B0854
:1012C0008C089D086E097F09800B910B1108202462
:1012D00030244024502420253025402550256124E9
:1012E000712481249124612571258125912520185F
:1012F0003008400850082009300940095009611899
:101300007108810891086109710981099109AA2769
:10131000BB2701240F928D01289C6001269C50015F
:10132000279CB00CC11CDA1E399C7001299CE0017D
:10133000369CB00CC11CDC1EDA1F379CC00CD11CC3
:10134000DA1F499CED0EF01C011D489CE001469CF3
:10135000C00CD11CEC1EDA1F389CD00CE11CDA1F2B
:10136000599CFD0E001D111D579CE001479CD00C9F
:10137000C11DDA1F569CD00CC11DDA1F589CEC0E03
:101380000D1E1A1EF00C011D1A1F221A330A440AE0
:10139000550A0008661A770A880A990A1108202453
:1013A0003024402450246124712481249124201865
:1013B000300840085008611871088108910801241C
:1013C00000FA289FE001269FE00CF11C0C1FDA1F99
:1013D000279FF00C011DDA1F399F1D0FA01DB11DA5
:1013E000299FE001369FF00C011D1C1F2227D21FF0
:1013F000379F000D111DD21F499FAD0FB01D222731
:10140000211D489FE001469F000D111DAC1F0024C7
:10141000D01D389F100DA11D3327D31F599FBD0F1D
:10142000201D9927911D579FE001479F100DC11D59
:10143000D31F569F100DC11DD31F589FAC0F0D1EFB
:10144000131EB00D211D931F289CB001269CA001E6
:10145000279C500D611D731F399C802D022C212C5F
:10146000099CE001369C500D611D7C1FD31F379CE9
:10147000600D711DD31F499C8D0F201C311D489C90
:10148000E001469C600D711D8C1F0024D01D389C0E
:10149000700D811D3324D31D599C2D0E301D9924B0
:1014A000911C579CE001479C700DC11DD31D569C9B
:1014B000700DC11DD31D589C8C0F0D1E131C200CCC
:1014C000311D931C25013601AE0CBF1CC01ED11E60
:1014D000EA1EFB1E021F191F002400F80A94301C8C
:1014E000132C159440255025602570258025202437
:1014F00030259024000CA41EB51EC61ED71EE81E63
:10150000F21C031F191DA31DB11D211D911D392F93
:101510004081518162817381848195818680978029
:101520000F900094102C15944024502460247024B3
:10153000A024B024C024D024E024F02400251025C9
:10154000A025B02520253025C02DCC0F441D551DCC
:10155000661D771D8A1D9B1D8C1C9D1CCC27CC1FD6
:1015600020883188420D531D40875187A101228870
:101570003388621D731D62877387B10124883588A3
:10158000821D931D84879587C10126883788821C18
:10159000931C8686978641012224221CC6954E1DE7
:1015A0005F1D601F711F8A1F9B1F821E931E0C1ED2
:1015B0001C1E408C518C628C738CA48CB58CC68C98
:1015C000D78C2694441D551D661D771D8A1D9B1DB5
:1015D0008C1C9D1C021C121C408B518B628B738BCC
:1015E000848B958B868A978A400C511C611C711CD8
:1015F000A11CB11CC11CD11C408E518E628E738EF9
:10160000A48EB58EC68ED78E1124DF91CF911F91F7
:101610000F91FF90EF90DF90CF90BF90AF909F9091
:101620008F907F906F905F904F903F902F90089594
:101630002F923F924F925F926F927F928F929F92E2
:10164000AF92BF92CF92DF92EF92FF920F931F93D0
:10165000CF93DF93FC01EB01288039804A805B80C7
:101660006C807D808E809F80AA27BB27239C5001A1
:101670006D01249CB00CC11C7D01259CC00CD11CAB
:10168000349CC00CD11CEA1E269CD00CE11C359C5D
:10169000D00CE11CFA1E8D01279CE00CF11C0A1FE6
:1016A000369CE00CF11C0A1F459CE00CF11C0A1F43
:1016B000289CF00C011D1A1F379CF00C011D1A1FED
:1016C000469CF00C011D1A1F9D01299C000D111D47
:1016D0002A1F389C000D111D2A1F479C000D111D4B
:1016E0002A1F569C000D111D2A1FAA1CBB1CCC1CB6
:1016F000DD1CEE1CFF1C001F990B229C0082212C7C
:10170000339CA001449CB001559CA20CA182B41E44
:10171000B282C51EC382D61ED482E71EE582F01CAB
:10172000F682011D07839A0B399C100D211D3A1F6B
:10173000489C100D211D3A1F579C100D211D3A1F6A
:10174000AD01499C200D311D4A1F589C200D311DB3
:101750004A1F679C200D311D4A1F599C300D411DA9
:101760005A1F689C300D411D5A1FBD01699C400DD8
:10177000511D6A1F789C400D511D6A1F799C500DA8
:10178000611D7A1F8827899C600D711D8A1F111F9A
:10179000221F331F441F551F661F771F881F669C1B
:1017A0009195090E1A1E5001779C6001889C70016A
:1017B000999C10011A0D2B1D3C1D4D1D5E1D6F1DAA
:1017C000721D831D288439844A845B846C847D84E3
:1017D0008E849F84239C50016D01249CB00CC11CFD
:1017E0007D01259CC00CD11C349CC00CD11CEA1E70
:1017F000269CD00CE11C359CD00CE11CFA1E0A2F53
:10180000279CE00CF11C0A1F369CE00CF11C0A1FFF
:10181000459CE00CF11C0A1F289CF00C011DAB1F1D
:10182000379CF00C011DAB1F469CF00C011DAB1F3B
:10183000299C000DA11DBB0B389C000DA11DB040C3
:10184000479C000DA11DB040569C000DA11DB0404D
:10185000B195AA0CBB1CCC1CDD1CEE1CFF1C001F90
:10186000990BA20EB31EC41ED51EE61EF71E081F3E
:101870009040229C9001339CA001449CB001559C57
:10188000210F208BA31EA18AB41EB28AC51EC38A53
:10189000D61ED48AE71EE58AF01CF68A011D078B46
:1018A000904011273327399CA00DB11D311F489C52
:1018B000A00DB11D311F579CA00DB11D311F412F2F
:1018C000499CB00D311D411F589CB00D311D411F69
:1018D000679CB00D311D411F512F599C300D411D8A
:1018E000511F689C300D411D511F612F699C400D97
:1018F000511D611F789C400D511D611F712F799CF6
:10190000500D611D711F8827899C600D711D811FFD
:10191000AA1FBB1F331F441F551F661F771F881F39
:10192000669C9195090E111E5001779C6001889C60
:101930007001999CAA0DA08FBB1DB18F3C1D328FE9
:101940004D1D438F5E1D548F6F1D658F701D768FEB
:10195000811D878FA880B980CA80DB80EC80FD80E4
:101960000E811F812A183B084C085D086E087F080D
:10197000800A910ABB27AA0B2A263A264A265A260B
:101980006A267A268A269A26A1952A0E3B1E4B1E87
:101990005B1E6B1E7B1E8B1E9B1EAA27239C500169
:1019A0006D01249CB00CC11C7D01259CC00CD11C78
:1019B000349CC00CD11CEA1E269CD00CE11C359C2A
:1019C000D00CE11CFA1E8D01279CE00CF11C0A1FB3
:1019D000369CE00CF11C0A1F459CE00CF11C0A1F10
:1019E000289CF00C011D1A1F379CF00C011D1A1FBA
:1019F000469CF00C011D1A1F9D01299C000D111D14
:101A00002A1F389C000D111D2A1F479C000D111D17
:101A10002A1F569C000D111D2A1FAA1CBB1CCC1C82
:101A2000DD1CEE1CFF1C001F990B229CE001339C67
:101A3000A001449CB001559CAD0EB41EC51ED61E1F
:101A4000E71EF01C011D9A0B399C100D211D3A1F39
:101A5000489C100D211D3A1F579C100D211D3A1F47
:101A6000AD01499C200D311D4A1F589C200D311D90
:101A70004A1F679C200D311D4A1F599C300D411D86
:101A80005A1F689C300D411D5A1FBD01699C400DB5
:101A9000511D6A1F789C400D511D6A1F799C500D85
:101AA000611D7A1F8827899C600D711D8A1F111F77
:101AB000221F331F441F551F661F771F881F669CF8
:101AC0009195090E1A1E1001779C2001889C300107
:101AD000999C120D231D341D451D561D671D701D3B
:101AE000811D20883188428853886488758886885B
:101AF0009788C219A308B408C508D608E708F808EB
:101B000009090008D081DC1BD087D181DA09D1878F
:101B1000D281DB09D287D381DC09D387D481DD0967
:101B2000D487D581DE09D587D681DF09D687D781CD
:101B3000D00BD787210A320A430A540A650A760A6B
:101B4000870A980AAA0BA08CB18CC28CD38CE48C27
:101B5000F58C068D178D000C2A1C3B1C4C1C5D1C43
:101B60006E1C7F1C801E911E208A318A428A538AF5
:101B7000648A758A868A978A2227A21FBA2FB5950A
:101B8000AA0EBB1ECB1EDB1EEB1EFB1E0B1F1B1F5C
:101B9000A08EB18EC28ED38EE48EF58E068F178FF7
:101BA0001124DF91CF911F910F91FF90EF90DF9063
:101BB000CF90BF90AF909F908F907F906F905F90ED
:101BC0004F903F902F9008952227DB01FC01CE011A
:101BD000EB011F963C911F9760966F85660F121E52
:101BE000360F121E330F111C36955D917727510D5C
:101BF000721F6991660F721F560F721F51935D918C
:101C00006991660F221F570F7727271F560F271F2F
:101C100051935D916991660F771F520F2227721FB2
:101C2000560F721F51935D916991660F221F570FD6
:101C30007727271F560F271F51935D916991660FD4
:101C4000771F520F2227721F560F721F51935D91FB
:101C50006991660F221F570F7727271F560F271FDF
:101C600051935D916991660F771F520F2227721F62
:101C7000560F721F51935D916991660F221F570F86
:101C80007727271F560F271F51935D916991660F84
:101C9000771F520F2227721F560F721F51935D91AB
:101CA0006991660F221F570F7727271F560F271F8F
:101CB00051935D916991660F771F520F2227721F12
:101CC000560F721F51935D916991660F221F570F36
:101CD0007727271F560F271F51935D916991660F34
:101CE000771F520F2227721F560F721F51935D915B
:101CF0006991660F221F570F7727271F560F271F3F
:101D000051935D916991660F771F520F2227721FC1
:101D1000560F721F5193370F3083EC011124089531
:101D20009F92AF92BF92CF92DF92EF92FF920F936A
:101D30001F93DB01FC01AA24BB2465017501850109
:101D40009501A501B501C5019D90A9189D90B908FF
:101D50009D90C9089D90D9089D90E9089D90F9082B
:101D60009D9009099D9019099D9029099D90390917
:101D70009D9049099D9059099D9069099D90790907
:101D80009D9089099D909909111C110CA11811248D
:101D9000B108C108D108E108F108010911092109B8
:101DA0003109410951096109710981099109111C20
:101DB000110CA1181124A192B192C192D192E19279
:101DC000F192019311932193319341935193619334
:101DD0007193819390831F910F91FF90EF90DF900B
:101DE000CF90BF90AF909F900895DB01FC01332707
:101DF0001F962C911F97220F331F26955D91530F2D
:101E00004D91411D41834D91411D42834D91411D95
:101E100043834D91411D44834D91411D45834D9117
:101E2000411D46834D91411D47834D91411D408782
:101E30004D91411D41874D91411D42874D91411D5D
:101E400043874D91411D44874D91411D45874D91DB
:101E5000411D4687211D220F511D2695278750833E
:101E60000895A0E0B0E0E7E3FFE00C94E829F82F44
:101E7000E92FD62EB72FB901CA019701A801AFEFFC
:101E80000E941F2A19012A013B014C01CD2DDB2F95
:101E9000AF2FBE2FE0E0F0E089918D9331969F0146
:101EA00040E050E060E070E080E090E051016201CD
:101EB000730184010E94342A79F370F3CDB7DEB741
:101EC000E2E10C94042AA0E8B0E0E9E6FFE00C941B
:101ED000F2296C017B018B01005F1F4FA80164EDAB
:101EE00072E0CE0101960E94CC23A80164EB72E05F
:101EF000CE0141960E94CC23A80164EC72E0CE0191
:101F000081960E94CC23A80164EA72E0CE01C196BA
:101F10000E94CC23A70164EE72E0CE018F5B9F4F3D
:101F20000E945A2344ED52E0BE016F5B7F4FCE0109
:101F30008F599F4F0E945A2344EC52E0BE016F5BC1
:101F40007F4FCB010E945A23AE014F5F5F4FBE010E
:101F50006F5B7F4FCB010E94CB02AE014F5D5F4FA5
:101F6000BE016F597F4FCB010E94CB02A70164EDE8
:101F700072E0CE018F5A9F4F0E945A23AE014F5EEE
:101F80005F4FBE016F5A7F4FCB010E94CB02AE0163
:101F90004F5E5F4FBE016F5A7F4FCB010E945A23A5
:101FA000A70164EC72E0CE018F589F4F0E945A2324
:101FB000AE014F5C5F4FBE016F587F4FCB010E9457
:101FC000CB02AE014F5C5F4FBE016F587F4FCB011C
:101FD0000E945A23A801BE016F5B7F4FCB010E9474
:101FE000CB02A801BE016F5A7F4FCB010E94CB02EA
:101FF000A801BE016F597F4FCB010E94CB02A801FF
:10200000BE016F587F4FCB010E94CB02B701605DCC
:102010007F4FCE0101960E94E002AE014F5F5F4FFD
:10202000BE016F5B7F4FCB010E94CC23AE014F5F9F
:102030005F4FBE016F5A7F4FCB010E94CC23AE0190
:102040004F5F5F4FBE016F597F4FCB010E94CC2382
:10205000AE014F5F5F4FBE016F587F4FCB010E94B3
:10206000CC234AE254E0BE016F5B7F4FCB010E945C
:102070006D22BE016F5B7F4FC6010E94900E48E249
:1020800054E0BE016F5A7F4FC60140960E946D22F8
:1020900046E254E0BE016F597F4FC60180960E9410
:1020A0006D2244E254E0BE016F587F4FC601C096D6
:1020B0000E946D22C058DF4FE8E00C940E2AA0E980
:1020C000B0E0E5E6F0E10C94EC296C017B018A01BB
:1020D00044E952E0BA01CE0101960E945A23AE01B2
:1020E0004F5F5F4FB701CE0141960E94CC23AE01F6
:1020F0004F5F5F4FB801CE018F579F4F0E94CC2397
:1021000044E952E0BE016F5E7F4FCE01C1960E944E
:102110005A2344E952E0BE016F5C7F4FCB010E941D
:10212000CB02B701605F7F4FAE014F5C5F4FCA01CA
:102130000E94CC2344E952E0BE016F577F4FCE018D
:102140008F5B9F4F0E945A2344E952E0BE016F5BB0
:102150007F4FCB010E94CB02B801605F7F4FAE0181
:102160004F5B5F4FCA010E94CC23470180E2880E7B
:10217000911C44E952E0B401CE018F5A9F4F0E9456
:10218000CB02B701605D7F4FAE014F5A5F4FCA016E
:102190000E94CC23380180E2680E711C44E952E0B1
:1021A000B301CE018F599F4F0E94CB02B801605DF1
:1021B0007F4FAE014F595F4FCA010E94CC23AE0141
:1021C0004F575F4FBE016F5E7F4FC6010E94CC2309
:1021D000760180E1E80EF11CAE014F5B5F4FBE015E
:1021E0006F5C7F4FC7010E94CC23A601BE016F57D1
:1021F0007F4FCE0181960E94CB02A701BE016F5D89
:102200007F4FCB010E94CC238601005E1F4FAE01A1
:102210004F595F4FBE016F5A7F4FC8010E94CC23B8
:10222000560180E3A80EB11CA801B601C5010E94A9
:10223000CB02AE014F5D5F4FB801C8010E94CB02D7
:10224000A701BE016F5D7F4FCB010E94CB02AE01A3
:102250004F5B5F4FB601CA010E94CB02A301B401DC
:10226000CE018F589F4F0E94CC23AE014F585F4F35
:10227000B701C7010E94CB02A701B501C5010E94A9
:10228000CC23AE014F5B5F4FBE016F587F4FCB0138
:102290000E94CB02AE014F585F4FB801C8010E94A7
:1022A000CC23A601BE016F5B7F4FCB010E94CB0206
:1022B000AE014F5B5F4FBE016F5D7F4FC7010E9454
:1022C000CC23A501B701CE018F589F4F0E94CB02AE
:1022D000BE016F587F4FCE018F5B9F4F0E9400055C
:1022E000A701BE016F5B7F4FCE018F589F4F0E94A9
:1022F000CB02A701BE016F587F4FCE018F599F4F70
:102300000E94CB02A801BE016F587F4FC8010E94F6
:10231000CB02A801B601CE018F589F4F0E945A23CD
:10232000A801BE016F587F4FC6010E945A23A80121
:10233000BE016F587F4FC7010E94CB02BE016F598B
:102340007F4FCE018F589F4F0E94E002AE014F5841
:102350005F4FB601C6010E94CC23AE014F575F4FBD
:10236000BE016F5E7F4FCA010E945A23AE014F59D2
:102370005F4FBE016F577F4FCB010E94CB02A4017C
:10238000BE016F577F4FCB010E94CC23A301BE013A
:102390006F577F4FCB010E94CC23AE014F595F4F47
:1023A000BE016F577F4FCB010E94CB02AE014F574A
:1023B0005F4FB701C7010E945A23B501C5010E94B2
:1023C000E002AE014F5B5F4FB501C5010E94CB0239
:1023D000A601BE016F5E7F4FCB010E94CC23A701F7
:1023E000BE016F5C7F4FCB010E94CC23A801BE01D0
:1023F0006F5C7F4FCE018F5B9F4F0E94CB02A70186
:10240000BE016F5E7F4FCE0181960E94CB02AE016E
:102410004F5D5F4FBE016F5B7F4FCB010E94CC23AE
:10242000A601BE016F5E7F4FCE0181960E94CB0256
:10243000AE014F5D5F4FBE016F5C7F4FCB010E94CD
:10244000CC23A801BE016F5E7F4FCE0181960E9412
:10245000CB02AE014F5D5F4FBE016F5C7F4FCB0182
:102460000E945A23A501BE016F5C7F4FC8010E94E4
:10247000CB02A501BE016F5B7F4FC5010E94CB025D
:10248000A401B801C8010E94CC23AE014F5A5F4F8E
:10249000B501C5010E94CC23AE014F5F5F4FB6016D
:1024A000C6010E945A2344E952E0B601CE010196CA
:1024B0000E94CC2344E952E0BE016F5F7F4FCB0105
:1024C0000E94CB02AE014F5F5F4FB701C7010E9470
:1024D0005A2344E952E0B801CE0101960E94CB0292
:1024E000AE014F5F5F4FB501C5010E945A23C0572F
:1024F000DF4FEEE00C94082AA0E0B0E0E2E8F2E161
:102500000C94EE296C018B01EB01E096AE010E9468
:10251000CB02480120E2820E911C580180E1A80EF6
:10252000B11C7601E0E1EE0EF11CA401B501C7017A
:102530000E94CB02A701B601C6010E94CC23A401D0
:10254000B601C6010E94CB02BE01C7010E94E00293
:10255000A701B601C6010E94CC23A601B601C6019F
:102560000E945A23A601B601C6010E945A23B60151
:10257000C6010E94F50EF6018081F0E88F9FC00130
:102580001124F80197859827F6019787E80120E044
:1025900030E0899181932F5F3F4F2F303105C9F78C
:1025A000F80180A1F0E88F9FC0011124F801978DF8
:1025B0009827F601978FF501D701015E1F4F819192
:1025C0008D93E017F107D9F7CDB7DEB7ECE00C94A7
:1025D0000A2AA0E4B0E0EFEEF2E10C94EE297C01CF
:1025E000DC01FB0120E030E081918D932F5F3F4FB4
:1025F00020313105C9F7570180E1A80EB11CFB015C
:102600007096D501605E7F4F81918D93E617F70735
:10261000D9F7F7010785878D182F111F1127111F73
:10262000902F9F7797878F77878F4701F0E28F0EE4
:10263000911CB701C4010E94E002A401B501CE01C2
:1026400081960E94CC23AE014F5D5F4FB501CE0154
:10265000C1960E945A23670180E3C80ED11C44E250
:1026600053E0BE016F5C7F4FC6010E94CB02A70101
:1026700064E173E0CE0101960E94CB0244E053E096
:10268000BE016F5F7F4FCB010E94CC2344E053E03B
:10269000BE016F5F7F4FCB010E94CC23AE014F5F25
:1026A0005F4FB601C6010E945A23A501B601C601BB
:1026B0000E94CB02BE016F5C7F4FCB010E94900E47
:1026C000A501BE016F5C7F4FC4010E94CC23A50110
:1026D000B401CE0101960E94CB0244EF52E0BE014C
:1026E0006F5F7F4FCB010E945A23A701BE016F5F2E
:1026F0007F4FCB010E94CB02AE014F5F5F4FB6010F
:10270000C6010E945A23A601B601C6010E945A239F
:10271000A501B401C4010E94CC2344E253E0B701F7
:10272000CE0101960E94CC23A701BE016F5F7F4FAF
:10273000CB010E94CB02AE014F5F5F4F64E173E0BB
:10274000CA010E945A23AE014F5F5F4FB501CA0113
:102750000E94CC23A501BE016F5F7F4FCB010E9479
:10276000CB0244EF52E0BE016F5F7F4FCB010E946E
:102770005A23BE016F5F7F4FCB010E94E002A4018C
:10278000B401C4010E945A23AE014F5F5F4FBA01EA
:10279000CA010E945A23AE014F5F5F4FB401CA01C4
:1027A0000E94CB02B601CE0141960E94E002AE012A
:1027B0004F5F5F4FBE016F5E7F4FCA010E94CC2307
:1027C000001F0027001F9401AE014F5F5F4FBA0149
:1027D000CE0141960E948204A601BE016F5F7F4F29
:1027E000CB010E94CC23AE014F5E5F4FBE016F5FF5
:1027F0007F4FC6010E94CB0244E153E0BE016F5CF3
:102800007F4FCE0101960E945A23A701BE016F5F40
:102810007F4FCB010E94CB02BE016F5D7F4FCE0187
:1028200041960E94900E44E253E0BE016F5E7F4FDE
:10283000CB010E94CB02AE014F5F5F4FBE016F5EC6
:102840007F4FCA010E94CC2344E053E0BE016F5F7A
:102850007F4FCB010E945A23A601BE016F5F7F4FBD
:10286000CB010E945A23AE014F5F5F4FBA01CE01E8
:1028700041960E945A23AE014F5E5F4FBA01CA01D2
:102880000E945A23BE016F5E7F4FCB010E94F5026A
:10289000AE014F5E5F4FBA01C4010E945A23AE01E0
:1028A0004F5F5F4FB401C4010E94CB02B401C40169
:1028B0000E94F50EF70180A18170811751F0BE01D1
:1028C0006F5E7F4FCB010E94900EB401C4010E9445
:1028D000900E44E153E0BE016F5D7F4FCB010E943B
:1028E000CC23A70164E273E0CE0101960E94CB02E3
:1028F000AE014F5D5F4FBE016F5F7F4FCB010E9406
:102900005A23A501BE016F5F7F4FCB010E94CB020E
:10291000A601B701C6010E94CB02AE014F5F5F4F17
:10292000B601C6010E945A2344EF52E0B601C60127
:102930000E945A23AE014F5E5F4FB601C6010E944E
:10294000CB02B401C4010E94F50EB601C6010E947B
:10295000F50EC05CDF4FECE00C940A2AA0E4B0E076
:10296000E4EBF4E10C94E8298C017A011901CE0121
:1029700001960E943F24B701C8010E943F24AE0186
:102980004F5F5F4FB801C8010E94CB02680180E130
:10299000C80ED11CAE014F5E5F4FB601C6010E944A
:1029A000CB02780180E2E80EF11CAE014F5D5F4F73
:1029B000B701C7010E94CB02280180E3480E511CD9
:1029C000AE014F5C5F4FB201C2010E94CB0242E3F5
:1029D00054E0B801C8010E946D2240E354E0B60102
:1029E000C6010E946D224EE254E0B701C7010E9469
:1029F0006D224CE254E0B201C2010E946D22B80186
:102A0000C8010E943F24B801C8010E94E002B6013B
:102A1000C6010E94E002B701C7010E94E002B201B4
:102A2000C2010E94E002310180E1680E711CA30125
:102A3000B801C8010E94CB02A101B601C6010E94E3
:102A4000CB02410180E3880E911CA401B701C701AC
:102A50000E94CB02510180E2A80EB11CA501B20177
:102A6000C2010E94CB02A301B101CE0101960E94D6
:102A7000CB02A401B501CE0141960E94CB02AE016A
:102A80004F5E5F4FB801C8010E94CB02AE014F5E9E
:102A90005F4FB601C6010E94CB02AE014F5F5F4F90
:102AA000B701C7010E94CB02AE014F5F5F4FB20179
:102AB000C2010E94CB02C05CDF4FE2E10C94042A09
:102AC000A0E4B0E0E6E6F5E10C94EE297C018B0190
:102AD0005B0180E2A80EB11C6B0180E1C80ED11C25
:102AE000A501B601CE0101960E94CB02480180E308
:102AF000880E911CA401BE016F5F7F4FCE014196ED
:102B00000E94CB02BE016F5E7F4FCE0181960E9474
:102B10000005A801BE016F5D7F4FCB010E94CB0273
:102B2000A401BE016F5D7F4FCE01C1960E94CB0212
:102B3000A501BE016F5C7F4FC7010E94CB02A601B9
:102B4000BE016F5C7F4FC70140960E94CB02AE0171
:102B50004F5D5F4FBE016F5F7F4FC70180960E9440
:102B6000CB02C05CDF4FECE00C940A2AA0E0B0E09E
:102B7000ECEBF5E10C94F029EC018B015B0180E1B9
:102B8000A80EB11C6E0180E3C80ED11CA501C601C0
:102B90000E94CB02780180E2E80EF11CA701B80187
:102BA000CE0180960E94CB02A701B501CE014096CE
:102BB0000E94CB02A701B601CE010E94CB02CDB785
:102BC000DEB7EAE00C940C2AA0E1B0E0EAEEF5E111
:102BD0000C94EC298C016B013B0180E1680E711CA7
:102BE000A30164E174E0C8010E94CB02A801B60110
:102BF000C8010E945A23460180E2880E911C780188
:102C000080E1E80EF11CA40164E074E0C7010E94B9
:102C1000CB02A801B701C8010E945A23560180E3E4
:102C2000A80EB11CA50164EF73E0C7010E94CB029E
:102C3000A801B701C8010E945A23A60164EE73E0FF
:102C4000C7010E94CB02005E1F4FA30164ED73E039
:102C5000C8010E94CB02A701B801C7010E945A23F4
:102C6000A40164EC73E0C8010E94CB02A701B80183
:102C7000C7010E945A23A50164EB73E0C8010E94BA
:102C8000CB02A701B801C7010E945A23A60164EA3A
:102C900073E0C8010E94CB02A30164E973E0CE0196
:102CA00001960E94CB02A801BE016F5F7F4FC80151
:102CB0000E945A23A40164E873E0CE0101960E94A9
:102CC000CB02A801BE016F5F7F4FC8010E945A234B
:102CD000A50164E773E0CE0101960E94CB02A80132
:102CE000BE016F5F7F4FC8010E945A236096EEE0DD
:102CF0000C94082AA0E1B0E0E0E8F6E10C94F42995
:102D00008C017B010E94E415005D1F4FA70164E662
:102D100073E0C8010E94CB02A701405F5F4F64E5EA
:102D200073E0CE0101960E94CB02A801BE016F5F45
:102D30007F4FC8010E945A23A701405E5F4F64E4A1
:102D400073E0CE0101960E94CB02A801BE016F5F25
:102D50007F4FC8010E945A23A701405D5F4F64E383
:102D600073E0CE0101960E94CB02A801BE016F5F05
:102D70007F4FC8010E945A236096E6E00C94102A07
:102D8000ACE9B0E0E6ECF6E10C94E8292C016B012B
:102D90001A0149013801CF56DF4FF982E882C15943
:102DA000D0408A01005F1F4FA901B801CE01819672
:102DB0000E94CB029401205F3F4FA901B101CE01D7
:102DC0000196C556DF4F2883CB59D040C456DF4FFC
:102DD0003883CC59D0400E94CB02AE014F5F5F4F89
:102DE000BE016F5D7F4FCB010E94CC23C401809652
:102DF000CD56DF4F99838883C359D040AC01B101D0
:102E0000CE01C1960E94CB02710190E2E90EF11C45
:102E1000A401B701CE0101960E94CB02AE014F5F23
:102E20005F4FBE016F5C7F4FCB010E94CC23A70197
:102E3000BE016F5D7F4FCE018F5B9F4F0E94CB0223
:102E4000A801BE016F5C7F4FCE018F5A9F4F0E9439
:102E5000CB02AE014F5B5F4FBE016F5A7F4FCB017C
:102E60000E945A23AE014F5A5F4FBE016F5D7F4FE4
:102E7000CE0101960E94CB02BE016F5C7F4FCE0156
:102E80008F599F4F0E94E00244E053E0BE016F590A
:102E90007F4FCE018F589F4F0E94CB02A101BE01F0
:102EA0006F597F4FCB010E94CB02AE014F5F5F4F46
:102EB000BE016F597F4FCB010E945A23AE014F5C78
:102EC0005F4FBE016F5D7F4FCE018F579F4F0E94B6
:102ED000CB02A401B101C2010E94CB02AE014F5747
:102EE0005F4F64EF72E0CE0101960E94CB02AE010B
:102EF0004F5F5F4FBE016F587F4FCB010E94CC23C5
:102F0000A201BE016F587F4FCB010E94CB02B401DA
:102F1000605D7F4FAE014F595F4FCE0101960E9419
:102F2000CB02AE014F5F5F4FBE016F587F4FCB01A9
:102F30000E945A23A201BE016F587F4FCB010E940D
:102F4000CB02A101BE016F5C7F4FCE0141960E9472
:102F5000CB0244E153E0BE016F5E7F4FCB010E9484
:102F6000CB02AE014F5A5F4F64E273E0CE0101968F
:102F70000E94CB02AE014F5F5F4FBE016F5E7F4F7D
:102F8000CB010E945A23B401CE0101960E94E002B7
:102F9000AE014F5F5F4FBE016F5E7F4FCB010E945E
:102FA000CB02AE014F5A5F4FBE016F5E7F4FCB0128
:102FB0000E94CB02AE014F5E5F4FBE016F587F4F44
:102FC000CB010E945A23C556DF4F2881CB59D040F0
:102FD000C456DF4F3881CC59D040A901BE016F5A89
:102FE0007F4FCE0141960E94CB02CD56DF4F4881E4
:102FF0005981C359D040BE016F5C7F4FCE0101960D
:103000000E94CB02A101BE016F5F7F4FCB010E94E6
:10301000CB02AE014F5F5F4FBE016F5E7F4FCB01B2
:103020000E94CC23AE014F5A5F4FBE016F5E7F4FAF
:10303000CB010E94CB02A401BE016F5E7F4FCB018A
:103040000E94CB02AE014F5E5F4FBE016F587F4FB3
:10305000CB010E945A23760180E2E80EF11CA70101
:10306000BE016F5C7F4FCE018F5A9F4F0E94CB02F3
:1030700090E3C90ED11CA601BE016F5D7F4FCE014A
:1030800001960E94CB02AE014F5F5F4FBE016F5AA7
:103090007F4FCB010E94CC23A101BE016F5A7F4F0D
:1030A000CB010E94CB02A801BE016F5D7F4FCE0114
:1030B00041960E94CB02A101BE016F5C7F4FCE0101
:1030C00001960E94CB02AE014F5F5F4FBE016F5E63
:1030D0007F4FCB010E945A23520180E1A80EB11C00
:1030E000A701BE016F5B7F4FC5010E94CB02A60105
:1030F000BE016F5E7F4FCE0101960E94CB02AE01F2
:103100004F5F5F4FB501C5010E945A238201005EE7
:103110001F4FBE016F5D7F4FC8010E94E002A401F6
:10312000BE016F5E7F4FCE0101960E94CB02AE01C1
:103130004F5F5F4FB801C8010E94CC23A401BE01BC
:103140006F5B7F4FCB010E94CB02AE014F575F4FA9
:10315000BE016F5B7F4FCB010E945A23C301809653
:10316000CB56DF4F99838883C559D040CF56DF4F68
:1031700048815981C159D040BC01CE018F579F4F22
:103180000E94CB02CF56DF4FC880D980C159D040B2
:1031900090E2C90ED11CA301B601CE0101960E9496
:1031A000CB02AE014F5F5F4FBE016F577F4FCB0128
:1031B0000E94CC23CF56DF4F88819981C159D040DE
:1031C0004096C956DF4F99838883C759D040A301E1
:1031D000BC01CE0141960E94CB02C3014096C75666
:1031E000DF4F99838883C959D040AC01CF56DF4F58
:1031F00068817981C159D040CE0101960E94CB02ED
:10320000AE014F5F5F4FBE016F5E7F4FCB010E94EB
:10321000CC23A501BE016F5E7F4FCB010E94CB0284
:10322000AE014F5A5F4FBE016F577F4FCE010196DF
:103230000E94CB02720190E3E90EF11CAE014F5ED9
:103240005F4FBE016F5F7F4FC7010E94CC23A70174
:10325000B801C8010E94CB02A701BE016F5B7F4F7E
:10326000CB010E94CB02CB56DF4F48815981C55913
:10327000D040C956DF4F68817981C759D040CE010F
:1032800041960E94CB02A601C756DF4F6881798123
:10329000C959D040CE0101960E94CB02AE014F5FCA
:1032A0005F4FBE016F5E7F4FCB010E94CC23AE010A
:1032B0004F5A5F4FBE016F5E7F4FCB010E94CB0222
:1032C000A501BE016F577F4FCE0101960E94CB0230
:1032D000AE014F5F5F4FBE016F5E7F4FCB010E941B
:1032E0005A23A201BE016F5E7F4FCE018F579F4FC1
:1032F0000E94CB02AE014F575F4FBE016F5D7F4F03
:10330000CE0101960E94CB02AE014F5F5F4FB80124
:10331000CE0181960E945A23AE014F575F4FBE01E6
:103320006F5C7F4FCE0101960E94CB02AE014F5FD2
:103330005F4FBE016F5B7F4FCE01C1960E945A2343
:10334000CF56DF4F48815981C159D040B301CE01DA
:103350008F5B9F4F0E94CB02A201BE016F5A7F4F2D
:10336000CE0141960E94CB02BE016F5E7F4FCB0122
:103370000E94E002B101CE0101960E94E002AE017E
:103380004F5F5F4FBE016F587F4FCB010E94CB0252
:10339000AE014F5E5F4FBE016F587F4FCB010E9461
:1033A0005A23BE016F587F4FCB010E94900EAE0191
:1033B0004F5B5F4FBE016F587F4FCB010E94CB0226
:1033C000A201BE016F587F4FCB010E94CB02AE011C
:1033D0004F5D5F4FBE016F587F4FCE018F579F4F9C
:1033E0000E94CB02AE014F5C5F4FBE016F587F4F12
:1033F000CA010E94CB02A301C956DF4F68817981BF
:10340000C759D040CE0141960E94CB02CF56DF4F24
:1034100048815981C159D040C756DF4F68817981B1
:10342000C959D040CE0101960E94CB02AE014F5F38
:103430005F4FBE016F5E7F4FCB010E945A23CF5674
:10344000DF4F48815981C159D040CB56DF4F688149
:103450007981C559D040CE0181960E94CB02A3014B
:10346000B601CE0101960E94CB02AE014F5F5F4FC5
:10347000BE016F5D7F4FCB010E945A23A501BE01A3
:103480006F5E7F4FCB010E94CB02AE014F5A5F4F60
:10349000BE016F5D7F4FCB010E94CB02AE014F5D3D
:1034A0005F4FBE016F5E7F4FCB010E945A23AE017A
:1034B0004F5A5F4FBE016F5E7F4FCB010E94CB0220
:1034C000B501CE0101960E94E002AE014F5B5F4F55
:1034D000BE016F5F7F4FCB010E94CB02AE014F5FF9
:1034E0005F4FBA01CA010E945A23AE014F5F5F4F7E
:1034F000BE016F5E7F4FCE018F5A9F4F0E945A23AD
:10350000AE014F5A5F4FBA01CA010E945A23AE0161
:103510004F595F4FBE016F5A7F4FCB010E94CB02C4
:10352000BE016F5A7F4FCB010E94900EA201BE01D7
:103530006F5A7F4FCB010E94CB02B201C2010E94A1
:10354000E002A201BE016F5A7F4FCB010E94CB0265
:10355000AE014F5B5F4FBE016F5A7F4FCB010E94A0
:10356000CB02A101BE016F5A7F4FCB010E94CB025B
:10357000AE014F5A5F4FC556DF4F2881CB59D0401F
:10358000C456DF4F3881CC59D040B901C2010E94E6
:10359000CB02B201C2010E94900EAE014F5A5F4FA2
:1035A000CD56DF4F68817981C359D040C5010E9453
:1035B000CB02A401BE016F5A7F4FCB010E94CB0208
:1035C000BE016F5A7F4FCE018F5B9F4F0E94000557
:1035D000AE014F5B5F4FB201C2010E94CB02AE0150
:1035E0004F5B5F4FB501C5010E94CB02AE014F5B3F
:1035F0005F4FBE016F577F4FC8010E94CB02AE01E3
:103600004F5B5F4FBE016F5C7F4FC7010E94CB02D3
:10361000B201C2010E94F50EB501C5010E94F50E6E
:10362000B801C8010E94F50EB701C7010E94F50E4E
:10363000C456DF4FE2E10C94042AA0EEB0E0E3E2CE
:10364000FBE10C94EC296C015B013A014901D901C1
:103650007E0181E4E80EF11CFE0131968D9181938B
:10366000EE15FF05D9F7D301F70181E090E08C0F4B
:103670009D1F80589F4F2D912193E817F907D9F787
:10368000B701C7010E94900EBE016F5F7F4FCB0153
:103690000E94900E9801AE014F5F5F4FB701C601C7
:1036A0000E94AE14B301CE018F549F4F0E94E415C7
:1036B000B401CE0101960E947A16B601CE018F5751
:1036C0009F4F0E94E415B801C7010E94E4158E01C6
:1036D0000F571F4F9E012F5F3F4FAE014F545F4F5B
:1036E000B501C6010E94C016C052DF4FEEE00C9437
:1036F000082AA0ECB0E0EFE7FBE10C94F0297C0194
:103700005B016A018901B901CE018F579F4F0E9469
:10371000B6152AEF30E0A801B501CE0101960E944E
:10372000DE218E010F5B1F4F9E012F5F3F4FAE01C9
:103730004F575F4FB601C7010E941D1BB701C7015C
:103740000E94F50EC7014096BC010E94F50EC7010C
:103750008096BC010E94F50EC701C096BC010E9474
:10376000F50EC054DF4FEAE00C940C2AA0E0B1E063
:10377000ECEBFBE10C94EA296C013B015A01490195
:103780002801B901CE018F579F4F0E94630FBE01E0
:103790006F577F4FC6010E9460152FE730E0A601EA
:1037A000B701CE0101960E94DE218E010F5B1F4FF3
:1037B0009E012F5F3F4FAE014F575F4FB401CE01C7
:1037C0008F539F4F0E941D1BB501C6010E94B61565
:1037D0002AEF30E0A501B201CE0101960E94DE2160
:1037E0009E012F5F3F4FA601B301CE018F579F4F20
:1037F0000E941D1BAE014F575F4FBE016F537F4F9D
:10380000C6010E945F10B601C6010E94F50EC601F6
:103810004096BC010E94F50EC6018096BC010E9434
:10382000F50EC601C096BC010E94F50ED395E0E1ED
:103830000C94062ACF93DF93EB01DA01B90140E043
:103840005D91FB012191BF0130E0250F311D5881B1
:10385000250F311D31703883FC012193CF014F5F5B
:10386000403271F7DF91CF9108950F931F93CF935B
:10387000DF93EB01DA01890140E02D91F8015191CC
:103880008F0130E06881261B3109251B3109317019
:103890003883FC012193CF014F5F403271F7DF91F4
:1038A000CF911F910F910895CF93DF93DA01FB0120
:1038B000EC0180E091912C9130E0290F311D3C9377
:1038C00029938F5F8031B1F7DF91CF910895CF9326
:1038D000DF93EA01288121952883FB01DC0190E236
:1038E00001C02881819182238D939150D1F7DF917E
:1038F000CF910895AF92BF92DF92EF92FF920F9314
:103900001F93CF93DF93CDB7DEB7A0970FB6F89490
:10391000DEBF0FBECDBF7A01DC015B0100E010E02D
:10392000F50121915F01F701D1907F0130E0211B6A
:1039300031092D193109132F11702D930F5F0032AA
:1039400079F7FB01B096405E5F4F8096605C7F4FD9
:103950007C012191DA010D91AD0130E0211B31098B
:10396000201B3109132F1170D7012D937D01E6170C
:10397000F70779F772E0AE014F5D5F4F1195E4E50F
:10398000F4E0DE011196219121232D9324E0E43708
:10399000F207C9F7DC01FE01319610E061912C912C
:1039A00030E0211B3109261B3109132F11702D9393
:1039B000E417F50799F7715009F7A0960FB6F89438
:1039C000DEBF0FBECDBFDF91CF911F910F91FF9052
:1039D000EF90DF90BF90AF900895A0E2B0E0E3EFEA
:1039E000FCE10C94ED297C018B016A010E94C10667
:1039F000560180E1A80EB11C480180E1880E911C9F
:103A0000A501B401C70180960E94C106A501B801B5
:103A1000CE0101960E94C106570180E1A80EB11C9B
:103A20008E010F5D1F4FD501FE013196712C8C91D7
:103A3000219130E0280F311D270D311D732E2D935C
:103A4000E017F107A1F7A601B401CE0101960E948B
:103A5000C106D501FE01319680E09C91219130E0B4
:103A6000290F311D280F311D832F2D93E017F107EA
:103A7000A1F7730EF701F09680E4E80EF11C2081A7
:103A8000872D90E0820F911D792E8193EE15FF0511
:103A9000B1F7A096EDE00C94092AA0E8B0E0E3E5C8
:103AA000FDE10C94EA293C01DB01FE0131965F0146
:103AB0007E0181E4E80EF11C8D918193EE15FF05E6
:103AC000D9F744E0442E512C8701005E1F4F670157
:103AD000A0E3CA0ED11C4701B0E48B0E911C44E553
:103AE00054E0BE016F5D7F4FC7010E94ED1CD50100
:103AF000F7018C91219130E0280F311D250D311DEA
:103B0000532E2D93E017F107A1F7F801DE019196EE
:103B10002191852D90E0820F911D592E8D93EC15EA
:103B2000FD05B1F7F601DE01D1962191852D90E0DA
:103B3000820F911D592E8D93E815F905B1F74A941E
:103B400071F629A1822F8C7190E0959587959595B6
:103B500087958AA398A1892F869586952295220F0D
:103B6000220F207C822B89A3937098A344E354E016
:103B7000BE016F5D7F4FC7010E94ED1CD501F701AB
:103B80002C91819190E0820F911D850D911D592EF0
:103B90008D93E017F107A1F71AA288A182FB99275C
:103BA00090F9837088A39195E4E3F4E0D7018191C3
:103BB00089238D9384E0E435F807C9F7B3019501B3
:103BC000205E3F4FF50140E05191D7018D917D017D
:103BD00090E0850F911D840F911D492FDB018D937E
:103BE000BD01E217F30781F7C058DF4FE0E10C9405
:103BF000062AA0E4B0E0EFEFFDE10C94F2298C017D
:103C00007B016901BA010E944D1DB801C8010E94E3
:103C1000B302A601B801CE0101960E94ED1CAE01CF
:103C20004F5F5F4FB701CA010E947A1CBE016F5FF0
:103C30007F4FC8010E944D1DC05CDF4FE8E00C942F
:103C40000E2A2F923F924F925F926F927F928F92A5
:103C50009F92AF92BF92CF92DF92EF92FF920F931B
:103C60001F93CF93DF93EDB7FEB7E05FF0400FB641
:103C7000F894FEBFEDBF0FBEB9968F939F93CF010F
:103C8000EB01870142E311921192119211924A9530
:103C9000D1F7083A110598F145E1FC0129913081ED
:103CA0002327219329913081232721932991308142
:103CB0002327219329913081232721932991308132
:103CC0002327219329913081232721932991308122
:103CD0002327219329913081232721934150F1F605
:103CE000CF93DF930F931F930E944F1F1F910F914C
:103CF000DF91CF91085A1040083A110568F6FC018F
:103D0000069528F42991308123272193005051F002
:103D100029913081232721932991308123272193D1
:103D20000150B1F72FE1308123272083E7EAE80F24
:103D3000F92FF11D2081205820830E944F1F40E160
:103D4000EC01FF91EF9129912193299121932991E0
:103D50002193299121934A95B1F7E7EC8E0F911D9C
:103D60000FB6F8949EBF8DBF0FBEDF91CF911F910C
:103D70000F91FF90EF90DF90CF90BF90AF909F900A
:103D80008F907F906F905F904F903F902F90812DFC
:103D9000912D089501005003093806095802128830
:103DA000071B90051B18042428043680053F400794
:103DB00000A80212C0061B20032D78013FB800099D
:103DC00098001B68012D600300100612A0022D70E0
:103DD0000700B0051248042D30040008010000005F
:103DE0000000000082800000000000008A800000C7
:103DF0000000008000800080000000808B800000B8
:103E000000000000010000800000000081800080B0
:103E10000000008009800000000000808A0000008F
:103E20000000000088000000000000000980008001
:103E3000000000000A000080000000008B8000806D
:103E4000000000008B00000000000080898000005E
:103E5000000000800380000000000080028000005D
:103E60000000008080000000000000800A80000048
:103E7000000000000A0000800000008081800080B7
:103E800000000080808000000000008001000080B1
:103E9000000000000880008000000080FF00FC019E
:103EA000B89725E0EC012990399049905990699094
:103EB000799089909990A0960990202409903024B7
:103EC000099040240990502409906024099070249E
:103ED0000990802409909024A096099020240990AC
:103EE00030240990402409905024099060240990BE
:103EF00070240990802409909024A0960990202491
:103F0000099030240990402409905024099060249D
:103F1000099070240990802409909024A09609901B
:103F200020240990302409904024099050240990BD
:103F30006024099070240990802409909024219293
:103F40003192419251926192719281929192C05AB2
:103F5000D109215009F0A7CF6CED7DE3FC01389722
:103F6000DC019097EC0126E12D903D904D905D9005
:103F70006D907D908D909D90220C331C441C551C9F
:103F8000661C771C881C991C211C01902024019020
:103F9000302401904024019050240190602401902D
:103FA0007024019080240190902435E00880022440
:103FB0000992088003240992088004240992088049
:103FC0000524099208800624099208800724099292
:103FD000088008240992088009240992A0963A953D
:103FE00029F7C05CD109269510F439F0BDCF2B30EC
:103FF00011F4B897B9CF9897B7CFA0972990399077
:104000004990599069907990899099906F937F9396
:1040100024E93DE3A5E7B0E261EC70E2F901059027
:10402000A59045919F01FD01E00DF11D0994EC0162
:10403000C40FD11DFB01EA0DF11D099428972992A7
:10404000399249925992699279928992999215017D
:10405000260137014801485009F77F916F91EC0123
:10406000DC019897FB0108E0A12CB12C6501E12C43
:1040700015E0288038844888588C68A0032C009468
:1040800004200224A0240882042C00940520032488
:10409000B0240886052C009406200424C024088A35
:1040A000062C009402200524D024088E209423207E
:1040B0002624E22428A2A8961A95D9F6C85CD1092C
:1040C0000590288020242992BF01FD01A024A192FF
:1040D000B782C786D78AE78EDF01FB010A9521F6F2
:1040E0000490039409F03ACF0895A1CF21C017C0DE
:1040F0000DC003C027C030C039C0220C331C441C83
:10410000551C661C771C881C991C211C220C331C16
:10411000441C551C661C771C881C991C211C220CF5
:10412000331C441C551C661C771C881C991C211CC4
:10413000220C331C441C551C661C771C881C991CC3
:10414000211C75CF20FA979487947794679457949D
:1041500047943794279497F820FA97948794779404
:104160006794579447943794279497F820FA979434
:10417000879477946794579447943794279497F843
:1041800056CFA990B990C990D990E990F99009912A
:10419000199154CFB990C990D990E990F9900991AB
:1041A0001991A9904BCFC990D990E990F9900991B4
:1041B0001991A990B99042CFD990E990F9900991BD
:1041C0001991A990B990C99039CFE990F9900991C6
:1041D0001991A990B990C990D99030CFF9900991CF
:1041E0001991A990B990C990D990E99027CF0991D8
:1041F0001991A990B990C990D990E990F9901ECFE2
:104200001991A990B990C990D990E990F990099124
:1042100015CFA0E0B0E0EFE0F1E20C94E829EC016A
:104220007B016A011801B901C7010E943F24B60150
:10423000CE010E943F24AE01B701C7010E94CB020C
:104240005E0180E1A80EB11C370180E1680E711C8F
:10425000A501B301C3010E94CB026E0180E2C80E2A
:10426000D11C470180E2880E911CA601B401C40153
:104270000E94CB028E01005D1F4F270180E3480E94
:10428000511CA801B201C2010E94CB02BE01CE01A5
:104290000E94E002B501C5010E94E002B601C6011C
:1042A0000E94E002B801C8010E94E0024AE754E01F
:1042B000B701C7010E946D2248E754E0B301C30172
:1042C0000E946D2246E754E0B401C4010E946D22B1
:1042D00044E754E0B201C2010E946D224AE754E073
:1042E000BE01CE010E946D2248E754E0B501C50130
:1042F0000E946D2246E754E0B601C6010E946D227D
:1043000044E754E0B801C8010E946D22B701C7011B
:104310000E943F24BE01CE010E943F24B701C70185
:104320000E94E002B301C3010E94E002B401C40193
:104330000E94E002B201C2010E94E002BE01CE0171
:104340000E94E002B501C5010E94E002B601C6016B
:104350000E94E002B801C8010E94E002A101B3017D
:10436000C3010E94CB02A101405F5F4FB401C401B1
:104370000E94CB02A101405E5F4FB201C2010E94C8
:10438000CB0242E854E0BE01CE010E946D2240E81B
:1043900054E0B501C5010E946D224EE754E0B6011C
:1043A000C6010E946D224CE754E0B801C8010E948A
:1043B0006D22CDB7DEB7E2E10C94042AA0E0B0E0B4
:1043C000E4EEF1E20C94EC295C014B013A01690145
:1043D0008BE0D5018C9386E150968C93509783E1C6
:1043E00090968C93909783E0D0968C9395012F5F55
:1043F0003F4FC5014196F501B196B5016F5C7F4F06
:10440000A501405D5F4FD9011D929D01DC011D9208
:10441000CD011192DB011D92BD01E417F50799F75B
:104420007501B0E4EB0EF11CB301C7010E94B61593
:10443000D7FC3AC000E010E0F601F595E795F59558
:10444000E795F595E795E80DF91DC081D0E0C60127
:104450008770992702C0D595C7958A95E2F7C170F4
:10446000DD270C271D27B701C7010E94900E01957B
:10447000F701D50120E09C9180818927802398272E
:104480009D939081982791932F5F2034A1F783010A
:104490009701A501B701C5010E940921E1E0CE1AEB
:1044A000D10810F08E01C8CFB501C5010E94900E51
:1044B000C195F701D50120E09C91808189278C234B
:1044C00098279D939081982791932F5F2034A1F78F
:1044D000CDB7DEB7EEE00C94082A2F923F926F9290
:1044E0007F928F929F92AF92BF92CF92DF92EF9284
:1044F000FF920F931F93CF93DF93FC01EA01DB013F
:104500007727882799276624772488249924AA2442
:10451000BB24CC24DD24EE24FF24002711272227EE
:104520003327588169814D91459F10014D91459FD9
:10453000300C811D4D91459F800D911D4D91459FE2
:10454000900D611C4D91459F600C711C4D91459FD4
:10455000700C811C4D91459F800C911C4D91459F85
:10456000900CA11C4D91459FA00CB11C4D91459FF5
:10457000B00CC11C4D91459FC00CD11C4D91459F65
:10458000D00CE11C4D91459FE00CF11C4D91459FD5
:10459000F00C011D4D91459F000D111D4C91459F43
:1045A000100D211D12974D91469F000D131E512D88
:1045B0004D91469F100D211D331F4C91469F150FA5
:1045C000201D311D1F97110F221F331F16954D916E
:1045D000469F220E301C212D271F4D91469F330EE2
:1045E000801D312D371F4D91469F820F901D212D2B
:1045F000271F4D91469F930F601C312D371F4D9102
:10460000469F620E701C212D271F4D91469F730EF1
:10461000801C312D371F4D91469F820E901C212DFD
:10462000271F4D91469F930EA01C312D371F4D9192
:10463000469FA20EB01C212D271F4D91469FB30E01
:10464000C01C312D371F4D91469FC20ED01C212D0D
:10465000271F4D91469FD30EE01C312D371F4C91E3
:10466000469FE20EF01C071F171FF30E011D171FB8
:1046700020823182828393836482758286829782CC
:10468000A086B186C286D386E486F586068717871C
:104690001124DF91CF911F910F91FF90EF90DF9048
:1046A000CF90BF90AF909F908F907F906F903F90F2
:1046B0002F9008957F928F929F92AF92BF92CF9248
:1046C000DF92EF92FF920F931F93DB01FC01CE016B
:1046D000EA017D908990780C8D909990891C9D902D
:1046E000A9909A1CAD90B990AB1CBD90C990BC1C10
:1046F000CD90D990CD1CDD90E990DE1CED90F99025
:10470000EF1CFD900991F01E0D911991011F1D9153
:104710002991121F2D913991231F3D914991341FE9
:104720004D915991451F5D916991561F6D917991F8
:10473000671F7727771F660F771F6695770E811C97
:10474000911CA11CB11CC11CD11CE11CF11C011D40
:10475000111D211D311D411D511D611D719281923F
:104760009192A192B192C192D192E192F192019370
:10477000119321933193419351936083EC01112460
:104780001F910F91FF90EF90DF90CF90BF90AF906F
:104790009F908F907F9008957F928F929F92AF927B
:1047A000BF92CF92DF92EF92FF920F931F93DB01A4
:1047B000FC01CE01EA017D90899078188D90999046
:1047C00089089D90A9909A08AD90B990AB08BD90CA
:1047D000C990BC08CD90D990CD08DD90E990DE0855
:1047E000ED90F990EF08FD900991F00A0D91199163
:1047F000010B1D912991120B2D913991230B3D91A4
:104800004991340B4D915991450B5D916991560B2E
:104810006D917991670B7727771F770F771A81084A
:104820009108A108B108C108D108E108F1080109FF
:104830001109210931094109510961097727771FB8
:10484000770F771A719281929192A192B192C1924F
:10485000D192E192F192019311932193319341937B
:1048600051936083EC011F910F91FF90EF90DF90C7
:10487000CF90BF90AF909F908F907F9008956F9250
:104880007F928F929F92AF92BF92CF92DF92EF92E0
:10489000FF920F931F933E01FB01EC01A080B088B3
:1048A000AB0CB180C188BC1CC280D288CD1CD38027
:1048B000E388DE1CE480F488EF1CF5800589F01E97
:1048C00006811689011F17812789121F2085308DC7
:1048D000231F3185418D341F4285528D451F5385DD
:1048E000638D561F6485748D671F7585858D781F50
:1048F0008685968D891F9785978C991D8824881C9D
:10490000990F881C9695A80CB11CC11CD11CE11CE8
:10491000F11C011D111D211D311D411D511D611D68
:10492000711D811D911D9088A88AA0809A18A18868
:10493000B98AB180AB08B288CA8AC280BC08C38871
:10494000DB8AD380CD08D488EC8AE480DE08E58851
:10495000FD8AF580EF08F6880E8B0681F00A07893C
:104960001F8B1781010B108D288F2085120B218D35
:10497000398F3185230B328D4A8F4285340B438D1D
:104980005B8F5385450B548D6C8F6485560B658DFD
:104990007D8F7585670B768D8E8F8685780B878DDD
:1049A0009F8F9785890B8824881C880C9818A108EC
:1049B000B108C108D108E108F1080109110921096C
:1049C0003109410951096109710981098824881C4B
:1049D000880C98189882A982BA82CB82DC82ED82F8
:1049E000FE820F83188729873A874B875C876D87FC
:1049F0007E878F87A0A0B0A8AB0CB1A0C1A8BC1CBB
:104A0000C2A0D2A8CD1CD3A0E3A8DE1CE4A0F4A8C9
:104A1000EF1CF5A005A9F01E06A116A9011F17A1FC
:104A200027A9121F20A530AD231F31A541AD341F8A
:104A300042A552AD451F53A563AD561F64A574AD85
:104A4000671F75A585AD781F86A596AD891F97A5AB
:104A500097AC991D8824881C990F881C9695A80CE2
:104A6000B11CC11CD11CE11CF11C011D111D211D1B
:104A7000311D411D511D611D711D811D911D9F9392
:104A80008F937F936F935F934F933F932F931F93D6
:104A90000F93FF92EF92DF92CF92BF92AF9290A0CE
:104AA000A0A89A18A1A0B1A8AB08B2A0C2A8BC083F
:104AB000C3A0D3A8CD08D4A0E4A8DE08E5A0F5A83B
:104AC000EF08F6A006A9F00A07A117A9010B10A587
:104AD00020AD120B21A531AD230B32A542AD340B15
:104AE00043A553AD450B54A564AD560B65A575ADF7
:104AF000670B76A586AD780B87A597AD890B8824C3
:104B0000881C880C9818A108B108C108D108E108D0
:104B1000F108010911092109310941095109610906
:104B2000710981098824881C880C981898AAA9AA58
:104B3000BAAACBAADCAAEDAAFEAA0FAB18AF29AF7E
:104B40003AAF4BAF5CAF6DAF7EAF8FAF8888980C3C
:104B50008988A81C8A88B81C8B88C81C8C88D81C9B
:104B60008D88E81C8E88F81C8F88081D888C181D7D
:104B7000898C281D8A8C381D8B8C481D8C8C581D67
:104B80008D8C681D8E8C781D8F8C881D8824881CC8
:104B9000880F881C8695980CA11CB11CC11CD11CC7
:104BA000E11CF11C011D111D211D311D411D511D57
:104BB000611D711D811D88A898AA9888891899A8D7
:104BC000A9AAA9889A08AAA8BAAABA88AB08BBA8B1
:104BD000CBAACB88BC08CCA8DCAADC88CD08DDA891
:104BE000EDAAED88DE08EEA8FEAAFE88EF08FFA871
:104BF0000FAB0F89F00A08AD18AF188D010B19AD76
:104C000029AF298D120B2AAD3AAF3A8D230B3BAD5C
:104C10004BAF4B8D340B4CAD5CAF5C8D450B5DAD3C
:104C20006DAF6D8D560B6EAD7EAF7E8D670B7FAD1C
:104C30008FAF8F8D780B8827881F880F881A91086F
:104C4000A108B108C108D108E108F108010911095A
:104C50002109310941095109610971098827881F12
:104C6000880F881A88A299A2AAA2BBA2CCA2DDA210
:104C7000EEA2FFA208A719A72AA73BA74CA75DA7EA
:104C80006EA77FA7A880BF90B88AAB0CB980CF90E1
:104C9000C98ABC1CCA80DF90DA8ACD1CDB80EF9009
:104CA000EB8ADE1CEC80FF90FC8AEF1CFD800F91EC
:104CB0000D8BF01E0E811F911E8B011F1F812F91E6
:104CC0002F8B121F28853F91388F231F39854F91D5
:104CD000498F341F4A855F915A8F451F5B856F91BD
:104CE0006B8F561F6C857F917C8F671F7D858F91A1
:104CF0008D8F781F8E859F919E8F891F9F859F9096
:104D00009F8E991D8824881C990F881C9695A80C45
:104D1000B11CC11CD11CE11CF11C011D111D211D68
:104D2000311D411D511D611D711D811D911D9880F9
:104D3000A882A8889A18A980B982B988AB08BA80D5
:104D4000CA82CA88BC08CB80DB82DB88CD08DC80C5
:104D5000EC82EC88DE08ED80FD82FD88EF08FE80A5
:104D60000E830E89F00A0F811F831F89010B18859E
:104D70002887288D120B29853987398D230B3A8591
:104D80004A874A8D340B4B855B875B8D450B5C8571
:104D90006C876C8D560B6D857D877D8D670B7E8551
:104DA0008E878E8D780B8F859F879F8D890B8824AA
:104DB000881C880C9818A108B108C108D108E1081E
:104DC000F108010911092109310941095109610954
:104DD000710981098824881C880C9818988AA98AE6
:104DE000BA8ACB8ADC8AED8AFE8A0F8B188F298FCC
:104DF0003A8F4B8F5C8F6D8F7E8F8F8FE3011F916A
:104E00000F91FF90EF90DF90CF90BF90AF909F9069
:104E10008F907F906F9008951092C50089E18093E4
:104E2000C40088E18093C1000895909174059111A8
:104E30000BC01092C50099E19093C40098E1909343
:104E4000C10091E0909374059091C00095FFFCCF54
:104E50008093C6000895FC0120812223C9F0319679
:104E600049E138E191E080917405811108C0109208
:104E7000C5004093C4003093C100909374058091A5
:104E8000C00085FFFCCF2093C60021912111EBCFFC
:104E90000895A4E0B0E0EFE4F7E20C94F029611586
:104EA000710511F18C015C01A60EB71ECE010196B1
:104EB0007C018EEBC82E84E0D82EF80181918F0101
:104EC0001F928F93DF92CF92FF92EF920E94A52ABA
:104ED000C7010E942B270F900F900F900F900F90FB
:104EE0000F900A151B0549F72496EAE00C940C2A4A
:104EF000ACE1B0E0EEE7F7E20C94E829922E832EC5
:104F0000742E652E562E472E382E292E188EA0E090
:104F10000E943D2A09F44DC09E01285E3F4F3C8F00
:104F20002B8F86E190E09A8F898F9AE0A92EB12C81
:104F3000C12CD12CE12CF12C00E010E0292D382DD2
:104F4000472D562D652D742D832D922D0E94892974
:104F5000205DEB8DFC8D2293FC8FEB8F298D3A8D9C
:104F6000215031093A8F298F292D382D472D562D63
:104F7000652D742D832D922D0E948B29922E832EC8
:104F8000742E652E562E472E382E292EA0E00E9414
:104F90003D2A59F6898D9A8D0196E1E0F0E0EC0FFB
:104FA000FD1F8E0F9F1F0E942B276C96E2E10C9431
:104FB000042A84EC94E00E942B2787E190E0EDCF57
:104FC000A0E0B0E0E6EEF7E20C94EC294B013A01E8
:104FD000E9010E942B278EED94E00E942B278FEF92
:104FE00088169806B1F086EC94E00E942B27A12C3D
:104FF000B12CC12CD12C7601940140E050E060E04E
:1050000070E080E090E00E94782788EC94E00E94B5
:105010002B272197209729F14301612C712C8FEFC9
:10502000681A780AF401208588E0880E911C318581
:10503000428553856485758586859785A080B18076
:10504000C280D380E480F580068117810E942B2ADC
:105050000E9478278FED94E00E942B276C167D0626
:10506000F0F287ED94E00E942B27CDB7DEB7EEE09B
:105070000C94082A8F929F92AF92BF92CF92DF92A8
:10508000EF92FF92CF93DF934B01EA010E942B270F
:105090008EED94E00E942B278FEF8816980689F0FA
:1050A00086EC94E00E942B27940140E050E060E001
:1050B00070E080E090E00E94782788EC94E00E9405
:1050C0002B279E0140E050E060E070E080E090E03F
:1050D0000E9478278BEC94E00E942B27DF91CF91E0
:1050E000FF90EF90DF90CF90BF90AF909F908F9008
:1050F000089584E00E941527FFCFEC0189ED94E02C
:105100000E942B27CE010E942B2787ED94E00E945E
:105110002B270E9479288FEF9FEF0E94D82D4F9266
:105120005F926F927F92AF92BF92CF92DF92EF9297
:10513000FF920F931F93CF93DF9300D000D0CDB792
:10514000DEB785E08A8319821B821C821D821E8243
:10515000412C512C3201C2010E949A2A00E012E037
:1051600007C0D8018D938D01B2E000321B0779F0A2
:105170000E94962A907897FFF4CF01979F6F01962F
:10518000D8018D938D01B2E000321B0789F70E9490
:10519000962A907897FD8EC08093730540E052E088
:1051A00063E175E083E595E00E94070183E1A82EA5
:1051B00085E0B82ECC24C394D12CE12CF12C00E056
:1051C00010E020E030E043E755E063E575E083EE72
:1051D00094E00E94440193EEC92E94E0D92EEE246F
:1051E000E39420E030E040E050E063E775E083E5E1
:1051F00095E00E942A028093E204882309F447C0C4
:105200008A8190E0A0E0B0E0EFEF4E1A5E0A6E0AED
:105210007E0A481659066A067B060CF49CCF8B81E1
:105220009C81AD81BE81892B8A2B8B2B09F046C0D6
:1052300086E994E00E942B2787ED94E00E942B27BB
:1052400061E070E0CE0102960E9449278AEA94E06C
:105250000E942B2787ED94E00E942B270E9479283B
:1052600080E090E026960FB6F894DEBF0FBECDBF6B
:10527000DF91CF911F910F91FF90EF90DF90CF9032
:10528000BF90AF907F906F905F904F90089549824C
:105290004A80512C612C712C8B819C81AD81BE8107
:1052A0000196A11DB11D8B839C83AD83BE83D30169
:1052B000C201AACF01979F6F01966ECF84E894E058
:1052C0000E942B2787ED94E00E942B2761E070E07D
:1052D000CE0101960E9449278FE894E00E942B2777
:1052E00087ED94E00E942B2760E270E080E092E07E
:1052F0000E94492787ED94E00E942B2761E070E02F
:1053000083E795E00E94492787ED94E00E942B27D0
:10531000A5CF689401C0E8948F929F92CF93DF93BA
:105320000E949729DF91CF919F908F9008958824B4
:105330009924F401E401B0E49F93AA279A158B0401
:105340009C04ED05FE05CF05D007A10798F4AD2F0D
:10535000DC2FCF2FFE2FE92D982C892E982F872F09
:10536000762F652F542F432F322F2227B85031F735
:10537000BF9127C01B2EBF91BB27220F331F441F95
:10538000551F661F771F881F991F881C991CEE1FC9
:10539000FF1FCC1FDD1FAA1FBB1F8A149B04EC0537
:1053A000FD05CE05DF05A007B10748F08A189B0868
:1053B000EC09FD09CE09DF09A00BB10B21601A949D
:1053C000E1F62EF49401AF01BE01CD01000C089569
:1053D0002F923F924F925F926F927F928F929F9205
:1053E000AF92BF92CF92DF92EF92FF920F931F93F3
:1053F000CF93DF93CDB7DEB7CA1BDB0B0FB6F894A4
:10540000DEBF0FBECDBF19942A88398848885F84D3
:105410006E847D848C849B84AA84B984C884DF8054
:10542000EE80FD800C811B81AA81B981CE0FD11D38
:105430000FB6F894DEBF0FBECDBFED010895002476
:10544000A7FD00942A0F301D401D501D601D701DCA
:10545000801D901D08952A193B094C095D096E09AC
:105460007F09800B910B08952A153B054C055D05BE
:105470006E057F058007910708950024A7FD00941D
:105480002A17300540055005600570058005900518
:1054900008958F929F92AF92BF92CF92DF92EF9238
:1054A000FF92CF93DF93EC01688179818A819B81A0
:1054B000611571058105910521F464E279ED8BE5B3
:1054C00097E02DE133EF41E050E00E94752D490156
:1054D0005A019B01AC01A7EAB1E40E94942D6B0133
:1054E0007C01ACEEB4EFA50194010E94A22DC60E82
:1054F000D71EE81EF91EF7FE06C081E0C81AD108C3
:10550000E10880E8F80AC882D982EA82FB82C601F3
:105510009F77DF91CF91FF90EF90DF90CF90BF907A
:10552000AF909F908F9008950C94492A80E292E06A
:105530000C94492AA0E0B0E08093200290932102CD
:10554000A0932202B093230208950F931F93CF9349
:10555000DF93CDB7DEB72E970FB6F894DEBF0FBE40
:10556000CDBF0E891F8986E08C831A8309838FEF54
:105570009FE79E838D83AE01465E5F4F688D798D78
:10558000CE0101960E94D42AEF81F885E00FF11F29
:1055900010822E960FB6F894DEBF0FBECDBFDF91FE
:1055A000CF911F910F9108952F923F924F925F924A
:1055B0006F927F928F929F92AF92BF92CF92DF9223
:1055C000EF92FF920F931F93CF93DF93CDB7DEB788
:1055D0002C970FB6F894DEBF0FBECDBF7C016B01D8
:1055E0008A01FC0117821682838181FFBDC1CE0131
:1055F00001964C01F7019381F60193FD859193FF8C
:1056000081916F01882309F4ABC1853239F493FD90
:10561000859193FF81916F01853229F4B70190E064
:105620000E94E52CE7CF512C312C20E02032A0F451
:105630008B3269F030F4803259F0833269F42061A2
:105640002CC08D3239F0803339F4216026C02260BD
:10565000246023C0286021C027FD27C030ED380F0B
:105660003A3078F426FF06C0FAE05F9E300D112430
:10567000532E13C08AE0389E300D1124332E206241
:105680000CC08E3221F426FD6BC1206406C08C361E
:1056900011F4206802C0883641F4F60193FD85912B
:1056A00093FF81916F018111C1CF982F9F7D9554F8
:1056B000933028F40C5F1F4FFFE3F9830DC083364E
:1056C00031F0833771F0833509F05BC022C0F801F7
:1056D000808189830E5F1F4F44244394512C5401D1
:1056E00015C03801F2E06F0E711CF801A080B18086
:1056F00026FF03C0652D70E002C06FEF7FEFC5018C
:105700002C870E94DA2C2C0183012C852F77222EE6
:1057100017C03801F2E06F0E711CF801A080B18053
:1057200026FF03C0652D70E002C06FEF7FEFC5015B
:105730002C870E94CF2C2C012C852068222E8301DF
:1057400023FC1BC0832D90E048165906B0F4B70126
:1057500080E290E00E94E52C3A94F4CFF50127FC1A
:10576000859127FE81915F01B70190E00E94E52CB1
:1057700031103A94F1E04F1A51084114510471F775
:10578000E5C0843611F0893639F5F80127FF07C0E6
:1057900060817181828193810C5F1F4F08C060819D
:1057A0007181882777FD8095982F0E5F1F4F2F7688
:1057B000B22E97FF09C090958095709561957F4FA7
:1057C0008F4F9F4F2068B22E2AE030E0A4010E9444
:1057D000172DA82EA81844C0853729F42F7EB22E85
:1057E0002AE030E025C0F22FF97FBF2E8F36C1F0BE
:1057F00018F4883579F0B4C0803719F0883721F073
:10580000AFC02F2F2061B22EB4FE0DC08B2D84604F
:10581000B82E09C024FF0AC09F2F9660B92E06C07B
:1058200028E030E005C020E130E002C020E132E0B5
:10583000F801B7FE07C060817181828193810C5F9E
:105840001F4F06C06081718180E090E00E5F1F4FA6
:10585000A4010E94172DA82EA818FB2DFF77BF2E9C
:10586000B6FE0BC02B2D2E7FA51450F4B4FE0AC03B
:10587000B2FC08C02B2D2E7E05C07A2C2B2D03C028
:105880007A2C01C0752C24FF0DC0FE01EA0DF11D1C
:105890008081803311F4297E09C022FF06C07394F1
:1058A000739404C0822F867809F0739423FD13C08B
:1058B00020FF06C05A2C731418F4530C5718732C7D
:1058C000731468F4B70180E290E02C870E94E52C05
:1058D00073942C85F5CF731410F4371801C0312C54
:1058E00024FF12C0B70180E390E02C870E94E52CD2
:1058F0002C8522FF17C021FF03C088E590E002C07D
:1059000088E790E0B7010CC0822F867859F021FD1E
:1059100002C080E201C08BE227FD8DE2B70190E07A
:105920000E94E52CA51438F4B70180E390E00E94B2
:10593000E52C5A94F7CFAA94F401EA0DF11D808169
:10594000B70190E00E94E52CA110F5CF332009F4B7
:1059500051CEB70180E290E00E94E52C3A94F6CF58
:10596000F7018681978102C08FEF9FEF2C960FB6CB
:10597000F894DEBF0FBECDBFDF91CF911F910F9185
:10598000FF90EF90DF90CF90BF90AF909F908F905F
:105990007F906F905F904F903F902F900895FC0103
:1059A0000590615070400110D8F7809590958E0F4A
:1059B0009F1F0895FC016150704001900110D8F7BD
:1059C000809590958E0F9F1F08950F931F93CF93EF
:1059D000DF93182F092FEB018B8181FD03C08FEF1F
:1059E0009FEF20C082FF10C04E815F812C813D81DE
:1059F000421753077CF4E881F9819F012F5F3F4FE5
:105A000039832883108306C0E885F985812F19958D
:105A1000892B29F72E813F812F5F3F4F3F832E83B4
:105A2000812F902FDF91CF911F910F910895FA014F
:105A3000AA27283051F1203181F1E8946F936E7FCD
:105A40006E5F7F4F8F4F9F4FAF4FB1E03ED0B4E0BE
:105A50003CD0670F781F891F9A1FA11D680F791FFF
:105A60008A1F911DA11D6A0F711D811D911DA11D10
:105A700020D009F468943F912AE0269F1124301920
:105A8000305D3193DEF6CF010895462F4770405DBB
:105A90004193B3E00FD0C9F7F6CF462F4F70405D6A
:105AA0004A3318F0495D31FD4052419302D0A9F7C5
:105AB000EACFB4E0A6959795879577956795BA95BF
:105AC000C9F700976105710508959B01AC010A2E85
:105AD00006945795479537952795BA95C9F7620F5C
